{
	"contracts/Twitter.sol": {
		"Twitter": {
			"abi": [
				{
					"inputs": [],
					"stateMutability": "nonpayable",
					"type": "constructor"
				},
				{
					"anonymous": false,
					"inputs": [
						{
							"indexed": false,
							"internalType": "uint256",
							"name": "id",
							"type": "uint256"
						},
						{
							"indexed": true,
							"internalType": "address",
							"name": "author",
							"type": "address"
						},
						{
							"indexed": false,
							"internalType": "string",
							"name": "content",
							"type": "string"
						},
						{
							"indexed": false,
							"internalType": "uint256",
							"name": "timestamp",
							"type": "uint256"
						},
						{
							"indexed": false,
							"internalType": "uint256",
							"name": "likes",
							"type": "uint256"
						}
					],
					"name": "TweetCreated",
					"type": "event"
				},
				{
					"anonymous": false,
					"inputs": [
						{
							"indexed": true,
							"internalType": "address",
							"name": "owner",
							"type": "address"
						},
						{
							"indexed": false,
							"internalType": "uint16",
							"name": "tweetlength",
							"type": "uint16"
						}
					],
					"name": "TweetLengthChanged",
					"type": "event"
				},
				{
					"anonymous": false,
					"inputs": [
						{
							"indexed": true,
							"internalType": "address",
							"name": "author",
							"type": "address"
						},
						{
							"indexed": false,
							"internalType": "uint256",
							"name": "likes",
							"type": "uint256"
						}
					],
					"name": "TweetLiked",
					"type": "event"
				},
				{
					"anonymous": false,
					"inputs": [
						{
							"indexed": true,
							"internalType": "address",
							"name": "author",
							"type": "address"
						},
						{
							"indexed": false,
							"internalType": "uint256",
							"name": "likes",
							"type": "uint256"
						}
					],
					"name": "TweetUnLiked",
					"type": "event"
				},
				{
					"anonymous": false,
					"inputs": [
						{
							"indexed": true,
							"internalType": "address",
							"name": "follower",
							"type": "address"
						},
						{
							"indexed": true,
							"internalType": "address",
							"name": "following",
							"type": "address"
						}
					],
					"name": "UserFollowed",
					"type": "event"
				},
				{
					"anonymous": false,
					"inputs": [
						{
							"indexed": true,
							"internalType": "address",
							"name": "follower",
							"type": "address"
						},
						{
							"indexed": true,
							"internalType": "address",
							"name": "following",
							"type": "address"
						}
					],
					"name": "UserUnfollowed",
					"type": "event"
				},
				{
					"inputs": [],
					"name": "MAX_TWEET_LIMIT",
					"outputs": [
						{
							"internalType": "uint16",
							"name": "",
							"type": "uint16"
						}
					],
					"stateMutability": "view",
					"type": "function"
				},
				{
					"inputs": [
						{
							"internalType": "uint16",
							"name": "_newTweetLength",
							"type": "uint16"
						}
					],
					"name": "changeTweetLength",
					"outputs": [],
					"stateMutability": "nonpayable",
					"type": "function"
				},
				{
					"inputs": [
						{
							"internalType": "string",
							"name": "_tweet",
							"type": "string"
						}
					],
					"name": "createTweet",
					"outputs": [],
					"stateMutability": "nonpayable",
					"type": "function"
				},
				{
					"inputs": [
						{
							"internalType": "address",
							"name": "_user",
							"type": "address"
						}
					],
					"name": "followUser",
					"outputs": [],
					"stateMutability": "nonpayable",
					"type": "function"
				},
				{
					"inputs": [
						{
							"internalType": "address",
							"name": "",
							"type": "address"
						},
						{
							"internalType": "uint256",
							"name": "",
							"type": "uint256"
						}
					],
					"name": "followers",
					"outputs": [
						{
							"internalType": "address",
							"name": "",
							"type": "address"
						}
					],
					"stateMutability": "view",
					"type": "function"
				},
				{
					"inputs": [
						{
							"internalType": "address",
							"name": "",
							"type": "address"
						},
						{
							"internalType": "uint256",
							"name": "",
							"type": "uint256"
						}
					],
					"name": "following",
					"outputs": [
						{
							"internalType": "address",
							"name": "",
							"type": "address"
						}
					],
					"stateMutability": "view",
					"type": "function"
				},
				{
					"inputs": [
						{
							"internalType": "address",
							"name": "_owner",
							"type": "address"
						}
					],
					"name": "getAllTweets",
					"outputs": [
						{
							"components": [
								{
									"internalType": "uint256",
									"name": "id",
									"type": "uint256"
								},
								{
									"internalType": "address",
									"name": "author",
									"type": "address"
								},
								{
									"internalType": "string",
									"name": "content",
									"type": "string"
								},
								{
									"internalType": "uint256",
									"name": "timestamp",
									"type": "uint256"
								},
								{
									"internalType": "uint256",
									"name": "likes",
									"type": "uint256"
								}
							],
							"internalType": "struct Twitter.Tweet[]",
							"name": "",
							"type": "tuple[]"
						}
					],
					"stateMutability": "view",
					"type": "function"
				},
				{
					"inputs": [
						{
							"internalType": "address",
							"name": "_user",
							"type": "address"
						}
					],
					"name": "getFollowers",
					"outputs": [
						{
							"internalType": "address[]",
							"name": "",
							"type": "address[]"
						}
					],
					"stateMutability": "view",
					"type": "function"
				},
				{
					"inputs": [
						{
							"internalType": "address",
							"name": "_user",
							"type": "address"
						}
					],
					"name": "getFollowing",
					"outputs": [
						{
							"internalType": "address[]",
							"name": "",
							"type": "address[]"
						}
					],
					"stateMutability": "view",
					"type": "function"
				},
				{
					"inputs": [
						{
							"internalType": "address",
							"name": "",
							"type": "address"
						},
						{
							"internalType": "address",
							"name": "",
							"type": "address"
						}
					],
					"name": "isFollowing",
					"outputs": [
						{
							"internalType": "bool",
							"name": "",
							"type": "bool"
						}
					],
					"stateMutability": "view",
					"type": "function"
				},
				{
					"inputs": [
						{
							"internalType": "address",
							"name": "author",
							"type": "address"
						},
						{
							"internalType": "uint256",
							"name": "id",
							"type": "uint256"
						}
					],
					"name": "likeTweet",
					"outputs": [],
					"stateMutability": "nonpayable",
					"type": "function"
				},
				{
					"inputs": [],
					"name": "numberOfTweets",
					"outputs": [
						{
							"internalType": "uint256",
							"name": "",
							"type": "uint256"
						}
					],
					"stateMutability": "view",
					"type": "function"
				},
				{
					"inputs": [],
					"name": "owner",
					"outputs": [
						{
							"internalType": "address",
							"name": "",
							"type": "address"
						}
					],
					"stateMutability": "view",
					"type": "function"
				},
				{
					"inputs": [
						{
							"internalType": "address",
							"name": "",
							"type": "address"
						},
						{
							"internalType": "uint256",
							"name": "",
							"type": "uint256"
						}
					],
					"name": "tweets",
					"outputs": [
						{
							"internalType": "uint256",
							"name": "id",
							"type": "uint256"
						},
						{
							"internalType": "address",
							"name": "author",
							"type": "address"
						},
						{
							"internalType": "string",
							"name": "content",
							"type": "string"
						},
						{
							"internalType": "uint256",
							"name": "timestamp",
							"type": "uint256"
						},
						{
							"internalType": "uint256",
							"name": "likes",
							"type": "uint256"
						}
					],
					"stateMutability": "view",
					"type": "function"
				},
				{
					"inputs": [
						{
							"internalType": "address",
							"name": "author",
							"type": "address"
						},
						{
							"internalType": "uint256",
							"name": "id",
							"type": "uint256"
						}
					],
					"name": "unLlikeTweet",
					"outputs": [],
					"stateMutability": "nonpayable",
					"type": "function"
				},
				{
					"inputs": [
						{
							"internalType": "address",
							"name": "_user",
							"type": "address"
						}
					],
					"name": "unfollowUser",
					"outputs": [],
					"stateMutability": "nonpayable",
					"type": "function"
				},
				{
					"inputs": [
						{
							"internalType": "address",
							"name": "_owner",
							"type": "address"
						},
						{
							"internalType": "uint256",
							"name": "_i",
							"type": "uint256"
						}
					],
					"name": "viewTweet",
					"outputs": [
						{
							"components": [
								{
									"internalType": "uint256",
									"name": "id",
									"type": "uint256"
								},
								{
									"internalType": "address",
									"name": "author",
									"type": "address"
								},
								{
									"internalType": "string",
									"name": "content",
									"type": "string"
								},
								{
									"internalType": "uint256",
									"name": "timestamp",
									"type": "uint256"
								},
								{
									"internalType": "uint256",
									"name": "likes",
									"type": "uint256"
								}
							],
							"internalType": "struct Twitter.Tweet",
							"name": "",
							"type": "tuple"
						}
					],
					"stateMutability": "view",
					"type": "function"
				}
			],
			"devdoc": {
				"kind": "dev",
				"methods": {},
				"version": 1
			},
			"evm": {
				"assembly": "    /* \"contracts/Twitter.sol\":60:4664  contract Twitter {... */\n  mstore(0x40, 0x80)\n    /* \"contracts/Twitter.sol\":290:293  200 */\n  0xc8\n    /* \"contracts/Twitter.sol\":258:293  uint16 public MAX_TWEET_LIMIT = 200 */\n  0x00\n  dup1\n  0x0100\n  exp\n  dup2\n  sload\n  dup2\n  0xffff\n  mul\n  not\n  and\n  swap1\n  dup4\n  0xffff\n  and\n  mul\n  or\n  swap1\n  sstore\n  pop\n    /* \"contracts/Twitter.sol\":651:701  constructor(){... */\n  callvalue\n  dup1\n  iszero\n  tag_1\n  jumpi\n  0x00\n  dup1\n  revert\ntag_1:\n  pop\n    /* \"contracts/Twitter.sol\":683:693  msg.sender */\n  caller\n    /* \"contracts/Twitter.sol\":675:680  owner */\n  0x00\n  0x02\n    /* \"contracts/Twitter.sol\":675:693  owner = msg.sender */\n  0x0100\n  exp\n  dup2\n  sload\n  dup2\n  0xffffffffffffffffffffffffffffffffffffffff\n  mul\n  not\n  and\n  swap1\n  dup4\n  0xffffffffffffffffffffffffffffffffffffffff\n  and\n  mul\n  or\n  swap1\n  sstore\n  pop\n    /* \"contracts/Twitter.sol\":60:4664  contract Twitter {... */\n  dataSize(sub_0)\n  dup1\n  dataOffset(sub_0)\n  0x00\n  codecopy\n  0x00\n  return\nstop\n\nsub_0: assembly {\n        /* \"contracts/Twitter.sol\":60:4664  contract Twitter {... */\n      mstore(0x40, 0x80)\n      callvalue\n      dup1\n      iszero\n      tag_1\n      jumpi\n      0x00\n      dup1\n      revert\n    tag_1:\n      pop\n      jumpi(tag_2, lt(calldatasize, 0x04))\n      shr(0xe0, calldataload(0x00))\n      dup1\n      0x7c9cd2bc\n      gt\n      tag_20\n      jumpi\n      dup1\n      0xa70806f7\n      gt\n      tag_21\n      jumpi\n      dup1\n      0xa70806f7\n      eq\n      tag_15\n      jumpi\n      dup1\n      0xc2fe2022\n      eq\n      tag_16\n      jumpi\n      dup1\n      0xd8236dff\n      eq\n      tag_17\n      jumpi\n      dup1\n      0xebd009d3\n      eq\n      tag_18\n      jumpi\n      dup1\n      0xf107cfcb\n      eq\n      tag_19\n      jumpi\n      jump(tag_2)\n    tag_21:\n      dup1\n      0x7c9cd2bc\n      eq\n      tag_11\n      jumpi\n      dup1\n      0x8da5cb5b\n      eq\n      tag_12\n      jumpi\n      dup1\n      0x9139cda5\n      eq\n      tag_13\n      jumpi\n      dup1\n      0x99ec3a42\n      eq\n      tag_14\n      jumpi\n      jump(tag_2)\n    tag_20:\n      dup1\n      0x5a34bd5e\n      gt\n      tag_22\n      jumpi\n      dup1\n      0x5a34bd5e\n      eq\n      tag_7\n      jumpi\n      dup1\n      0x62a9edca\n      eq\n      tag_8\n      jumpi\n      dup1\n      0x63378216\n      eq\n      tag_9\n      jumpi\n      dup1\n      0x728540c0\n      eq\n      tag_10\n      jumpi\n      jump(tag_2)\n    tag_22:\n      dup1\n      0x05a1b4a9\n      eq\n      tag_3\n      jumpi\n      dup1\n      0x12e7ee1c\n      eq\n      tag_4\n      jumpi\n      dup1\n      0x32b0aa6a\n      eq\n      tag_5\n      jumpi\n      dup1\n      0x58bfa4ab\n      eq\n      tag_6\n      jumpi\n    tag_2:\n      0x00\n      dup1\n      revert\n        /* \"contracts/Twitter.sol\":344:385  mapping(address => Tweet[]) public tweets */\n    tag_3:\n      tag_23\n      0x04\n      dup1\n      calldatasize\n      sub\n      dup2\n      add\n      swap1\n      tag_24\n      swap2\n      swap1\n      tag_25\n      jump\t// in\n    tag_24:\n      tag_26\n      jump\t// in\n    tag_23:\n      mload(0x40)\n      tag_27\n      swap6\n      swap5\n      swap4\n      swap3\n      swap2\n      swap1\n      tag_28\n      jump\t// in\n    tag_27:\n      mload(0x40)\n      dup1\n      swap2\n      sub\n      swap1\n      return\n        /* \"contracts/Twitter.sol\":2193:2307  function getAllTweets(address _owner) public view returns(Tweet [] memory){... */\n    tag_4:\n      tag_29\n      0x04\n      dup1\n      calldatasize\n      sub\n      dup2\n      add\n      swap1\n      tag_30\n      swap2\n      swap1\n      tag_31\n      jump\t// in\n    tag_30:\n      tag_32\n      jump\t// in\n    tag_29:\n      mload(0x40)\n      tag_33\n      swap2\n      swap1\n      tag_34\n      jump\t// in\n    tag_33:\n      mload(0x40)\n      dup1\n      swap2\n      sub\n      swap1\n      return\n        /* \"contracts/Twitter.sol\":2744:3050  function unLlikeTweet(address author, uint id) public{... */\n    tag_5:\n      tag_35\n      0x04\n      dup1\n      calldatasize\n      sub\n      dup2\n      add\n      swap1\n      tag_36\n      swap2\n      swap1\n      tag_25\n      jump\t// in\n    tag_36:\n      tag_37\n      jump\t// in\n    tag_35:\n      stop\n        /* \"contracts/Twitter.sol\":2315:2497  function changeTweetLength(uint16 _newTweetLength) public onlyOwner {... */\n    tag_6:\n      tag_38\n      0x04\n      dup1\n      calldatasize\n      sub\n      dup2\n      add\n      swap1\n      tag_39\n      swap2\n      swap1\n      tag_40\n      jump\t// in\n    tag_39:\n      tag_41\n      jump\t// in\n    tag_38:\n      stop\n        /* \"contracts/Twitter.sol\":1951:2054  function numberOfTweets() public view returns(uint) {... */\n    tag_7:\n      tag_42\n      tag_43\n      jump\t// in\n    tag_42:\n      mload(0x40)\n      tag_44\n      swap2\n      swap1\n      tag_45\n      jump\t// in\n    tag_44:\n      mload(0x40)\n      dup1\n      swap2\n      sub\n      swap1\n      return\n        /* \"contracts/Twitter.sol\":258:293  uint16 public MAX_TWEET_LIMIT = 200 */\n    tag_8:\n      tag_46\n      tag_47\n      jump\t// in\n    tag_46:\n      mload(0x40)\n      tag_48\n      swap2\n      swap1\n      tag_49\n      jump\t// in\n    tag_48:\n      mload(0x40)\n      dup1\n      swap2\n      sub\n      swap1\n      return\n        /* \"contracts/Twitter.sol\":2505:2736  function likeTweet(address author, uint id) public{... */\n    tag_9:\n      tag_50\n      0x04\n      dup1\n      calldatasize\n      sub\n      dup2\n      add\n      swap1\n      tag_51\n      swap2\n      swap1\n      tag_25\n      jump\t// in\n    tag_51:\n      tag_52\n      jump\t// in\n    tag_50:\n      stop\n        /* \"contracts/Twitter.sol\":2062:2183  function viewTweet(address _owner, uint _i) public view returns(Tweet memory){... */\n    tag_10:\n      tag_53\n      0x04\n      dup1\n      calldatasize\n      sub\n      dup2\n      add\n      swap1\n      tag_54\n      swap2\n      swap1\n      tag_25\n      jump\t// in\n    tag_54:\n      tag_55\n      jump\t// in\n    tag_53:\n      mload(0x40)\n      tag_56\n      swap2\n      swap1\n      tag_57\n      jump\t// in\n    tag_56:\n      mload(0x40)\n      dup1\n      swap2\n      sub\n      swap1\n      return\n        /* \"contracts/Twitter.sol\":1328:1943  function createTweet(string memory _tweet) public {... */\n    tag_11:\n      tag_58\n      0x04\n      dup1\n      calldatasize\n      sub\n      dup2\n      add\n      swap1\n      tag_59\n      swap2\n      swap1\n      tag_60\n      jump\t// in\n    tag_59:\n      tag_61\n      jump\t// in\n    tag_58:\n      stop\n        /* \"contracts/Twitter.sol\":300:320  address public owner */\n    tag_12:\n      tag_62\n      tag_63\n      jump\t// in\n    tag_62:\n      mload(0x40)\n      tag_64\n      swap2\n      swap1\n      tag_65\n      jump\t// in\n    tag_64:\n      mload(0x40)\n      dup1\n      swap2\n      sub\n      swap1\n      return\n        /* \"contracts/Twitter.sol\":554:600  mapping(address => address[]) public following */\n    tag_13:\n      tag_66\n      0x04\n      dup1\n      calldatasize\n      sub\n      dup2\n      add\n      swap1\n      tag_67\n      swap2\n      swap1\n      tag_25\n      jump\t// in\n    tag_67:\n      tag_68\n      jump\t// in\n    tag_66:\n      mload(0x40)\n      tag_69\n      swap2\n      swap1\n      tag_65\n      jump\t// in\n    tag_69:\n      mload(0x40)\n      dup1\n      swap2\n      sub\n      swap1\n      return\n        /* \"contracts/Twitter.sol\":393:456  mapping(address => mapping(address => bool)) public isFollowing */\n    tag_14:\n      tag_70\n      0x04\n      dup1\n      calldatasize\n      sub\n      dup2\n      add\n      swap1\n      tag_71\n      swap2\n      swap1\n      tag_72\n      jump\t// in\n    tag_71:\n      tag_73\n      jump\t// in\n    tag_70:\n      mload(0x40)\n      tag_74\n      swap2\n      swap1\n      tag_75\n      jump\t// in\n    tag_74:\n      mload(0x40)\n      dup1\n      swap2\n      sub\n      swap1\n      return\n        /* \"contracts/Twitter.sol\":3083:3471  function followUser(address _user) public {... */\n    tag_15:\n      tag_76\n      0x04\n      dup1\n      calldatasize\n      sub\n      dup2\n      add\n      swap1\n      tag_77\n      swap2\n      swap1\n      tag_31\n      jump\t// in\n    tag_77:\n      tag_78\n      jump\t// in\n    tag_76:\n      stop\n        /* \"contracts/Twitter.sol\":4417:4535  function getFollowers(address _user) public view returns (address[] memory) {... */\n    tag_16:\n      tag_79\n      0x04\n      dup1\n      calldatasize\n      sub\n      dup2\n      add\n      swap1\n      tag_80\n      swap2\n      swap1\n      tag_31\n      jump\t// in\n    tag_80:\n      tag_81\n      jump\t// in\n    tag_79:\n      mload(0x40)\n      tag_82\n      swap2\n      swap1\n      tag_83\n      jump\t// in\n    tag_82:\n      mload(0x40)\n      dup1\n      swap2\n      sub\n      swap1\n      return\n        /* \"contracts/Twitter.sol\":4543:4661  function getFollowing(address _user) public view returns (address[] memory) {... */\n    tag_17:\n      tag_84\n      0x04\n      dup1\n      calldatasize\n      sub\n      dup2\n      add\n      swap1\n      tag_85\n      swap2\n      swap1\n      tag_31\n      jump\t// in\n    tag_85:\n      tag_86\n      jump\t// in\n    tag_84:\n      mload(0x40)\n      tag_87\n      swap2\n      swap1\n      tag_83\n      jump\t// in\n    tag_87:\n      mload(0x40)\n      dup1\n      swap2\n      sub\n      swap1\n      return\n        /* \"contracts/Twitter.sol\":480:526  mapping(address => address[]) public followers */\n    tag_18:\n      tag_88\n      0x04\n      dup1\n      calldatasize\n      sub\n      dup2\n      add\n      swap1\n      tag_89\n      swap2\n      swap1\n      tag_25\n      jump\t// in\n    tag_89:\n      tag_90\n      jump\t// in\n    tag_88:\n      mload(0x40)\n      tag_91\n      swap2\n      swap1\n      tag_65\n      jump\t// in\n    tag_91:\n      mload(0x40)\n      dup1\n      swap2\n      sub\n      swap1\n      return\n        /* \"contracts/Twitter.sol\":3479:4409  function unfollowUser(address _user) public {... */\n    tag_19:\n      tag_92\n      0x04\n      dup1\n      calldatasize\n      sub\n      dup2\n      add\n      swap1\n      tag_93\n      swap2\n      swap1\n      tag_31\n      jump\t// in\n    tag_93:\n      tag_94\n      jump\t// in\n    tag_92:\n      stop\n        /* \"contracts/Twitter.sol\":344:385  mapping(address => Tweet[]) public tweets */\n    tag_26:\n      mstore(0x20, 0x01)\n      dup2\n      0x00\n      mstore\n      keccak256(0x00, 0x40)\n      dup2\n      dup2\n      sload\n      dup2\n      lt\n      tag_95\n      jumpi\n      0x00\n      dup1\n      revert\n    tag_95:\n      swap1\n      0x00\n      mstore\n      keccak256(0x00, 0x20)\n      swap1\n      0x05\n      mul\n      add\n      0x00\n      swap2\n      pop\n      swap2\n      pop\n      pop\n      dup1\n      0x00\n      add\n      sload\n      swap1\n      dup1\n      0x01\n      add\n      0x00\n      swap1\n      sload\n      swap1\n      0x0100\n      exp\n      swap1\n      div\n      0xffffffffffffffffffffffffffffffffffffffff\n      and\n      swap1\n      dup1\n      0x02\n      add\n      dup1\n      sload\n      tag_97\n      swap1\n      tag_98\n      jump\t// in\n    tag_97:\n      dup1\n      0x1f\n      add\n      0x20\n      dup1\n      swap2\n      div\n      mul\n      0x20\n      add\n      mload(0x40)\n      swap1\n      dup2\n      add\n      0x40\n      mstore\n      dup1\n      swap3\n      swap2\n      swap1\n      dup2\n      dup2\n      mstore\n      0x20\n      add\n      dup3\n      dup1\n      sload\n      tag_99\n      swap1\n      tag_98\n      jump\t// in\n    tag_99:\n      dup1\n      iszero\n      tag_100\n      jumpi\n      dup1\n      0x1f\n      lt\n      tag_101\n      jumpi\n      0x0100\n      dup1\n      dup4\n      sload\n      div\n      mul\n      dup4\n      mstore\n      swap2\n      0x20\n      add\n      swap2\n      jump(tag_100)\n    tag_101:\n      dup3\n      add\n      swap2\n      swap1\n      0x00\n      mstore\n      keccak256(0x00, 0x20)\n      swap1\n    tag_102:\n      dup2\n      sload\n      dup2\n      mstore\n      swap1\n      0x01\n      add\n      swap1\n      0x20\n      add\n      dup1\n      dup4\n      gt\n      tag_102\n      jumpi\n      dup3\n      swap1\n      sub\n      0x1f\n      and\n      dup3\n      add\n      swap2\n    tag_100:\n      pop\n      pop\n      pop\n      pop\n      pop\n      swap1\n      dup1\n      0x03\n      add\n      sload\n      swap1\n      dup1\n      0x04\n      add\n      sload\n      swap1\n      pop\n      dup6\n      jump\t// out\n        /* \"contracts/Twitter.sol\":2193:2307  function getAllTweets(address _owner) public view returns(Tweet [] memory){... */\n    tag_32:\n        /* \"contracts/Twitter.sol\":2251:2266  Tweet [] memory */\n      0x60\n        /* \"contracts/Twitter.sol\":2285:2291  tweets */\n      0x01\n        /* \"contracts/Twitter.sol\":2285:2299  tweets[_owner] */\n      0x00\n        /* \"contracts/Twitter.sol\":2292:2298  _owner */\n      dup4\n        /* \"contracts/Twitter.sol\":2285:2299  tweets[_owner] */\n      0xffffffffffffffffffffffffffffffffffffffff\n      and\n      0xffffffffffffffffffffffffffffffffffffffff\n      and\n      dup2\n      mstore\n      0x20\n      add\n      swap1\n      dup2\n      mstore\n      0x20\n      add\n      0x00\n      keccak256\n        /* \"contracts/Twitter.sol\":2278:2299  return tweets[_owner] */\n      dup1\n      sload\n      dup1\n      0x20\n      mul\n      0x20\n      add\n      mload(0x40)\n      swap1\n      dup2\n      add\n      0x40\n      mstore\n      dup1\n      swap3\n      swap2\n      swap1\n      dup2\n      dup2\n      mstore\n      0x20\n      add\n      0x00\n      swap1\n    tag_104:\n      dup3\n      dup3\n      lt\n      iszero\n      tag_105\n      jumpi\n      dup4\n      dup3\n      swap1\n      0x00\n      mstore\n      keccak256(0x00, 0x20)\n      swap1\n      0x05\n      mul\n      add\n      mload(0x40)\n      dup1\n      0xa0\n      add\n      0x40\n      mstore\n      swap1\n      dup2\n      0x00\n      dup3\n      add\n      sload\n      dup2\n      mstore\n      0x20\n      add\n      0x01\n      dup3\n      add\n      0x00\n      swap1\n      sload\n      swap1\n      0x0100\n      exp\n      swap1\n      div\n      0xffffffffffffffffffffffffffffffffffffffff\n      and\n      0xffffffffffffffffffffffffffffffffffffffff\n      and\n      0xffffffffffffffffffffffffffffffffffffffff\n      and\n      dup2\n      mstore\n      0x20\n      add\n      0x02\n      dup3\n      add\n      dup1\n      sload\n      tag_107\n      swap1\n      tag_98\n      jump\t// in\n    tag_107:\n      dup1\n      0x1f\n      add\n      0x20\n      dup1\n      swap2\n      div\n      mul\n      0x20\n      add\n      mload(0x40)\n      swap1\n      dup2\n      add\n      0x40\n      mstore\n      dup1\n      swap3\n      swap2\n      swap1\n      dup2\n      dup2\n      mstore\n      0x20\n      add\n      dup3\n      dup1\n      sload\n      tag_108\n      swap1\n      tag_98\n      jump\t// in\n    tag_108:\n      dup1\n      iszero\n      tag_109\n      jumpi\n      dup1\n      0x1f\n      lt\n      tag_110\n      jumpi\n      0x0100\n      dup1\n      dup4\n      sload\n      div\n      mul\n      dup4\n      mstore\n      swap2\n      0x20\n      add\n      swap2\n      jump(tag_109)\n    tag_110:\n      dup3\n      add\n      swap2\n      swap1\n      0x00\n      mstore\n      keccak256(0x00, 0x20)\n      swap1\n    tag_111:\n      dup2\n      sload\n      dup2\n      mstore\n      swap1\n      0x01\n      add\n      swap1\n      0x20\n      add\n      dup1\n      dup4\n      gt\n      tag_111\n      jumpi\n      dup3\n      swap1\n      sub\n      0x1f\n      and\n      dup3\n      add\n      swap2\n    tag_109:\n      pop\n      pop\n      pop\n      pop\n      pop\n      dup2\n      mstore\n      0x20\n      add\n      0x03\n      dup3\n      add\n      sload\n      dup2\n      mstore\n      0x20\n      add\n      0x04\n      dup3\n      add\n      sload\n      dup2\n      mstore\n      pop\n      pop\n      dup2\n      mstore\n      0x20\n      add\n      swap1\n      0x01\n      add\n      swap1\n      jump(tag_104)\n    tag_105:\n      pop\n      pop\n      pop\n      pop\n      swap1\n      pop\n        /* \"contracts/Twitter.sol\":2193:2307  function getAllTweets(address _owner) public view returns(Tweet [] memory){... */\n      swap2\n      swap1\n      pop\n      jump\t// out\n        /* \"contracts/Twitter.sol\":2744:3050  function unLlikeTweet(address author, uint id) public{... */\n    tag_37:\n        /* \"contracts/Twitter.sol\":2841:2843  id */\n      dup1\n        /* \"contracts/Twitter.sol\":2816:2822  tweets */\n      0x01\n        /* \"contracts/Twitter.sol\":2816:2830  tweets[author] */\n      0x00\n        /* \"contracts/Twitter.sol\":2823:2829  author */\n      dup5\n        /* \"contracts/Twitter.sol\":2816:2830  tweets[author] */\n      0xffffffffffffffffffffffffffffffffffffffff\n      and\n      0xffffffffffffffffffffffffffffffffffffffff\n      and\n      dup2\n      mstore\n      0x20\n      add\n      swap1\n      dup2\n      mstore\n      0x20\n      add\n      0x00\n      keccak256\n        /* \"contracts/Twitter.sol\":2831:2833  id */\n      dup3\n        /* \"contracts/Twitter.sol\":2816:2834  tweets[author][id] */\n      dup2\n      sload\n      dup2\n      lt\n      tag_113\n      jumpi\n      tag_114\n      tag_115\n      jump\t// in\n    tag_114:\n    tag_113:\n      swap1\n      0x00\n      mstore\n      keccak256(0x00, 0x20)\n      swap1\n      0x05\n      mul\n      add\n        /* \"contracts/Twitter.sol\":2816:2837  tweets[author][id].id */\n      0x00\n      add\n      sload\n        /* \"contracts/Twitter.sol\":2816:2843  tweets[author][id].id == id */\n      eq\n        /* \"contracts/Twitter.sol\":2808:2867  require(tweets[author][id].id == id, \"TWEET DOESN'T EXIST\") */\n      tag_117\n      jumpi\n      mload(0x40)\n      0x08c379a000000000000000000000000000000000000000000000000000000000\n      dup2\n      mstore\n      0x04\n      add\n      tag_118\n      swap1\n      tag_119\n      jump\t// in\n    tag_118:\n      mload(0x40)\n      dup1\n      swap2\n      sub\n      swap1\n      revert\n    tag_117:\n        /* \"contracts/Twitter.sol\":2913:2914  0 */\n      0x00\n        /* \"contracts/Twitter.sol\":2886:2892  tweets */\n      0x01\n        /* \"contracts/Twitter.sol\":2886:2900  tweets[author] */\n      0x00\n        /* \"contracts/Twitter.sol\":2893:2899  author */\n      dup5\n        /* \"contracts/Twitter.sol\":2886:2900  tweets[author] */\n      0xffffffffffffffffffffffffffffffffffffffff\n      and\n      0xffffffffffffffffffffffffffffffffffffffff\n      and\n      dup2\n      mstore\n      0x20\n      add\n      swap1\n      dup2\n      mstore\n      0x20\n      add\n      0x00\n      keccak256\n        /* \"contracts/Twitter.sol\":2901:2903  id */\n      dup3\n        /* \"contracts/Twitter.sol\":2886:2904  tweets[author][id] */\n      dup2\n      sload\n      dup2\n      lt\n      tag_120\n      jumpi\n      tag_121\n      tag_115\n      jump\t// in\n    tag_121:\n    tag_120:\n      swap1\n      0x00\n      mstore\n      keccak256(0x00, 0x20)\n      swap1\n      0x05\n      mul\n      add\n        /* \"contracts/Twitter.sol\":2886:2910  tweets[author][id].likes */\n      0x04\n      add\n      sload\n        /* \"contracts/Twitter.sol\":2886:2914  tweets[author][id].likes > 0 */\n      gt\n        /* \"contracts/Twitter.sol\":2878:2937  require(tweets[author][id].likes > 0, \"THERE ARE NO LIKES\") */\n      tag_123\n      jumpi\n      mload(0x40)\n      0x08c379a000000000000000000000000000000000000000000000000000000000\n      dup2\n      mstore\n      0x04\n      add\n      tag_124\n      swap1\n      tag_125\n      jump\t// in\n    tag_124:\n      mload(0x40)\n      dup1\n      swap2\n      sub\n      swap1\n      revert\n    tag_123:\n        /* \"contracts/Twitter.sol\":2948:2954  tweets */\n      0x01\n        /* \"contracts/Twitter.sol\":2948:2962  tweets[author] */\n      0x00\n        /* \"contracts/Twitter.sol\":2955:2961  author */\n      dup4\n        /* \"contracts/Twitter.sol\":2948:2962  tweets[author] */\n      0xffffffffffffffffffffffffffffffffffffffff\n      and\n      0xffffffffffffffffffffffffffffffffffffffff\n      and\n      dup2\n      mstore\n      0x20\n      add\n      swap1\n      dup2\n      mstore\n      0x20\n      add\n      0x00\n      keccak256\n        /* \"contracts/Twitter.sol\":2963:2965  id */\n      dup2\n        /* \"contracts/Twitter.sol\":2948:2966  tweets[author][id] */\n      dup2\n      sload\n      dup2\n      lt\n      tag_126\n      jumpi\n      tag_127\n      tag_115\n      jump\t// in\n    tag_127:\n    tag_126:\n      swap1\n      0x00\n      mstore\n      keccak256(0x00, 0x20)\n      swap1\n      0x05\n      mul\n      add\n        /* \"contracts/Twitter.sol\":2948:2972  tweets[author][id].likes */\n      0x04\n      add\n      0x00\n        /* \"contracts/Twitter.sol\":2948:2974  tweets[author][id].likes-- */\n      dup2\n      sload\n      dup1\n      swap3\n      swap2\n      swap1\n      tag_129\n      swap1\n      tag_130\n      jump\t// in\n    tag_129:\n      swap2\n      swap1\n      pop\n      sstore\n      pop\n        /* \"contracts/Twitter.sol\":3005:3011  author */\n      dup2\n        /* \"contracts/Twitter.sol\":2992:3042  TweetUnLiked(author, tweets[msg.sender][id].likes) */\n      0xffffffffffffffffffffffffffffffffffffffff\n      and\n      0xc06fdb2b696e45a97339c90f1d695147e89ad3202c3ff65f8b27d76937e7b515\n        /* \"contracts/Twitter.sol\":3013:3019  tweets */\n      0x01\n        /* \"contracts/Twitter.sol\":3013:3031  tweets[msg.sender] */\n      0x00\n        /* \"contracts/Twitter.sol\":3020:3030  msg.sender */\n      caller\n        /* \"contracts/Twitter.sol\":3013:3031  tweets[msg.sender] */\n      0xffffffffffffffffffffffffffffffffffffffff\n      and\n      0xffffffffffffffffffffffffffffffffffffffff\n      and\n      dup2\n      mstore\n      0x20\n      add\n      swap1\n      dup2\n      mstore\n      0x20\n      add\n      0x00\n      keccak256\n        /* \"contracts/Twitter.sol\":3032:3034  id */\n      dup4\n        /* \"contracts/Twitter.sol\":3013:3035  tweets[msg.sender][id] */\n      dup2\n      sload\n      dup2\n      lt\n      tag_131\n      jumpi\n      tag_132\n      tag_115\n      jump\t// in\n    tag_132:\n    tag_131:\n      swap1\n      0x00\n      mstore\n      keccak256(0x00, 0x20)\n      swap1\n      0x05\n      mul\n      add\n        /* \"contracts/Twitter.sol\":3013:3041  tweets[msg.sender][id].likes */\n      0x04\n      add\n      sload\n        /* \"contracts/Twitter.sol\":2992:3042  TweetUnLiked(author, tweets[msg.sender][id].likes) */\n      mload(0x40)\n      tag_134\n      swap2\n      swap1\n      tag_45\n      jump\t// in\n    tag_134:\n      mload(0x40)\n      dup1\n      swap2\n      sub\n      swap1\n      log2\n        /* \"contracts/Twitter.sol\":2744:3050  function unLlikeTweet(address author, uint id) public{... */\n      pop\n      pop\n      jump\t// out\n        /* \"contracts/Twitter.sol\":2315:2497  function changeTweetLength(uint16 _newTweetLength) public onlyOwner {... */\n    tag_41:\n        /* \"contracts/Twitter.sol\":779:784  owner */\n      0x00\n      0x02\n      swap1\n      sload\n      swap1\n      0x0100\n      exp\n      swap1\n      div\n      0xffffffffffffffffffffffffffffffffffffffff\n      and\n        /* \"contracts/Twitter.sol\":765:784  msg.sender == owner */\n      0xffffffffffffffffffffffffffffffffffffffff\n      and\n        /* \"contracts/Twitter.sol\":765:775  msg.sender */\n      caller\n        /* \"contracts/Twitter.sol\":765:784  msg.sender == owner */\n      0xffffffffffffffffffffffffffffffffffffffff\n      and\n      eq\n        /* \"contracts/Twitter.sol\":757:809  require(msg.sender == owner, \"YOU'RE NOT THE OWNER\") */\n      tag_136\n      jumpi\n      mload(0x40)\n      0x08c379a000000000000000000000000000000000000000000000000000000000\n      dup2\n      mstore\n      0x04\n      add\n      tag_137\n      swap1\n      tag_138\n      jump\t// in\n    tag_137:\n      mload(0x40)\n      dup1\n      swap2\n      sub\n      swap1\n      revert\n    tag_136:\n        /* \"contracts/Twitter.sol\":2412:2427  _newTweetLength */\n      dup1\n        /* \"contracts/Twitter.sol\":2394:2409  MAX_TWEET_LIMIT */\n      0x00\n      dup1\n        /* \"contracts/Twitter.sol\":2394:2427  MAX_TWEET_LIMIT = _newTweetLength */\n      0x0100\n      exp\n      dup2\n      sload\n      dup2\n      0xffff\n      mul\n      not\n      and\n      swap1\n      dup4\n      0xffff\n      and\n      mul\n      or\n      swap1\n      sstore\n      pop\n        /* \"contracts/Twitter.sol\":2462:2472  msg.sender */\n      caller\n        /* \"contracts/Twitter.sol\":2443:2489  TweetLengthChanged(msg.sender,_newTweetLength) */\n      0xffffffffffffffffffffffffffffffffffffffff\n      and\n      0x8323d82658670a49edff6f681164658b57381017bf33c952fe8a116e1c6b1a67\n        /* \"contracts/Twitter.sol\":2473:2488  _newTweetLength */\n      dup3\n        /* \"contracts/Twitter.sol\":2443:2489  TweetLengthChanged(msg.sender,_newTweetLength) */\n      mload(0x40)\n      tag_140\n      swap2\n      swap1\n      tag_49\n      jump\t// in\n    tag_140:\n      mload(0x40)\n      dup1\n      swap2\n      sub\n      swap1\n      log2\n        /* \"contracts/Twitter.sol\":2315:2497  function changeTweetLength(uint16 _newTweetLength) public onlyOwner {... */\n      pop\n      jump\t// out\n        /* \"contracts/Twitter.sol\":1951:2054  function numberOfTweets() public view returns(uint) {... */\n    tag_43:\n        /* \"contracts/Twitter.sol\":1997:2001  uint */\n      0x00\n        /* \"contracts/Twitter.sol\":2021:2027  tweets */\n      0x01\n        /* \"contracts/Twitter.sol\":2021:2039  tweets[msg.sender] */\n      0x00\n        /* \"contracts/Twitter.sol\":2028:2038  msg.sender */\n      caller\n        /* \"contracts/Twitter.sol\":2021:2039  tweets[msg.sender] */\n      0xffffffffffffffffffffffffffffffffffffffff\n      and\n      0xffffffffffffffffffffffffffffffffffffffff\n      and\n      dup2\n      mstore\n      0x20\n      add\n      swap1\n      dup2\n      mstore\n      0x20\n      add\n      0x00\n      keccak256\n        /* \"contracts/Twitter.sol\":2021:2046  tweets[msg.sender].length */\n      dup1\n      sload\n      swap1\n      pop\n        /* \"contracts/Twitter.sol\":2014:2046  return tweets[msg.sender].length */\n      swap1\n      pop\n        /* \"contracts/Twitter.sol\":1951:2054  function numberOfTweets() public view returns(uint) {... */\n      swap1\n      jump\t// out\n        /* \"contracts/Twitter.sol\":258:293  uint16 public MAX_TWEET_LIMIT = 200 */\n    tag_47:\n      0x00\n      dup1\n      sload\n      swap1\n      0x0100\n      exp\n      swap1\n      div\n      0xffff\n      and\n      dup2\n      jump\t// out\n        /* \"contracts/Twitter.sol\":2505:2736  function likeTweet(address author, uint id) public{... */\n    tag_52:\n        /* \"contracts/Twitter.sol\":2599:2601  id */\n      dup1\n        /* \"contracts/Twitter.sol\":2574:2580  tweets */\n      0x01\n        /* \"contracts/Twitter.sol\":2574:2588  tweets[author] */\n      0x00\n        /* \"contracts/Twitter.sol\":2581:2587  author */\n      dup5\n        /* \"contracts/Twitter.sol\":2574:2588  tweets[author] */\n      0xffffffffffffffffffffffffffffffffffffffff\n      and\n      0xffffffffffffffffffffffffffffffffffffffff\n      and\n      dup2\n      mstore\n      0x20\n      add\n      swap1\n      dup2\n      mstore\n      0x20\n      add\n      0x00\n      keccak256\n        /* \"contracts/Twitter.sol\":2589:2591  id */\n      dup3\n        /* \"contracts/Twitter.sol\":2574:2592  tweets[author][id] */\n      dup2\n      sload\n      dup2\n      lt\n      tag_143\n      jumpi\n      tag_144\n      tag_115\n      jump\t// in\n    tag_144:\n    tag_143:\n      swap1\n      0x00\n      mstore\n      keccak256(0x00, 0x20)\n      swap1\n      0x05\n      mul\n      add\n        /* \"contracts/Twitter.sol\":2574:2595  tweets[author][id].id */\n      0x00\n      add\n      sload\n        /* \"contracts/Twitter.sol\":2574:2601  tweets[author][id].id == id */\n      eq\n        /* \"contracts/Twitter.sol\":2566:2625  require(tweets[author][id].id == id, \"TWEET DOESN'T EXIST\") */\n      tag_146\n      jumpi\n      mload(0x40)\n      0x08c379a000000000000000000000000000000000000000000000000000000000\n      dup2\n      mstore\n      0x04\n      add\n      tag_147\n      swap1\n      tag_119\n      jump\t// in\n    tag_147:\n      mload(0x40)\n      dup1\n      swap2\n      sub\n      swap1\n      revert\n    tag_146:\n        /* \"contracts/Twitter.sol\":2636:2642  tweets */\n      0x01\n        /* \"contracts/Twitter.sol\":2636:2650  tweets[author] */\n      0x00\n        /* \"contracts/Twitter.sol\":2643:2649  author */\n      dup4\n        /* \"contracts/Twitter.sol\":2636:2650  tweets[author] */\n      0xffffffffffffffffffffffffffffffffffffffff\n      and\n      0xffffffffffffffffffffffffffffffffffffffff\n      and\n      dup2\n      mstore\n      0x20\n      add\n      swap1\n      dup2\n      mstore\n      0x20\n      add\n      0x00\n      keccak256\n        /* \"contracts/Twitter.sol\":2651:2653  id */\n      dup2\n        /* \"contracts/Twitter.sol\":2636:2654  tweets[author][id] */\n      dup2\n      sload\n      dup2\n      lt\n      tag_148\n      jumpi\n      tag_149\n      tag_115\n      jump\t// in\n    tag_149:\n    tag_148:\n      swap1\n      0x00\n      mstore\n      keccak256(0x00, 0x20)\n      swap1\n      0x05\n      mul\n      add\n        /* \"contracts/Twitter.sol\":2636:2660  tweets[author][id].likes */\n      0x04\n      add\n      0x00\n        /* \"contracts/Twitter.sol\":2636:2662  tweets[author][id].likes++ */\n      dup2\n      sload\n      dup1\n      swap3\n      swap2\n      swap1\n      tag_151\n      swap1\n      tag_152\n      jump\t// in\n    tag_151:\n      swap2\n      swap1\n      pop\n      sstore\n      pop\n        /* \"contracts/Twitter.sol\":2691:2697  author */\n      dup2\n        /* \"contracts/Twitter.sol\":2680:2728  TweetLiked(author, tweets[msg.sender][id].likes) */\n      0xffffffffffffffffffffffffffffffffffffffff\n      and\n      0x8a386948f7e93ab4fcd287c576a77bebdc96097ff7ce25d207a8242bb1de398b\n        /* \"contracts/Twitter.sol\":2699:2705  tweets */\n      0x01\n        /* \"contracts/Twitter.sol\":2699:2717  tweets[msg.sender] */\n      0x00\n        /* \"contracts/Twitter.sol\":2706:2716  msg.sender */\n      caller\n        /* \"contracts/Twitter.sol\":2699:2717  tweets[msg.sender] */\n      0xffffffffffffffffffffffffffffffffffffffff\n      and\n      0xffffffffffffffffffffffffffffffffffffffff\n      and\n      dup2\n      mstore\n      0x20\n      add\n      swap1\n      dup2\n      mstore\n      0x20\n      add\n      0x00\n      keccak256\n        /* \"contracts/Twitter.sol\":2718:2720  id */\n      dup4\n        /* \"contracts/Twitter.sol\":2699:2721  tweets[msg.sender][id] */\n      dup2\n      sload\n      dup2\n      lt\n      tag_153\n      jumpi\n      tag_154\n      tag_115\n      jump\t// in\n    tag_154:\n    tag_153:\n      swap1\n      0x00\n      mstore\n      keccak256(0x00, 0x20)\n      swap1\n      0x05\n      mul\n      add\n        /* \"contracts/Twitter.sol\":2699:2727  tweets[msg.sender][id].likes */\n      0x04\n      add\n      sload\n        /* \"contracts/Twitter.sol\":2680:2728  TweetLiked(author, tweets[msg.sender][id].likes) */\n      mload(0x40)\n      tag_156\n      swap2\n      swap1\n      tag_45\n      jump\t// in\n    tag_156:\n      mload(0x40)\n      dup1\n      swap2\n      sub\n      swap1\n      log2\n        /* \"contracts/Twitter.sol\":2505:2736  function likeTweet(address author, uint id) public{... */\n      pop\n      pop\n      jump\t// out\n        /* \"contracts/Twitter.sol\":2062:2183  function viewTweet(address _owner, uint _i) public view returns(Tweet memory){... */\n    tag_55:\n        /* \"contracts/Twitter.sol\":2126:2138  Tweet memory */\n      tag_157\n      tag_158\n      jump\t// in\n    tag_157:\n        /* \"contracts/Twitter.sol\":2157:2163  tweets */\n      0x01\n        /* \"contracts/Twitter.sol\":2157:2171  tweets[_owner] */\n      0x00\n        /* \"contracts/Twitter.sol\":2164:2170  _owner */\n      dup5\n        /* \"contracts/Twitter.sol\":2157:2171  tweets[_owner] */\n      0xffffffffffffffffffffffffffffffffffffffff\n      and\n      0xffffffffffffffffffffffffffffffffffffffff\n      and\n      dup2\n      mstore\n      0x20\n      add\n      swap1\n      dup2\n      mstore\n      0x20\n      add\n      0x00\n      keccak256\n        /* \"contracts/Twitter.sol\":2172:2174  _i */\n      dup3\n        /* \"contracts/Twitter.sol\":2157:2175  tweets[_owner][_i] */\n      dup2\n      sload\n      dup2\n      lt\n      tag_160\n      jumpi\n      tag_161\n      tag_115\n      jump\t// in\n    tag_161:\n    tag_160:\n      swap1\n      0x00\n      mstore\n      keccak256(0x00, 0x20)\n      swap1\n      0x05\n      mul\n      add\n        /* \"contracts/Twitter.sol\":2150:2175  return tweets[_owner][_i] */\n      mload(0x40)\n      dup1\n      0xa0\n      add\n      0x40\n      mstore\n      swap1\n      dup2\n      0x00\n      dup3\n      add\n      sload\n      dup2\n      mstore\n      0x20\n      add\n      0x01\n      dup3\n      add\n      0x00\n      swap1\n      sload\n      swap1\n      0x0100\n      exp\n      swap1\n      div\n      0xffffffffffffffffffffffffffffffffffffffff\n      and\n      0xffffffffffffffffffffffffffffffffffffffff\n      and\n      0xffffffffffffffffffffffffffffffffffffffff\n      and\n      dup2\n      mstore\n      0x20\n      add\n      0x02\n      dup3\n      add\n      dup1\n      sload\n      tag_163\n      swap1\n      tag_98\n      jump\t// in\n    tag_163:\n      dup1\n      0x1f\n      add\n      0x20\n      dup1\n      swap2\n      div\n      mul\n      0x20\n      add\n      mload(0x40)\n      swap1\n      dup2\n      add\n      0x40\n      mstore\n      dup1\n      swap3\n      swap2\n      swap1\n      dup2\n      dup2\n      mstore\n      0x20\n      add\n      dup3\n      dup1\n      sload\n      tag_164\n      swap1\n      tag_98\n      jump\t// in\n    tag_164:\n      dup1\n      iszero\n      tag_165\n      jumpi\n      dup1\n      0x1f\n      lt\n      tag_166\n      jumpi\n      0x0100\n      dup1\n      dup4\n      sload\n      div\n      mul\n      dup4\n      mstore\n      swap2\n      0x20\n      add\n      swap2\n      jump(tag_165)\n    tag_166:\n      dup3\n      add\n      swap2\n      swap1\n      0x00\n      mstore\n      keccak256(0x00, 0x20)\n      swap1\n    tag_167:\n      dup2\n      sload\n      dup2\n      mstore\n      swap1\n      0x01\n      add\n      swap1\n      0x20\n      add\n      dup1\n      dup4\n      gt\n      tag_167\n      jumpi\n      dup3\n      swap1\n      sub\n      0x1f\n      and\n      dup3\n      add\n      swap2\n    tag_165:\n      pop\n      pop\n      pop\n      pop\n      pop\n      dup2\n      mstore\n      0x20\n      add\n      0x03\n      dup3\n      add\n      sload\n      dup2\n      mstore\n      0x20\n      add\n      0x04\n      dup3\n      add\n      sload\n      dup2\n      mstore\n      pop\n      pop\n      swap1\n      pop\n        /* \"contracts/Twitter.sol\":2062:2183  function viewTweet(address _owner, uint _i) public view returns(Tweet memory){... */\n      swap3\n      swap2\n      pop\n      pop\n      jump\t// out\n        /* \"contracts/Twitter.sol\":1328:1943  function createTweet(string memory _tweet) public {... */\n    tag_61:\n        /* \"contracts/Twitter.sol\":1420:1421  0 */\n      0x00\n        /* \"contracts/Twitter.sol\":1403:1409  _tweet */\n      dup2\n        /* \"contracts/Twitter.sol\":1397:1417  bytes(_tweet).length */\n      mload\n        /* \"contracts/Twitter.sol\":1397:1421  bytes(_tweet).length > 0 */\n      gt\n        /* \"contracts/Twitter.sol\":1389:1459  require(bytes(_tweet).length > 0,\"NO CONTENT, PLEASE WRITE SOMETHING\") */\n      tag_169\n      jumpi\n      mload(0x40)\n      0x08c379a000000000000000000000000000000000000000000000000000000000\n      dup2\n      mstore\n      0x04\n      add\n      tag_170\n      swap1\n      tag_171\n      jump\t// in\n    tag_170:\n      mload(0x40)\n      dup1\n      swap2\n      sub\n      swap1\n      revert\n    tag_169:\n        /* \"contracts/Twitter.sol\":1506:1521  MAX_TWEET_LIMIT */\n      0x00\n      dup1\n      sload\n      swap1\n      0x0100\n      exp\n      swap1\n      div\n      0xffff\n      and\n        /* \"contracts/Twitter.sol\":1478:1521  tweets[msg.sender].length < MAX_TWEET_LIMIT */\n      0xffff\n      and\n        /* \"contracts/Twitter.sol\":1478:1484  tweets */\n      0x01\n        /* \"contracts/Twitter.sol\":1478:1496  tweets[msg.sender] */\n      0x00\n        /* \"contracts/Twitter.sol\":1485:1495  msg.sender */\n      caller\n        /* \"contracts/Twitter.sol\":1478:1496  tweets[msg.sender] */\n      0xffffffffffffffffffffffffffffffffffffffff\n      and\n      0xffffffffffffffffffffffffffffffffffffffff\n      and\n      dup2\n      mstore\n      0x20\n      add\n      swap1\n      dup2\n      mstore\n      0x20\n      add\n      0x00\n      keccak256\n        /* \"contracts/Twitter.sol\":1478:1503  tweets[msg.sender].length */\n      dup1\n      sload\n      swap1\n      pop\n        /* \"contracts/Twitter.sol\":1478:1521  tweets[msg.sender].length < MAX_TWEET_LIMIT */\n      lt\n        /* \"contracts/Twitter.sol\":1470:1552  require(tweets[msg.sender].length < MAX_TWEET_LIMIT, \"THE MAXIMUM TWEETS REACHED\") */\n      tag_172\n      jumpi\n      mload(0x40)\n      0x08c379a000000000000000000000000000000000000000000000000000000000\n      dup2\n      mstore\n      0x04\n      add\n      tag_173\n      swap1\n      tag_174\n      jump\t// in\n    tag_173:\n      mload(0x40)\n      dup1\n      swap2\n      sub\n      swap1\n      revert\n    tag_172:\n        /* \"contracts/Twitter.sol\":1563:1584  Tweet memory newTweet */\n      0x00\n        /* \"contracts/Twitter.sol\":1587:1777  Tweet({... */\n      mload(0x40)\n      dup1\n      0xa0\n      add\n      0x40\n      mstore\n      dup1\n        /* \"contracts/Twitter.sol\":1612:1618  tweets */\n      0x01\n        /* \"contracts/Twitter.sol\":1612:1630  tweets[msg.sender] */\n      0x00\n        /* \"contracts/Twitter.sol\":1619:1629  msg.sender */\n      caller\n        /* \"contracts/Twitter.sol\":1612:1630  tweets[msg.sender] */\n      0xffffffffffffffffffffffffffffffffffffffff\n      and\n      0xffffffffffffffffffffffffffffffffffffffff\n      and\n      dup2\n      mstore\n      0x20\n      add\n      swap1\n      dup2\n      mstore\n      0x20\n      add\n      0x00\n      keccak256\n        /* \"contracts/Twitter.sol\":1612:1637  tweets[msg.sender].length */\n      dup1\n      sload\n      swap1\n      pop\n        /* \"contracts/Twitter.sol\":1587:1777  Tweet({... */\n      dup2\n      mstore\n      0x20\n      add\n        /* \"contracts/Twitter.sol\":1660:1670  msg.sender */\n      caller\n        /* \"contracts/Twitter.sol\":1587:1777  Tweet({... */\n      0xffffffffffffffffffffffffffffffffffffffff\n      and\n      dup2\n      mstore\n      0x20\n      add\n        /* \"contracts/Twitter.sol\":1694:1700  _tweet */\n      dup4\n        /* \"contracts/Twitter.sol\":1587:1777  Tweet({... */\n      dup2\n      mstore\n      0x20\n      add\n        /* \"contracts/Twitter.sol\":1726:1741  block.timestamp */\n      timestamp\n        /* \"contracts/Twitter.sol\":1587:1777  Tweet({... */\n      dup2\n      mstore\n      0x20\n      add\n        /* \"contracts/Twitter.sol\":1764:1765  0 */\n      0x00\n        /* \"contracts/Twitter.sol\":1587:1777  Tweet({... */\n      dup2\n      mstore\n      pop\n        /* \"contracts/Twitter.sol\":1563:1777  Tweet memory newTweet = Tweet({... */\n      swap1\n      pop\n        /* \"contracts/Twitter.sol\":1790:1796  tweets */\n      0x01\n        /* \"contracts/Twitter.sol\":1790:1808  tweets[msg.sender] */\n      0x00\n        /* \"contracts/Twitter.sol\":1797:1807  msg.sender */\n      caller\n        /* \"contracts/Twitter.sol\":1790:1808  tweets[msg.sender] */\n      0xffffffffffffffffffffffffffffffffffffffff\n      and\n      0xffffffffffffffffffffffffffffffffffffffff\n      and\n      dup2\n      mstore\n      0x20\n      add\n      swap1\n      dup2\n      mstore\n      0x20\n      add\n      0x00\n      keccak256\n        /* \"contracts/Twitter.sol\":1814:1822  newTweet */\n      dup2\n        /* \"contracts/Twitter.sol\":1790:1823  tweets[msg.sender].push(newTweet) */\n      swap1\n      dup1\n      0x01\n      dup2\n      sload\n      add\n      dup1\n      dup3\n      sstore\n      dup1\n      swap2\n      pop\n      pop\n      0x01\n      swap1\n      sub\n      swap1\n      0x00\n      mstore\n      keccak256(0x00, 0x20)\n      swap1\n      0x05\n      mul\n      add\n      0x00\n      swap1\n      swap2\n      swap1\n      swap2\n      swap1\n      swap2\n      pop\n      0x00\n      dup3\n      add\n      mload\n      dup2\n      0x00\n      add\n      sstore\n      0x20\n      dup3\n      add\n      mload\n      dup2\n      0x01\n      add\n      exp(0x0100, 0x00)\n      dup2\n      sload\n      dup2\n      0xffffffffffffffffffffffffffffffffffffffff\n      mul\n      not\n      and\n      swap1\n      dup4\n      0xffffffffffffffffffffffffffffffffffffffff\n      and\n      mul\n      or\n      swap1\n      sstore\n      pop\n      0x40\n      dup3\n      add\n      mload\n      dup2\n      0x02\n      add\n      swap1\n      dup2\n      tag_176\n      swap2\n      swap1\n      tag_177\n      jump\t// in\n    tag_176:\n      pop\n      0x60\n      dup3\n      add\n      mload\n      dup2\n      0x03\n      add\n      sstore\n      0x80\n      dup3\n      add\n      mload\n      dup2\n      0x04\n      add\n      sstore\n      pop\n      pop\n        /* \"contracts/Twitter.sol\":1865:1873  newTweet */\n      dup1\n        /* \"contracts/Twitter.sol\":1865:1880  newTweet.author */\n      0x20\n      add\n      mload\n        /* \"contracts/Twitter.sol\":1839:1935  TweetCreated(newTweet.id, newTweet.author, newTweet.content, newTweet.timestamp, newTweet.likes) */\n      0xffffffffffffffffffffffffffffffffffffffff\n      and\n      0x881ee5e736450a2211622934b24ae6488e14ca8444788d6e26fdbe582d098391\n        /* \"contracts/Twitter.sol\":1852:1860  newTweet */\n      dup3\n        /* \"contracts/Twitter.sol\":1852:1863  newTweet.id */\n      0x00\n      add\n      mload\n        /* \"contracts/Twitter.sol\":1882:1890  newTweet */\n      dup4\n        /* \"contracts/Twitter.sol\":1882:1898  newTweet.content */\n      0x40\n      add\n      mload\n        /* \"contracts/Twitter.sol\":1900:1908  newTweet */\n      dup5\n        /* \"contracts/Twitter.sol\":1900:1918  newTweet.timestamp */\n      0x60\n      add\n      mload\n        /* \"contracts/Twitter.sol\":1920:1928  newTweet */\n      dup6\n        /* \"contracts/Twitter.sol\":1920:1934  newTweet.likes */\n      0x80\n      add\n      mload\n        /* \"contracts/Twitter.sol\":1839:1935  TweetCreated(newTweet.id, newTweet.author, newTweet.content, newTweet.timestamp, newTweet.likes) */\n      mload(0x40)\n      tag_178\n      swap5\n      swap4\n      swap3\n      swap2\n      swap1\n      tag_179\n      jump\t// in\n    tag_178:\n      mload(0x40)\n      dup1\n      swap2\n      sub\n      swap1\n      log2\n        /* \"contracts/Twitter.sol\":1378:1943  {... */\n      pop\n        /* \"contracts/Twitter.sol\":1328:1943  function createTweet(string memory _tweet) public {... */\n      pop\n      jump\t// out\n        /* \"contracts/Twitter.sol\":300:320  address public owner */\n    tag_63:\n      0x00\n      0x02\n      swap1\n      sload\n      swap1\n      0x0100\n      exp\n      swap1\n      div\n      0xffffffffffffffffffffffffffffffffffffffff\n      and\n      dup2\n      jump\t// out\n        /* \"contracts/Twitter.sol\":554:600  mapping(address => address[]) public following */\n    tag_68:\n      mstore(0x20, 0x04)\n      dup2\n      0x00\n      mstore\n      keccak256(0x00, 0x40)\n      dup2\n      dup2\n      sload\n      dup2\n      lt\n      tag_180\n      jumpi\n      0x00\n      dup1\n      revert\n    tag_180:\n      swap1\n      0x00\n      mstore\n      keccak256(0x00, 0x20)\n      add\n      0x00\n      swap2\n      pop\n      swap2\n      pop\n      swap1\n      sload\n      swap1\n      0x0100\n      exp\n      swap1\n      div\n      0xffffffffffffffffffffffffffffffffffffffff\n      and\n      dup2\n      jump\t// out\n        /* \"contracts/Twitter.sol\":393:456  mapping(address => mapping(address => bool)) public isFollowing */\n    tag_73:\n      mstore(0x20, 0x02)\n      dup2\n      0x00\n      mstore\n      mstore(0x20, keccak256(0x00, 0x40))\n      dup1\n      0x00\n      mstore\n      keccak256(0x00, 0x40)\n      0x00\n      swap2\n      pop\n      swap2\n      pop\n      swap1\n      sload\n      swap1\n      0x0100\n      exp\n      swap1\n      div\n      0xff\n      and\n      dup2\n      jump\t// out\n        /* \"contracts/Twitter.sol\":3083:3471  function followUser(address _user) public {... */\n    tag_78:\n        /* \"contracts/Twitter.sol\":3153:3163  msg.sender */\n      caller\n        /* \"contracts/Twitter.sol\":3144:3163  _user != msg.sender */\n      0xffffffffffffffffffffffffffffffffffffffff\n      and\n        /* \"contracts/Twitter.sol\":3144:3149  _user */\n      dup2\n        /* \"contracts/Twitter.sol\":3144:3163  _user != msg.sender */\n      0xffffffffffffffffffffffffffffffffffffffff\n      and\n      sub\n        /* \"contracts/Twitter.sol\":3136:3194  require(_user != msg.sender, \"YOU CANNOT FOLLOW YOURSELF\") */\n      tag_183\n      jumpi\n      mload(0x40)\n      0x08c379a000000000000000000000000000000000000000000000000000000000\n      dup2\n      mstore\n      0x04\n      add\n      tag_184\n      swap1\n      tag_185\n      jump\t// in\n    tag_184:\n      mload(0x40)\n      dup1\n      swap2\n      sub\n      swap1\n      revert\n    tag_183:\n        /* \"contracts/Twitter.sol\":3214:3225  isFollowing */\n      0x02\n        /* \"contracts/Twitter.sol\":3214:3237  isFollowing[msg.sender] */\n      0x00\n        /* \"contracts/Twitter.sol\":3226:3236  msg.sender */\n      caller\n        /* \"contracts/Twitter.sol\":3214:3237  isFollowing[msg.sender] */\n      0xffffffffffffffffffffffffffffffffffffffff\n      and\n      0xffffffffffffffffffffffffffffffffffffffff\n      and\n      dup2\n      mstore\n      0x20\n      add\n      swap1\n      dup2\n      mstore\n      0x20\n      add\n      0x00\n      keccak256\n        /* \"contracts/Twitter.sol\":3214:3244  isFollowing[msg.sender][_user] */\n      0x00\n        /* \"contracts/Twitter.sol\":3238:3243  _user */\n      dup3\n        /* \"contracts/Twitter.sol\":3214:3244  isFollowing[msg.sender][_user] */\n      0xffffffffffffffffffffffffffffffffffffffff\n      and\n      0xffffffffffffffffffffffffffffffffffffffff\n      and\n      dup2\n      mstore\n      0x20\n      add\n      swap1\n      dup2\n      mstore\n      0x20\n      add\n      0x00\n      keccak256\n      0x00\n      swap1\n      sload\n      swap1\n      0x0100\n      exp\n      swap1\n      div\n      0xff\n      and\n        /* \"contracts/Twitter.sol\":3213:3244  !isFollowing[msg.sender][_user] */\n      iszero\n        /* \"contracts/Twitter.sol\":3205:3276  require(!isFollowing[msg.sender][_user], \"ALREADY FOLLOWING THIS USER\") */\n      tag_186\n      jumpi\n      mload(0x40)\n      0x08c379a000000000000000000000000000000000000000000000000000000000\n      dup2\n      mstore\n      0x04\n      add\n      tag_187\n      swap1\n      tag_188\n      jump\t// in\n    tag_187:\n      mload(0x40)\n      dup1\n      swap2\n      sub\n      swap1\n      revert\n    tag_186:\n        /* \"contracts/Twitter.sol\":3322:3326  true */\n      0x01\n        /* \"contracts/Twitter.sol\":3289:3300  isFollowing */\n      0x02\n        /* \"contracts/Twitter.sol\":3289:3312  isFollowing[msg.sender] */\n      0x00\n        /* \"contracts/Twitter.sol\":3301:3311  msg.sender */\n      caller\n        /* \"contracts/Twitter.sol\":3289:3312  isFollowing[msg.sender] */\n      0xffffffffffffffffffffffffffffffffffffffff\n      and\n      0xffffffffffffffffffffffffffffffffffffffff\n      and\n      dup2\n      mstore\n      0x20\n      add\n      swap1\n      dup2\n      mstore\n      0x20\n      add\n      0x00\n      keccak256\n        /* \"contracts/Twitter.sol\":3289:3319  isFollowing[msg.sender][_user] */\n      0x00\n        /* \"contracts/Twitter.sol\":3313:3318  _user */\n      dup4\n        /* \"contracts/Twitter.sol\":3289:3319  isFollowing[msg.sender][_user] */\n      0xffffffffffffffffffffffffffffffffffffffff\n      and\n      0xffffffffffffffffffffffffffffffffffffffff\n      and\n      dup2\n      mstore\n      0x20\n      add\n      swap1\n      dup2\n      mstore\n      0x20\n      add\n      0x00\n      keccak256\n      0x00\n        /* \"contracts/Twitter.sol\":3289:3326  isFollowing[msg.sender][_user] = true */\n      0x0100\n      exp\n      dup2\n      sload\n      dup2\n      0xff\n      mul\n      not\n      and\n      swap1\n      dup4\n      iszero\n      iszero\n      mul\n      or\n      swap1\n      sstore\n      pop\n        /* \"contracts/Twitter.sol\":3337:3346  followers */\n      0x03\n        /* \"contracts/Twitter.sol\":3337:3353  followers[_user] */\n      0x00\n        /* \"contracts/Twitter.sol\":3347:3352  _user */\n      dup3\n        /* \"contracts/Twitter.sol\":3337:3353  followers[_user] */\n      0xffffffffffffffffffffffffffffffffffffffff\n      and\n      0xffffffffffffffffffffffffffffffffffffffff\n      and\n      dup2\n      mstore\n      0x20\n      add\n      swap1\n      dup2\n      mstore\n      0x20\n      add\n      0x00\n      keccak256\n        /* \"contracts/Twitter.sol\":3359:3369  msg.sender */\n      caller\n        /* \"contracts/Twitter.sol\":3337:3370  followers[_user].push(msg.sender) */\n      swap1\n      dup1\n      0x01\n      dup2\n      sload\n      add\n      dup1\n      dup3\n      sstore\n      dup1\n      swap2\n      pop\n      pop\n      0x01\n      swap1\n      sub\n      swap1\n      0x00\n      mstore\n      keccak256(0x00, 0x20)\n      add\n      0x00\n      swap1\n      swap2\n      swap1\n      swap2\n      swap1\n      swap2\n      0x0100\n      exp\n      dup2\n      sload\n      dup2\n      0xffffffffffffffffffffffffffffffffffffffff\n      mul\n      not\n      and\n      swap1\n      dup4\n      0xffffffffffffffffffffffffffffffffffffffff\n      and\n      mul\n      or\n      swap1\n      sstore\n      pop\n        /* \"contracts/Twitter.sol\":3381:3390  following */\n      0x04\n        /* \"contracts/Twitter.sol\":3381:3402  following[msg.sender] */\n      0x00\n        /* \"contracts/Twitter.sol\":3391:3401  msg.sender */\n      caller\n        /* \"contracts/Twitter.sol\":3381:3402  following[msg.sender] */\n      0xffffffffffffffffffffffffffffffffffffffff\n      and\n      0xffffffffffffffffffffffffffffffffffffffff\n      and\n      dup2\n      mstore\n      0x20\n      add\n      swap1\n      dup2\n      mstore\n      0x20\n      add\n      0x00\n      keccak256\n        /* \"contracts/Twitter.sol\":3408:3413  _user */\n      dup2\n        /* \"contracts/Twitter.sol\":3381:3414  following[msg.sender].push(_user) */\n      swap1\n      dup1\n      0x01\n      dup2\n      sload\n      add\n      dup1\n      dup3\n      sstore\n      dup1\n      swap2\n      pop\n      pop\n      0x01\n      swap1\n      sub\n      swap1\n      0x00\n      mstore\n      keccak256(0x00, 0x20)\n      add\n      0x00\n      swap1\n      swap2\n      swap1\n      swap2\n      swap1\n      swap2\n      0x0100\n      exp\n      dup2\n      sload\n      dup2\n      0xffffffffffffffffffffffffffffffffffffffff\n      mul\n      not\n      and\n      swap1\n      dup4\n      0xffffffffffffffffffffffffffffffffffffffff\n      and\n      mul\n      or\n      swap1\n      sstore\n      pop\n        /* \"contracts/Twitter.sol\":3457:3462  _user */\n      dup1\n        /* \"contracts/Twitter.sol\":3432:3463  UserFollowed(msg.sender, _user) */\n      0xffffffffffffffffffffffffffffffffffffffff\n      and\n        /* \"contracts/Twitter.sol\":3445:3455  msg.sender */\n      caller\n        /* \"contracts/Twitter.sol\":3432:3463  UserFollowed(msg.sender, _user) */\n      0xffffffffffffffffffffffffffffffffffffffff\n      and\n      0x30b3435b456f45779984ddfa456115ee4c20d9e446979b1b9e90dbb7e12b90b7\n      mload(0x40)\n      mload(0x40)\n      dup1\n      swap2\n      sub\n      swap1\n      log3\n        /* \"contracts/Twitter.sol\":3083:3471  function followUser(address _user) public {... */\n      pop\n      jump\t// out\n        /* \"contracts/Twitter.sol\":4417:4535  function getFollowers(address _user) public view returns (address[] memory) {... */\n    tag_81:\n        /* \"contracts/Twitter.sol\":4475:4491  address[] memory */\n      0x60\n        /* \"contracts/Twitter.sol\":4511:4520  followers */\n      0x03\n        /* \"contracts/Twitter.sol\":4511:4527  followers[_user] */\n      0x00\n        /* \"contracts/Twitter.sol\":4521:4526  _user */\n      dup4\n        /* \"contracts/Twitter.sol\":4511:4527  followers[_user] */\n      0xffffffffffffffffffffffffffffffffffffffff\n      and\n      0xffffffffffffffffffffffffffffffffffffffff\n      and\n      dup2\n      mstore\n      0x20\n      add\n      swap1\n      dup2\n      mstore\n      0x20\n      add\n      0x00\n      keccak256\n        /* \"contracts/Twitter.sol\":4504:4527  return followers[_user] */\n      dup1\n      sload\n      dup1\n      0x20\n      mul\n      0x20\n      add\n      mload(0x40)\n      swap1\n      dup2\n      add\n      0x40\n      mstore\n      dup1\n      swap3\n      swap2\n      swap1\n      dup2\n      dup2\n      mstore\n      0x20\n      add\n      dup3\n      dup1\n      sload\n      dup1\n      iszero\n      tag_192\n      jumpi\n      0x20\n      mul\n      dup3\n      add\n      swap2\n      swap1\n      0x00\n      mstore\n      keccak256(0x00, 0x20)\n      swap1\n    tag_193:\n      dup2\n      0x00\n      swap1\n      sload\n      swap1\n      0x0100\n      exp\n      swap1\n      div\n      0xffffffffffffffffffffffffffffffffffffffff\n      and\n      0xffffffffffffffffffffffffffffffffffffffff\n      and\n      dup2\n      mstore\n      0x20\n      add\n      swap1\n      0x01\n      add\n      swap1\n      dup1\n      dup4\n      gt\n      tag_193\n      jumpi\n    tag_192:\n      pop\n      pop\n      pop\n      pop\n      pop\n      swap1\n      pop\n        /* \"contracts/Twitter.sol\":4417:4535  function getFollowers(address _user) public view returns (address[] memory) {... */\n      swap2\n      swap1\n      pop\n      jump\t// out\n        /* \"contracts/Twitter.sol\":4543:4661  function getFollowing(address _user) public view returns (address[] memory) {... */\n    tag_86:\n        /* \"contracts/Twitter.sol\":4601:4617  address[] memory */\n      0x60\n        /* \"contracts/Twitter.sol\":4637:4646  following */\n      0x04\n        /* \"contracts/Twitter.sol\":4637:4653  following[_user] */\n      0x00\n        /* \"contracts/Twitter.sol\":4647:4652  _user */\n      dup4\n        /* \"contracts/Twitter.sol\":4637:4653  following[_user] */\n      0xffffffffffffffffffffffffffffffffffffffff\n      and\n      0xffffffffffffffffffffffffffffffffffffffff\n      and\n      dup2\n      mstore\n      0x20\n      add\n      swap1\n      dup2\n      mstore\n      0x20\n      add\n      0x00\n      keccak256\n        /* \"contracts/Twitter.sol\":4630:4653  return following[_user] */\n      dup1\n      sload\n      dup1\n      0x20\n      mul\n      0x20\n      add\n      mload(0x40)\n      swap1\n      dup2\n      add\n      0x40\n      mstore\n      dup1\n      swap3\n      swap2\n      swap1\n      dup2\n      dup2\n      mstore\n      0x20\n      add\n      dup3\n      dup1\n      sload\n      dup1\n      iszero\n      tag_195\n      jumpi\n      0x20\n      mul\n      dup3\n      add\n      swap2\n      swap1\n      0x00\n      mstore\n      keccak256(0x00, 0x20)\n      swap1\n    tag_196:\n      dup2\n      0x00\n      swap1\n      sload\n      swap1\n      0x0100\n      exp\n      swap1\n      div\n      0xffffffffffffffffffffffffffffffffffffffff\n      and\n      0xffffffffffffffffffffffffffffffffffffffff\n      and\n      dup2\n      mstore\n      0x20\n      add\n      swap1\n      0x01\n      add\n      swap1\n      dup1\n      dup4\n      gt\n      tag_196\n      jumpi\n    tag_195:\n      pop\n      pop\n      pop\n      pop\n      pop\n      swap1\n      pop\n        /* \"contracts/Twitter.sol\":4543:4661  function getFollowing(address _user) public view returns (address[] memory) {... */\n      swap2\n      swap1\n      pop\n      jump\t// out\n        /* \"contracts/Twitter.sol\":480:526  mapping(address => address[]) public followers */\n    tag_90:\n      mstore(0x20, 0x03)\n      dup2\n      0x00\n      mstore\n      keccak256(0x00, 0x40)\n      dup2\n      dup2\n      sload\n      dup2\n      lt\n      tag_197\n      jumpi\n      0x00\n      dup1\n      revert\n    tag_197:\n      swap1\n      0x00\n      mstore\n      keccak256(0x00, 0x20)\n      add\n      0x00\n      swap2\n      pop\n      swap2\n      pop\n      swap1\n      sload\n      swap1\n      0x0100\n      exp\n      swap1\n      div\n      0xffffffffffffffffffffffffffffffffffffffff\n      and\n      dup2\n      jump\t// out\n        /* \"contracts/Twitter.sol\":3479:4409  function unfollowUser(address _user) public {... */\n    tag_94:\n        /* \"contracts/Twitter.sol\":3542:3553  isFollowing */\n      0x02\n        /* \"contracts/Twitter.sol\":3542:3565  isFollowing[msg.sender] */\n      0x00\n        /* \"contracts/Twitter.sol\":3554:3564  msg.sender */\n      caller\n        /* \"contracts/Twitter.sol\":3542:3565  isFollowing[msg.sender] */\n      0xffffffffffffffffffffffffffffffffffffffff\n      and\n      0xffffffffffffffffffffffffffffffffffffffff\n      and\n      dup2\n      mstore\n      0x20\n      add\n      swap1\n      dup2\n      mstore\n      0x20\n      add\n      0x00\n      keccak256\n        /* \"contracts/Twitter.sol\":3542:3572  isFollowing[msg.sender][_user] */\n      0x00\n        /* \"contracts/Twitter.sol\":3566:3571  _user */\n      dup3\n        /* \"contracts/Twitter.sol\":3542:3572  isFollowing[msg.sender][_user] */\n      0xffffffffffffffffffffffffffffffffffffffff\n      and\n      0xffffffffffffffffffffffffffffffffffffffff\n      and\n      dup2\n      mstore\n      0x20\n      add\n      swap1\n      dup2\n      mstore\n      0x20\n      add\n      0x00\n      keccak256\n      0x00\n      swap1\n      sload\n      swap1\n      0x0100\n      exp\n      swap1\n      div\n      0xff\n      and\n        /* \"contracts/Twitter.sol\":3534:3607  require(isFollowing[msg.sender][_user], \"YOU'RE NOT FOLLOWING THIS USER\") */\n      tag_200\n      jumpi\n      mload(0x40)\n      0x08c379a000000000000000000000000000000000000000000000000000000000\n      dup2\n      mstore\n      0x04\n      add\n      tag_201\n      swap1\n      tag_202\n      jump\t// in\n    tag_201:\n      mload(0x40)\n      dup1\n      swap2\n      sub\n      swap1\n      revert\n    tag_200:\n        /* \"contracts/Twitter.sol\":3653:3658  false */\n      0x00\n        /* \"contracts/Twitter.sol\":3620:3631  isFollowing */\n      0x02\n        /* \"contracts/Twitter.sol\":3620:3643  isFollowing[msg.sender] */\n      0x00\n        /* \"contracts/Twitter.sol\":3632:3642  msg.sender */\n      caller\n        /* \"contracts/Twitter.sol\":3620:3643  isFollowing[msg.sender] */\n      0xffffffffffffffffffffffffffffffffffffffff\n      and\n      0xffffffffffffffffffffffffffffffffffffffff\n      and\n      dup2\n      mstore\n      0x20\n      add\n      swap1\n      dup2\n      mstore\n      0x20\n      add\n      0x00\n      keccak256\n        /* \"contracts/Twitter.sol\":3620:3650  isFollowing[msg.sender][_user] */\n      0x00\n        /* \"contracts/Twitter.sol\":3644:3649  _user */\n      dup4\n        /* \"contracts/Twitter.sol\":3620:3650  isFollowing[msg.sender][_user] */\n      0xffffffffffffffffffffffffffffffffffffffff\n      and\n      0xffffffffffffffffffffffffffffffffffffffff\n      and\n      dup2\n      mstore\n      0x20\n      add\n      swap1\n      dup2\n      mstore\n      0x20\n      add\n      0x00\n      keccak256\n      0x00\n        /* \"contracts/Twitter.sol\":3620:3658  isFollowing[msg.sender][_user] = false */\n      0x0100\n      exp\n      dup2\n      sload\n      dup2\n      0xff\n      mul\n      not\n      and\n      swap1\n      dup4\n      iszero\n      iszero\n      mul\n      or\n      swap1\n      sstore\n      pop\n        /* \"contracts/Twitter.sol\":3715:3721  uint i */\n      0x00\n        /* \"contracts/Twitter.sol\":3710:4018  for (uint i = 0; i < following[msg.sender].length; i++) {... */\n    tag_203:\n        /* \"contracts/Twitter.sol\":3731:3740  following */\n      0x04\n        /* \"contracts/Twitter.sol\":3731:3752  following[msg.sender] */\n      0x00\n        /* \"contracts/Twitter.sol\":3741:3751  msg.sender */\n      caller\n        /* \"contracts/Twitter.sol\":3731:3752  following[msg.sender] */\n      0xffffffffffffffffffffffffffffffffffffffff\n      and\n      0xffffffffffffffffffffffffffffffffffffffff\n      and\n      dup2\n      mstore\n      0x20\n      add\n      swap1\n      dup2\n      mstore\n      0x20\n      add\n      0x00\n      keccak256\n        /* \"contracts/Twitter.sol\":3731:3759  following[msg.sender].length */\n      dup1\n      sload\n      swap1\n      pop\n        /* \"contracts/Twitter.sol\":3727:3728  i */\n      dup2\n        /* \"contracts/Twitter.sol\":3727:3759  i < following[msg.sender].length */\n      lt\n        /* \"contracts/Twitter.sol\":3710:4018  for (uint i = 0; i < following[msg.sender].length; i++) {... */\n      iszero\n      tag_204\n      jumpi\n        /* \"contracts/Twitter.sol\":3813:3818  _user */\n      dup2\n        /* \"contracts/Twitter.sol\":3785:3818  following[msg.sender][i] == _user */\n      0xffffffffffffffffffffffffffffffffffffffff\n      and\n        /* \"contracts/Twitter.sol\":3785:3794  following */\n      0x04\n        /* \"contracts/Twitter.sol\":3785:3806  following[msg.sender] */\n      0x00\n        /* \"contracts/Twitter.sol\":3795:3805  msg.sender */\n      caller\n        /* \"contracts/Twitter.sol\":3785:3806  following[msg.sender] */\n      0xffffffffffffffffffffffffffffffffffffffff\n      and\n      0xffffffffffffffffffffffffffffffffffffffff\n      and\n      dup2\n      mstore\n      0x20\n      add\n      swap1\n      dup2\n      mstore\n      0x20\n      add\n      0x00\n      keccak256\n        /* \"contracts/Twitter.sol\":3807:3808  i */\n      dup3\n        /* \"contracts/Twitter.sol\":3785:3809  following[msg.sender][i] */\n      dup2\n      sload\n      dup2\n      lt\n      tag_206\n      jumpi\n      tag_207\n      tag_115\n      jump\t// in\n    tag_207:\n    tag_206:\n      swap1\n      0x00\n      mstore\n      keccak256(0x00, 0x20)\n      add\n      0x00\n      swap1\n      sload\n      swap1\n      0x0100\n      exp\n      swap1\n      div\n      0xffffffffffffffffffffffffffffffffffffffff\n      and\n        /* \"contracts/Twitter.sol\":3785:3818  following[msg.sender][i] == _user */\n      0xffffffffffffffffffffffffffffffffffffffff\n      and\n      sub\n        /* \"contracts/Twitter.sol\":3781:4007  if (following[msg.sender][i] == _user) {... */\n      tag_209\n      jumpi\n        /* \"contracts/Twitter.sol\":3866:3875  following */\n      0x04\n        /* \"contracts/Twitter.sol\":3866:3887  following[msg.sender] */\n      0x00\n        /* \"contracts/Twitter.sol\":3876:3886  msg.sender */\n      caller\n        /* \"contracts/Twitter.sol\":3866:3887  following[msg.sender] */\n      0xffffffffffffffffffffffffffffffffffffffff\n      and\n      0xffffffffffffffffffffffffffffffffffffffff\n      and\n      dup2\n      mstore\n      0x20\n      add\n      swap1\n      dup2\n      mstore\n      0x20\n      add\n      0x00\n      keccak256\n        /* \"contracts/Twitter.sol\":3919:3920  1 */\n      0x01\n        /* \"contracts/Twitter.sol\":3888:3897  following */\n      0x04\n        /* \"contracts/Twitter.sol\":3888:3909  following[msg.sender] */\n      0x00\n        /* \"contracts/Twitter.sol\":3898:3908  msg.sender */\n      caller\n        /* \"contracts/Twitter.sol\":3888:3909  following[msg.sender] */\n      0xffffffffffffffffffffffffffffffffffffffff\n      and\n      0xffffffffffffffffffffffffffffffffffffffff\n      and\n      dup2\n      mstore\n      0x20\n      add\n      swap1\n      dup2\n      mstore\n      0x20\n      add\n      0x00\n      keccak256\n        /* \"contracts/Twitter.sol\":3888:3916  following[msg.sender].length */\n      dup1\n      sload\n      swap1\n      pop\n        /* \"contracts/Twitter.sol\":3888:3920  following[msg.sender].length - 1 */\n      tag_210\n      swap2\n      swap1\n      tag_211\n      jump\t// in\n    tag_210:\n        /* \"contracts/Twitter.sol\":3866:3921  following[msg.sender][following[msg.sender].length - 1] */\n      dup2\n      sload\n      dup2\n      lt\n      tag_212\n      jumpi\n      tag_213\n      tag_115\n      jump\t// in\n    tag_213:\n    tag_212:\n      swap1\n      0x00\n      mstore\n      keccak256(0x00, 0x20)\n      add\n      0x00\n      swap1\n      sload\n      swap1\n      0x0100\n      exp\n      swap1\n      div\n      0xffffffffffffffffffffffffffffffffffffffff\n      and\n        /* \"contracts/Twitter.sol\":3839:3848  following */\n      0x04\n        /* \"contracts/Twitter.sol\":3839:3860  following[msg.sender] */\n      0x00\n        /* \"contracts/Twitter.sol\":3849:3859  msg.sender */\n      caller\n        /* \"contracts/Twitter.sol\":3839:3860  following[msg.sender] */\n      0xffffffffffffffffffffffffffffffffffffffff\n      and\n      0xffffffffffffffffffffffffffffffffffffffff\n      and\n      dup2\n      mstore\n      0x20\n      add\n      swap1\n      dup2\n      mstore\n      0x20\n      add\n      0x00\n      keccak256\n        /* \"contracts/Twitter.sol\":3861:3862  i */\n      dup3\n        /* \"contracts/Twitter.sol\":3839:3863  following[msg.sender][i] */\n      dup2\n      sload\n      dup2\n      lt\n      tag_215\n      jumpi\n      tag_216\n      tag_115\n      jump\t// in\n    tag_216:\n    tag_215:\n      swap1\n      0x00\n      mstore\n      keccak256(0x00, 0x20)\n      add\n      0x00\n        /* \"contracts/Twitter.sol\":3839:3921  following[msg.sender][i] = following[msg.sender][following[msg.sender].length - 1] */\n      0x0100\n      exp\n      dup2\n      sload\n      dup2\n      0xffffffffffffffffffffffffffffffffffffffff\n      mul\n      not\n      and\n      swap1\n      dup4\n      0xffffffffffffffffffffffffffffffffffffffff\n      and\n      mul\n      or\n      swap1\n      sstore\n      pop\n        /* \"contracts/Twitter.sol\":3940:3949  following */\n      0x04\n        /* \"contracts/Twitter.sol\":3940:3961  following[msg.sender] */\n      0x00\n        /* \"contracts/Twitter.sol\":3950:3960  msg.sender */\n      caller\n        /* \"contracts/Twitter.sol\":3940:3961  following[msg.sender] */\n      0xffffffffffffffffffffffffffffffffffffffff\n      and\n      0xffffffffffffffffffffffffffffffffffffffff\n      and\n      dup2\n      mstore\n      0x20\n      add\n      swap1\n      dup2\n      mstore\n      0x20\n      add\n      0x00\n      keccak256\n        /* \"contracts/Twitter.sol\":3940:3967  following[msg.sender].pop() */\n      dup1\n      sload\n      dup1\n      tag_218\n      jumpi\n      tag_219\n      tag_220\n      jump\t// in\n    tag_219:\n    tag_218:\n      0x01\n      swap1\n      sub\n      dup2\n      dup2\n      swap1\n      0x00\n      mstore\n      keccak256(0x00, 0x20)\n      add\n      exp(0x0100, 0x00)\n      dup2\n      sload\n      swap1\n      0xffffffffffffffffffffffffffffffffffffffff\n      mul\n      not\n      and\n      swap1\n      sstore\n      swap1\n      sstore\n        /* \"contracts/Twitter.sol\":3986:3991  break */\n      jump(tag_204)\n        /* \"contracts/Twitter.sol\":3781:4007  if (following[msg.sender][i] == _user) {... */\n    tag_209:\n        /* \"contracts/Twitter.sol\":3761:3764  i++ */\n      dup1\n      dup1\n      0x01\n      add\n      swap2\n      pop\n      pop\n        /* \"contracts/Twitter.sol\":3710:4018  for (uint i = 0; i < following[msg.sender].length; i++) {... */\n      jump(tag_203)\n    tag_204:\n      pop\n        /* \"contracts/Twitter.sol\":4074:4080  uint i */\n      0x00\n        /* \"contracts/Twitter.sol\":4069:4352  for (uint i = 0; i < followers[_user].length; i++) {... */\n    tag_222:\n        /* \"contracts/Twitter.sol\":4090:4099  followers */\n      0x03\n        /* \"contracts/Twitter.sol\":4090:4106  followers[_user] */\n      0x00\n        /* \"contracts/Twitter.sol\":4100:4105  _user */\n      dup4\n        /* \"contracts/Twitter.sol\":4090:4106  followers[_user] */\n      0xffffffffffffffffffffffffffffffffffffffff\n      and\n      0xffffffffffffffffffffffffffffffffffffffff\n      and\n      dup2\n      mstore\n      0x20\n      add\n      swap1\n      dup2\n      mstore\n      0x20\n      add\n      0x00\n      keccak256\n        /* \"contracts/Twitter.sol\":4090:4113  followers[_user].length */\n      dup1\n      sload\n      swap1\n      pop\n        /* \"contracts/Twitter.sol\":4086:4087  i */\n      dup2\n        /* \"contracts/Twitter.sol\":4086:4113  i < followers[_user].length */\n      lt\n        /* \"contracts/Twitter.sol\":4069:4352  for (uint i = 0; i < followers[_user].length; i++) {... */\n      iszero\n      tag_223\n      jumpi\n        /* \"contracts/Twitter.sol\":4162:4172  msg.sender */\n      caller\n        /* \"contracts/Twitter.sol\":4139:4172  followers[_user][i] == msg.sender */\n      0xffffffffffffffffffffffffffffffffffffffff\n      and\n        /* \"contracts/Twitter.sol\":4139:4148  followers */\n      0x03\n        /* \"contracts/Twitter.sol\":4139:4155  followers[_user] */\n      0x00\n        /* \"contracts/Twitter.sol\":4149:4154  _user */\n      dup5\n        /* \"contracts/Twitter.sol\":4139:4155  followers[_user] */\n      0xffffffffffffffffffffffffffffffffffffffff\n      and\n      0xffffffffffffffffffffffffffffffffffffffff\n      and\n      dup2\n      mstore\n      0x20\n      add\n      swap1\n      dup2\n      mstore\n      0x20\n      add\n      0x00\n      keccak256\n        /* \"contracts/Twitter.sol\":4156:4157  i */\n      dup3\n        /* \"contracts/Twitter.sol\":4139:4158  followers[_user][i] */\n      dup2\n      sload\n      dup2\n      lt\n      tag_225\n      jumpi\n      tag_226\n      tag_115\n      jump\t// in\n    tag_226:\n    tag_225:\n      swap1\n      0x00\n      mstore\n      keccak256(0x00, 0x20)\n      add\n      0x00\n      swap1\n      sload\n      swap1\n      0x0100\n      exp\n      swap1\n      div\n      0xffffffffffffffffffffffffffffffffffffffff\n      and\n        /* \"contracts/Twitter.sol\":4139:4172  followers[_user][i] == msg.sender */\n      0xffffffffffffffffffffffffffffffffffffffff\n      and\n      sub\n        /* \"contracts/Twitter.sol\":4135:4341  if (followers[_user][i] == msg.sender) {... */\n      tag_228\n      jumpi\n        /* \"contracts/Twitter.sol\":4215:4224  followers */\n      0x03\n        /* \"contracts/Twitter.sol\":4215:4231  followers[_user] */\n      0x00\n        /* \"contracts/Twitter.sol\":4225:4230  _user */\n      dup4\n        /* \"contracts/Twitter.sol\":4215:4231  followers[_user] */\n      0xffffffffffffffffffffffffffffffffffffffff\n      and\n      0xffffffffffffffffffffffffffffffffffffffff\n      and\n      dup2\n      mstore\n      0x20\n      add\n      swap1\n      dup2\n      mstore\n      0x20\n      add\n      0x00\n      keccak256\n        /* \"contracts/Twitter.sol\":4258:4259  1 */\n      0x01\n        /* \"contracts/Twitter.sol\":4232:4241  followers */\n      0x03\n        /* \"contracts/Twitter.sol\":4232:4248  followers[_user] */\n      0x00\n        /* \"contracts/Twitter.sol\":4242:4247  _user */\n      dup6\n        /* \"contracts/Twitter.sol\":4232:4248  followers[_user] */\n      0xffffffffffffffffffffffffffffffffffffffff\n      and\n      0xffffffffffffffffffffffffffffffffffffffff\n      and\n      dup2\n      mstore\n      0x20\n      add\n      swap1\n      dup2\n      mstore\n      0x20\n      add\n      0x00\n      keccak256\n        /* \"contracts/Twitter.sol\":4232:4255  followers[_user].length */\n      dup1\n      sload\n      swap1\n      pop\n        /* \"contracts/Twitter.sol\":4232:4259  followers[_user].length - 1 */\n      tag_229\n      swap2\n      swap1\n      tag_211\n      jump\t// in\n    tag_229:\n        /* \"contracts/Twitter.sol\":4215:4260  followers[_user][followers[_user].length - 1] */\n      dup2\n      sload\n      dup2\n      lt\n      tag_230\n      jumpi\n      tag_231\n      tag_115\n      jump\t// in\n    tag_231:\n    tag_230:\n      swap1\n      0x00\n      mstore\n      keccak256(0x00, 0x20)\n      add\n      0x00\n      swap1\n      sload\n      swap1\n      0x0100\n      exp\n      swap1\n      div\n      0xffffffffffffffffffffffffffffffffffffffff\n      and\n        /* \"contracts/Twitter.sol\":4193:4202  followers */\n      0x03\n        /* \"contracts/Twitter.sol\":4193:4209  followers[_user] */\n      0x00\n        /* \"contracts/Twitter.sol\":4203:4208  _user */\n      dup5\n        /* \"contracts/Twitter.sol\":4193:4209  followers[_user] */\n      0xffffffffffffffffffffffffffffffffffffffff\n      and\n      0xffffffffffffffffffffffffffffffffffffffff\n      and\n      dup2\n      mstore\n      0x20\n      add\n      swap1\n      dup2\n      mstore\n      0x20\n      add\n      0x00\n      keccak256\n        /* \"contracts/Twitter.sol\":4210:4211  i */\n      dup3\n        /* \"contracts/Twitter.sol\":4193:4212  followers[_user][i] */\n      dup2\n      sload\n      dup2\n      lt\n      tag_233\n      jumpi\n      tag_234\n      tag_115\n      jump\t// in\n    tag_234:\n    tag_233:\n      swap1\n      0x00\n      mstore\n      keccak256(0x00, 0x20)\n      add\n      0x00\n        /* \"contracts/Twitter.sol\":4193:4260  followers[_user][i] = followers[_user][followers[_user].length - 1] */\n      0x0100\n      exp\n      dup2\n      sload\n      dup2\n      0xffffffffffffffffffffffffffffffffffffffff\n      mul\n      not\n      and\n      swap1\n      dup4\n      0xffffffffffffffffffffffffffffffffffffffff\n      and\n      mul\n      or\n      swap1\n      sstore\n      pop\n        /* \"contracts/Twitter.sol\":4279:4288  followers */\n      0x03\n        /* \"contracts/Twitter.sol\":4279:4295  followers[_user] */\n      0x00\n        /* \"contracts/Twitter.sol\":4289:4294  _user */\n      dup4\n        /* \"contracts/Twitter.sol\":4279:4295  followers[_user] */\n      0xffffffffffffffffffffffffffffffffffffffff\n      and\n      0xffffffffffffffffffffffffffffffffffffffff\n      and\n      dup2\n      mstore\n      0x20\n      add\n      swap1\n      dup2\n      mstore\n      0x20\n      add\n      0x00\n      keccak256\n        /* \"contracts/Twitter.sol\":4279:4301  followers[_user].pop() */\n      dup1\n      sload\n      dup1\n      tag_236\n      jumpi\n      tag_237\n      tag_220\n      jump\t// in\n    tag_237:\n    tag_236:\n      0x01\n      swap1\n      sub\n      dup2\n      dup2\n      swap1\n      0x00\n      mstore\n      keccak256(0x00, 0x20)\n      add\n      exp(0x0100, 0x00)\n      dup2\n      sload\n      swap1\n      0xffffffffffffffffffffffffffffffffffffffff\n      mul\n      not\n      and\n      swap1\n      sstore\n      swap1\n      sstore\n        /* \"contracts/Twitter.sol\":4320:4325  break */\n      jump(tag_223)\n        /* \"contracts/Twitter.sol\":4135:4341  if (followers[_user][i] == msg.sender) {... */\n    tag_228:\n        /* \"contracts/Twitter.sol\":4115:4118  i++ */\n      dup1\n      dup1\n      0x01\n      add\n      swap2\n      pop\n      pop\n        /* \"contracts/Twitter.sol\":4069:4352  for (uint i = 0; i < followers[_user].length; i++) {... */\n      jump(tag_222)\n    tag_223:\n      pop\n        /* \"contracts/Twitter.sol\":4395:4400  _user */\n      dup1\n        /* \"contracts/Twitter.sol\":4368:4401  UserUnfollowed(msg.sender, _user) */\n      0xffffffffffffffffffffffffffffffffffffffff\n      and\n        /* \"contracts/Twitter.sol\":4383:4393  msg.sender */\n      caller\n        /* \"contracts/Twitter.sol\":4368:4401  UserUnfollowed(msg.sender, _user) */\n      0xffffffffffffffffffffffffffffffffffffffff\n      and\n      0xe7339343c6edff57f2d15278c419523844cea30ae5ee2146aa22cb9e3107dab7\n      mload(0x40)\n      mload(0x40)\n      dup1\n      swap2\n      sub\n      swap1\n      log3\n        /* \"contracts/Twitter.sol\":3479:4409  function unfollowUser(address _user) public {... */\n      pop\n      jump\t// out\n    tag_158:\n      mload(0x40)\n      dup1\n      0xa0\n      add\n      0x40\n      mstore\n      dup1\n      0x00\n      dup2\n      mstore\n      0x20\n      add\n      and(0xffffffffffffffffffffffffffffffffffffffff, 0x00)\n      dup2\n      mstore\n      0x20\n      add\n      0x60\n      dup2\n      mstore\n      0x20\n      add\n      0x00\n      dup2\n      mstore\n      0x20\n      add\n      0x00\n      dup2\n      mstore\n      pop\n      swap1\n      jump\t// out\n        /* \"#utility.yul\":7:82   */\n    tag_239:\n        /* \"#utility.yul\":40:46   */\n      0x00\n        /* \"#utility.yul\":73:75   */\n      0x40\n        /* \"#utility.yul\":67:76   */\n      mload\n        /* \"#utility.yul\":57:76   */\n      swap1\n      pop\n        /* \"#utility.yul\":7:82   */\n      swap1\n      jump\t// out\n        /* \"#utility.yul\":88:205   */\n    tag_240:\n        /* \"#utility.yul\":197:198   */\n      0x00\n        /* \"#utility.yul\":194:195   */\n      dup1\n        /* \"#utility.yul\":187:199   */\n      revert\n        /* \"#utility.yul\":211:328   */\n    tag_241:\n        /* \"#utility.yul\":320:321   */\n      0x00\n        /* \"#utility.yul\":317:318   */\n      dup1\n        /* \"#utility.yul\":310:322   */\n      revert\n        /* \"#utility.yul\":334:460   */\n    tag_242:\n        /* \"#utility.yul\":371:378   */\n      0x00\n        /* \"#utility.yul\":411:453   */\n      0xffffffffffffffffffffffffffffffffffffffff\n        /* \"#utility.yul\":404:409   */\n      dup3\n        /* \"#utility.yul\":400:454   */\n      and\n        /* \"#utility.yul\":389:454   */\n      swap1\n      pop\n        /* \"#utility.yul\":334:460   */\n      swap2\n      swap1\n      pop\n      jump\t// out\n        /* \"#utility.yul\":466:562   */\n    tag_243:\n        /* \"#utility.yul\":503:510   */\n      0x00\n        /* \"#utility.yul\":532:556   */\n      tag_328\n        /* \"#utility.yul\":550:555   */\n      dup3\n        /* \"#utility.yul\":532:556   */\n      tag_242\n      jump\t// in\n    tag_328:\n        /* \"#utility.yul\":521:556   */\n      swap1\n      pop\n        /* \"#utility.yul\":466:562   */\n      swap2\n      swap1\n      pop\n      jump\t// out\n        /* \"#utility.yul\":568:690   */\n    tag_244:\n        /* \"#utility.yul\":641:665   */\n      tag_330\n        /* \"#utility.yul\":659:664   */\n      dup2\n        /* \"#utility.yul\":641:665   */\n      tag_243\n      jump\t// in\n    tag_330:\n        /* \"#utility.yul\":634:639   */\n      dup2\n        /* \"#utility.yul\":631:666   */\n      eq\n        /* \"#utility.yul\":621:684   */\n      tag_331\n      jumpi\n        /* \"#utility.yul\":680:681   */\n      0x00\n        /* \"#utility.yul\":677:678   */\n      dup1\n        /* \"#utility.yul\":670:682   */\n      revert\n        /* \"#utility.yul\":621:684   */\n    tag_331:\n        /* \"#utility.yul\":568:690   */\n      pop\n      jump\t// out\n        /* \"#utility.yul\":696:835   */\n    tag_245:\n        /* \"#utility.yul\":742:747   */\n      0x00\n        /* \"#utility.yul\":780:786   */\n      dup2\n        /* \"#utility.yul\":767:787   */\n      calldataload\n        /* \"#utility.yul\":758:787   */\n      swap1\n      pop\n        /* \"#utility.yul\":796:829   */\n      tag_333\n        /* \"#utility.yul\":823:828   */\n      dup2\n        /* \"#utility.yul\":796:829   */\n      tag_244\n      jump\t// in\n    tag_333:\n        /* \"#utility.yul\":696:835   */\n      swap3\n      swap2\n      pop\n      pop\n      jump\t// out\n        /* \"#utility.yul\":841:918   */\n    tag_246:\n        /* \"#utility.yul\":878:885   */\n      0x00\n        /* \"#utility.yul\":907:912   */\n      dup2\n        /* \"#utility.yul\":896:912   */\n      swap1\n      pop\n        /* \"#utility.yul\":841:918   */\n      swap2\n      swap1\n      pop\n      jump\t// out\n        /* \"#utility.yul\":924:1046   */\n    tag_247:\n        /* \"#utility.yul\":997:1021   */\n      tag_336\n        /* \"#utility.yul\":1015:1020   */\n      dup2\n        /* \"#utility.yul\":997:1021   */\n      tag_246\n      jump\t// in\n    tag_336:\n        /* \"#utility.yul\":990:995   */\n      dup2\n        /* \"#utility.yul\":987:1022   */\n      eq\n        /* \"#utility.yul\":977:1040   */\n      tag_337\n      jumpi\n        /* \"#utility.yul\":1036:1037   */\n      0x00\n        /* \"#utility.yul\":1033:1034   */\n      dup1\n        /* \"#utility.yul\":1026:1038   */\n      revert\n        /* \"#utility.yul\":977:1040   */\n    tag_337:\n        /* \"#utility.yul\":924:1046   */\n      pop\n      jump\t// out\n        /* \"#utility.yul\":1052:1191   */\n    tag_248:\n        /* \"#utility.yul\":1098:1103   */\n      0x00\n        /* \"#utility.yul\":1136:1142   */\n      dup2\n        /* \"#utility.yul\":1123:1143   */\n      calldataload\n        /* \"#utility.yul\":1114:1143   */\n      swap1\n      pop\n        /* \"#utility.yul\":1152:1185   */\n      tag_339\n        /* \"#utility.yul\":1179:1184   */\n      dup2\n        /* \"#utility.yul\":1152:1185   */\n      tag_247\n      jump\t// in\n    tag_339:\n        /* \"#utility.yul\":1052:1191   */\n      swap3\n      swap2\n      pop\n      pop\n      jump\t// out\n        /* \"#utility.yul\":1197:1671   */\n    tag_25:\n        /* \"#utility.yul\":1265:1271   */\n      0x00\n        /* \"#utility.yul\":1273:1279   */\n      dup1\n        /* \"#utility.yul\":1322:1324   */\n      0x40\n        /* \"#utility.yul\":1310:1319   */\n      dup4\n        /* \"#utility.yul\":1301:1308   */\n      dup6\n        /* \"#utility.yul\":1297:1320   */\n      sub\n        /* \"#utility.yul\":1293:1325   */\n      slt\n        /* \"#utility.yul\":1290:1409   */\n      iszero\n      tag_341\n      jumpi\n        /* \"#utility.yul\":1328:1407   */\n      tag_342\n      tag_240\n      jump\t// in\n    tag_342:\n        /* \"#utility.yul\":1290:1409   */\n    tag_341:\n        /* \"#utility.yul\":1448:1449   */\n      0x00\n        /* \"#utility.yul\":1473:1526   */\n      tag_343\n        /* \"#utility.yul\":1518:1525   */\n      dup6\n        /* \"#utility.yul\":1509:1515   */\n      dup3\n        /* \"#utility.yul\":1498:1507   */\n      dup7\n        /* \"#utility.yul\":1494:1516   */\n      add\n        /* \"#utility.yul\":1473:1526   */\n      tag_245\n      jump\t// in\n    tag_343:\n        /* \"#utility.yul\":1463:1526   */\n      swap3\n      pop\n        /* \"#utility.yul\":1419:1536   */\n      pop\n        /* \"#utility.yul\":1575:1577   */\n      0x20\n        /* \"#utility.yul\":1601:1654   */\n      tag_344\n        /* \"#utility.yul\":1646:1653   */\n      dup6\n        /* \"#utility.yul\":1637:1643   */\n      dup3\n        /* \"#utility.yul\":1626:1635   */\n      dup7\n        /* \"#utility.yul\":1622:1644   */\n      add\n        /* \"#utility.yul\":1601:1654   */\n      tag_248\n      jump\t// in\n    tag_344:\n        /* \"#utility.yul\":1591:1654   */\n      swap2\n      pop\n        /* \"#utility.yul\":1546:1664   */\n      pop\n        /* \"#utility.yul\":1197:1671   */\n      swap3\n      pop\n      swap3\n      swap1\n      pop\n      jump\t// out\n        /* \"#utility.yul\":1677:1795   */\n    tag_249:\n        /* \"#utility.yul\":1764:1788   */\n      tag_346\n        /* \"#utility.yul\":1782:1787   */\n      dup2\n        /* \"#utility.yul\":1764:1788   */\n      tag_246\n      jump\t// in\n    tag_346:\n        /* \"#utility.yul\":1759:1762   */\n      dup3\n        /* \"#utility.yul\":1752:1789   */\n      mstore\n        /* \"#utility.yul\":1677:1795   */\n      pop\n      pop\n      jump\t// out\n        /* \"#utility.yul\":1801:1919   */\n    tag_250:\n        /* \"#utility.yul\":1888:1912   */\n      tag_348\n        /* \"#utility.yul\":1906:1911   */\n      dup2\n        /* \"#utility.yul\":1888:1912   */\n      tag_243\n      jump\t// in\n    tag_348:\n        /* \"#utility.yul\":1883:1886   */\n      dup3\n        /* \"#utility.yul\":1876:1913   */\n      mstore\n        /* \"#utility.yul\":1801:1919   */\n      pop\n      pop\n      jump\t// out\n        /* \"#utility.yul\":1925:2024   */\n    tag_251:\n        /* \"#utility.yul\":1977:1983   */\n      0x00\n        /* \"#utility.yul\":2011:2016   */\n      dup2\n        /* \"#utility.yul\":2005:2017   */\n      mload\n        /* \"#utility.yul\":1995:2017   */\n      swap1\n      pop\n        /* \"#utility.yul\":1925:2024   */\n      swap2\n      swap1\n      pop\n      jump\t// out\n        /* \"#utility.yul\":2030:2199   */\n    tag_252:\n        /* \"#utility.yul\":2114:2125   */\n      0x00\n        /* \"#utility.yul\":2148:2154   */\n      dup3\n        /* \"#utility.yul\":2143:2146   */\n      dup3\n        /* \"#utility.yul\":2136:2155   */\n      mstore\n        /* \"#utility.yul\":2188:2192   */\n      0x20\n        /* \"#utility.yul\":2183:2186   */\n      dup3\n        /* \"#utility.yul\":2179:2193   */\n      add\n        /* \"#utility.yul\":2164:2193   */\n      swap1\n      pop\n        /* \"#utility.yul\":2030:2199   */\n      swap3\n      swap2\n      pop\n      pop\n      jump\t// out\n        /* \"#utility.yul\":2205:2344   */\n    tag_253:\n        /* \"#utility.yul\":2294:2300   */\n      dup3\n        /* \"#utility.yul\":2289:2292   */\n      dup2\n        /* \"#utility.yul\":2284:2287   */\n      dup4\n        /* \"#utility.yul\":2278:2301   */\n      mcopy\n        /* \"#utility.yul\":2335:2336   */\n      0x00\n        /* \"#utility.yul\":2326:2332   */\n      dup4\n        /* \"#utility.yul\":2321:2324   */\n      dup4\n        /* \"#utility.yul\":2317:2333   */\n      add\n        /* \"#utility.yul\":2310:2337   */\n      mstore\n        /* \"#utility.yul\":2205:2344   */\n      pop\n      pop\n      pop\n      jump\t// out\n        /* \"#utility.yul\":2350:2452   */\n    tag_254:\n        /* \"#utility.yul\":2391:2397   */\n      0x00\n        /* \"#utility.yul\":2442:2444   */\n      0x1f\n        /* \"#utility.yul\":2438:2445   */\n      not\n        /* \"#utility.yul\":2433:2435   */\n      0x1f\n        /* \"#utility.yul\":2426:2431   */\n      dup4\n        /* \"#utility.yul\":2422:2436   */\n      add\n        /* \"#utility.yul\":2418:2446   */\n      and\n        /* \"#utility.yul\":2408:2446   */\n      swap1\n      pop\n        /* \"#utility.yul\":2350:2452   */\n      swap2\n      swap1\n      pop\n      jump\t// out\n        /* \"#utility.yul\":2458:2835   */\n    tag_255:\n        /* \"#utility.yul\":2546:2549   */\n      0x00\n        /* \"#utility.yul\":2574:2613   */\n      tag_354\n        /* \"#utility.yul\":2607:2612   */\n      dup3\n        /* \"#utility.yul\":2574:2613   */\n      tag_251\n      jump\t// in\n    tag_354:\n        /* \"#utility.yul\":2629:2700   */\n      tag_355\n        /* \"#utility.yul\":2693:2699   */\n      dup2\n        /* \"#utility.yul\":2688:2691   */\n      dup6\n        /* \"#utility.yul\":2629:2700   */\n      tag_252\n      jump\t// in\n    tag_355:\n        /* \"#utility.yul\":2622:2700   */\n      swap4\n      pop\n        /* \"#utility.yul\":2709:2774   */\n      tag_356\n        /* \"#utility.yul\":2767:2773   */\n      dup2\n        /* \"#utility.yul\":2762:2765   */\n      dup6\n        /* \"#utility.yul\":2755:2759   */\n      0x20\n        /* \"#utility.yul\":2748:2753   */\n      dup7\n        /* \"#utility.yul\":2744:2760   */\n      add\n        /* \"#utility.yul\":2709:2774   */\n      tag_253\n      jump\t// in\n    tag_356:\n        /* \"#utility.yul\":2799:2828   */\n      tag_357\n        /* \"#utility.yul\":2821:2827   */\n      dup2\n        /* \"#utility.yul\":2799:2828   */\n      tag_254\n      jump\t// in\n    tag_357:\n        /* \"#utility.yul\":2794:2797   */\n      dup5\n        /* \"#utility.yul\":2790:2829   */\n      add\n        /* \"#utility.yul\":2783:2829   */\n      swap2\n      pop\n        /* \"#utility.yul\":2550:2835   */\n      pop\n        /* \"#utility.yul\":2458:2835   */\n      swap3\n      swap2\n      pop\n      pop\n      jump\t// out\n        /* \"#utility.yul\":2841:3596   */\n    tag_28:\n        /* \"#utility.yul\":3066:3070   */\n      0x00\n        /* \"#utility.yul\":3104:3107   */\n      0xa0\n        /* \"#utility.yul\":3093:3102   */\n      dup3\n        /* \"#utility.yul\":3089:3108   */\n      add\n        /* \"#utility.yul\":3081:3108   */\n      swap1\n      pop\n        /* \"#utility.yul\":3118:3189   */\n      tag_359\n        /* \"#utility.yul\":3186:3187   */\n      0x00\n        /* \"#utility.yul\":3175:3184   */\n      dup4\n        /* \"#utility.yul\":3171:3188   */\n      add\n        /* \"#utility.yul\":3162:3168   */\n      dup9\n        /* \"#utility.yul\":3118:3189   */\n      tag_249\n      jump\t// in\n    tag_359:\n        /* \"#utility.yul\":3199:3271   */\n      tag_360\n        /* \"#utility.yul\":3267:3269   */\n      0x20\n        /* \"#utility.yul\":3256:3265   */\n      dup4\n        /* \"#utility.yul\":3252:3270   */\n      add\n        /* \"#utility.yul\":3243:3249   */\n      dup8\n        /* \"#utility.yul\":3199:3271   */\n      tag_250\n      jump\t// in\n    tag_360:\n        /* \"#utility.yul\":3318:3327   */\n      dup2\n        /* \"#utility.yul\":3312:3316   */\n      dup2\n        /* \"#utility.yul\":3308:3328   */\n      sub\n        /* \"#utility.yul\":3303:3305   */\n      0x40\n        /* \"#utility.yul\":3292:3301   */\n      dup4\n        /* \"#utility.yul\":3288:3306   */\n      add\n        /* \"#utility.yul\":3281:3329   */\n      mstore\n        /* \"#utility.yul\":3346:3424   */\n      tag_361\n        /* \"#utility.yul\":3419:3423   */\n      dup2\n        /* \"#utility.yul\":3410:3416   */\n      dup7\n        /* \"#utility.yul\":3346:3424   */\n      tag_255\n      jump\t// in\n    tag_361:\n        /* \"#utility.yul\":3338:3424   */\n      swap1\n      pop\n        /* \"#utility.yul\":3434:3506   */\n      tag_362\n        /* \"#utility.yul\":3502:3504   */\n      0x60\n        /* \"#utility.yul\":3491:3500   */\n      dup4\n        /* \"#utility.yul\":3487:3505   */\n      add\n        /* \"#utility.yul\":3478:3484   */\n      dup6\n        /* \"#utility.yul\":3434:3506   */\n      tag_249\n      jump\t// in\n    tag_362:\n        /* \"#utility.yul\":3516:3589   */\n      tag_363\n        /* \"#utility.yul\":3584:3587   */\n      0x80\n        /* \"#utility.yul\":3573:3582   */\n      dup4\n        /* \"#utility.yul\":3569:3588   */\n      add\n        /* \"#utility.yul\":3560:3566   */\n      dup5\n        /* \"#utility.yul\":3516:3589   */\n      tag_249\n      jump\t// in\n    tag_363:\n        /* \"#utility.yul\":2841:3596   */\n      swap7\n      swap6\n      pop\n      pop\n      pop\n      pop\n      pop\n      pop\n      jump\t// out\n        /* \"#utility.yul\":3602:3931   */\n    tag_31:\n        /* \"#utility.yul\":3661:3667   */\n      0x00\n        /* \"#utility.yul\":3710:3712   */\n      0x20\n        /* \"#utility.yul\":3698:3707   */\n      dup3\n        /* \"#utility.yul\":3689:3696   */\n      dup5\n        /* \"#utility.yul\":3685:3708   */\n      sub\n        /* \"#utility.yul\":3681:3713   */\n      slt\n        /* \"#utility.yul\":3678:3797   */\n      iszero\n      tag_365\n      jumpi\n        /* \"#utility.yul\":3716:3795   */\n      tag_366\n      tag_240\n      jump\t// in\n    tag_366:\n        /* \"#utility.yul\":3678:3797   */\n    tag_365:\n        /* \"#utility.yul\":3836:3837   */\n      0x00\n        /* \"#utility.yul\":3861:3914   */\n      tag_367\n        /* \"#utility.yul\":3906:3913   */\n      dup5\n        /* \"#utility.yul\":3897:3903   */\n      dup3\n        /* \"#utility.yul\":3886:3895   */\n      dup6\n        /* \"#utility.yul\":3882:3904   */\n      add\n        /* \"#utility.yul\":3861:3914   */\n      tag_245\n      jump\t// in\n    tag_367:\n        /* \"#utility.yul\":3851:3914   */\n      swap2\n      pop\n        /* \"#utility.yul\":3807:3924   */\n      pop\n        /* \"#utility.yul\":3602:3931   */\n      swap3\n      swap2\n      pop\n      pop\n      jump\t// out\n        /* \"#utility.yul\":3937:4072   */\n    tag_256:\n        /* \"#utility.yul\":4025:4031   */\n      0x00\n        /* \"#utility.yul\":4059:4064   */\n      dup2\n        /* \"#utility.yul\":4053:4065   */\n      mload\n        /* \"#utility.yul\":4043:4065   */\n      swap1\n      pop\n        /* \"#utility.yul\":3937:4072   */\n      swap2\n      swap1\n      pop\n      jump\t// out\n        /* \"#utility.yul\":4078:4283   */\n    tag_257:\n        /* \"#utility.yul\":4198:4209   */\n      0x00\n        /* \"#utility.yul\":4232:4238   */\n      dup3\n        /* \"#utility.yul\":4227:4230   */\n      dup3\n        /* \"#utility.yul\":4220:4239   */\n      mstore\n        /* \"#utility.yul\":4272:4276   */\n      0x20\n        /* \"#utility.yul\":4267:4270   */\n      dup3\n        /* \"#utility.yul\":4263:4277   */\n      add\n        /* \"#utility.yul\":4248:4277   */\n      swap1\n      pop\n        /* \"#utility.yul\":4078:4283   */\n      swap3\n      swap2\n      pop\n      pop\n      jump\t// out\n        /* \"#utility.yul\":4289:4442   */\n    tag_258:\n        /* \"#utility.yul\":4377:4381   */\n      0x00\n        /* \"#utility.yul\":4400:4403   */\n      dup2\n        /* \"#utility.yul\":4392:4403   */\n      swap1\n      pop\n        /* \"#utility.yul\":4430:4434   */\n      0x20\n        /* \"#utility.yul\":4425:4428   */\n      dup3\n        /* \"#utility.yul\":4421:4435   */\n      add\n        /* \"#utility.yul\":4413:4435   */\n      swap1\n      pop\n        /* \"#utility.yul\":4289:4442   */\n      swap2\n      swap1\n      pop\n      jump\t// out\n        /* \"#utility.yul\":4448:4556   */\n    tag_259:\n        /* \"#utility.yul\":4525:4549   */\n      tag_372\n        /* \"#utility.yul\":4543:4548   */\n      dup2\n        /* \"#utility.yul\":4525:4549   */\n      tag_246\n      jump\t// in\n    tag_372:\n        /* \"#utility.yul\":4520:4523   */\n      dup3\n        /* \"#utility.yul\":4513:4550   */\n      mstore\n        /* \"#utility.yul\":4448:4556   */\n      pop\n      pop\n      jump\t// out\n        /* \"#utility.yul\":4562:4670   */\n    tag_260:\n        /* \"#utility.yul\":4639:4663   */\n      tag_374\n        /* \"#utility.yul\":4657:4662   */\n      dup2\n        /* \"#utility.yul\":4639:4663   */\n      tag_243\n      jump\t// in\n    tag_374:\n        /* \"#utility.yul\":4634:4637   */\n      dup3\n        /* \"#utility.yul\":4627:4664   */\n      mstore\n        /* \"#utility.yul\":4562:4670   */\n      pop\n      pop\n      jump\t// out\n        /* \"#utility.yul\":4676:4835   */\n    tag_261:\n        /* \"#utility.yul\":4750:4761   */\n      0x00\n        /* \"#utility.yul\":4784:4790   */\n      dup3\n        /* \"#utility.yul\":4779:4782   */\n      dup3\n        /* \"#utility.yul\":4772:4791   */\n      mstore\n        /* \"#utility.yul\":4824:4828   */\n      0x20\n        /* \"#utility.yul\":4819:4822   */\n      dup3\n        /* \"#utility.yul\":4815:4829   */\n      add\n        /* \"#utility.yul\":4800:4829   */\n      swap1\n      pop\n        /* \"#utility.yul\":4676:4835   */\n      swap3\n      swap2\n      pop\n      pop\n      jump\t// out\n        /* \"#utility.yul\":4841:5198   */\n    tag_262:\n        /* \"#utility.yul\":4919:4922   */\n      0x00\n        /* \"#utility.yul\":4947:4986   */\n      tag_377\n        /* \"#utility.yul\":4980:4985   */\n      dup3\n        /* \"#utility.yul\":4947:4986   */\n      tag_251\n      jump\t// in\n    tag_377:\n        /* \"#utility.yul\":5002:5063   */\n      tag_378\n        /* \"#utility.yul\":5056:5062   */\n      dup2\n        /* \"#utility.yul\":5051:5054   */\n      dup6\n        /* \"#utility.yul\":5002:5063   */\n      tag_261\n      jump\t// in\n    tag_378:\n        /* \"#utility.yul\":4995:5063   */\n      swap4\n      pop\n        /* \"#utility.yul\":5072:5137   */\n      tag_379\n        /* \"#utility.yul\":5130:5136   */\n      dup2\n        /* \"#utility.yul\":5125:5128   */\n      dup6\n        /* \"#utility.yul\":5118:5122   */\n      0x20\n        /* \"#utility.yul\":5111:5116   */\n      dup7\n        /* \"#utility.yul\":5107:5123   */\n      add\n        /* \"#utility.yul\":5072:5137   */\n      tag_253\n      jump\t// in\n    tag_379:\n        /* \"#utility.yul\":5162:5191   */\n      tag_380\n        /* \"#utility.yul\":5184:5190   */\n      dup2\n        /* \"#utility.yul\":5162:5191   */\n      tag_254\n      jump\t// in\n    tag_380:\n        /* \"#utility.yul\":5157:5160   */\n      dup5\n        /* \"#utility.yul\":5153:5192   */\n      add\n        /* \"#utility.yul\":5146:5192   */\n      swap2\n      pop\n        /* \"#utility.yul\":4923:5198   */\n      pop\n        /* \"#utility.yul\":4841:5198   */\n      swap3\n      swap2\n      pop\n      pop\n      jump\t// out\n        /* \"#utility.yul\":5256:6375   */\n    tag_263:\n        /* \"#utility.yul\":5357:5360   */\n      0x00\n        /* \"#utility.yul\":5393:5397   */\n      0xa0\n        /* \"#utility.yul\":5388:5391   */\n      dup4\n        /* \"#utility.yul\":5384:5398   */\n      add\n        /* \"#utility.yul\":5478:5482   */\n      0x00\n        /* \"#utility.yul\":5471:5476   */\n      dup4\n        /* \"#utility.yul\":5467:5483   */\n      add\n        /* \"#utility.yul\":5461:5484   */\n      mload\n        /* \"#utility.yul\":5497:5560   */\n      tag_382\n        /* \"#utility.yul\":5554:5558   */\n      0x00\n        /* \"#utility.yul\":5549:5552   */\n      dup7\n        /* \"#utility.yul\":5545:5559   */\n      add\n        /* \"#utility.yul\":5531:5543   */\n      dup3\n        /* \"#utility.yul\":5497:5560   */\n      tag_259\n      jump\t// in\n    tag_382:\n        /* \"#utility.yul\":5408:5570   */\n      pop\n        /* \"#utility.yul\":5654:5658   */\n      0x20\n        /* \"#utility.yul\":5647:5652   */\n      dup4\n        /* \"#utility.yul\":5643:5659   */\n      add\n        /* \"#utility.yul\":5637:5660   */\n      mload\n        /* \"#utility.yul\":5673:5736   */\n      tag_383\n        /* \"#utility.yul\":5730:5734   */\n      0x20\n        /* \"#utility.yul\":5725:5728   */\n      dup7\n        /* \"#utility.yul\":5721:5735   */\n      add\n        /* \"#utility.yul\":5707:5719   */\n      dup3\n        /* \"#utility.yul\":5673:5736   */\n      tag_260\n      jump\t// in\n    tag_383:\n        /* \"#utility.yul\":5580:5746   */\n      pop\n        /* \"#utility.yul\":5831:5835   */\n      0x40\n        /* \"#utility.yul\":5824:5829   */\n      dup4\n        /* \"#utility.yul\":5820:5836   */\n      add\n        /* \"#utility.yul\":5814:5837   */\n      mload\n        /* \"#utility.yul\":5884:5887   */\n      dup5\n        /* \"#utility.yul\":5878:5882   */\n      dup3\n        /* \"#utility.yul\":5874:5888   */\n      sub\n        /* \"#utility.yul\":5867:5871   */\n      0x40\n        /* \"#utility.yul\":5862:5865   */\n      dup7\n        /* \"#utility.yul\":5858:5872   */\n      add\n        /* \"#utility.yul\":5851:5889   */\n      mstore\n        /* \"#utility.yul\":5910:5983   */\n      tag_384\n        /* \"#utility.yul\":5978:5982   */\n      dup3\n        /* \"#utility.yul\":5964:5976   */\n      dup3\n        /* \"#utility.yul\":5910:5983   */\n      tag_262\n      jump\t// in\n    tag_384:\n        /* \"#utility.yul\":5902:5983   */\n      swap2\n      pop\n        /* \"#utility.yul\":5756:5994   */\n      pop\n        /* \"#utility.yul\":6081:6085   */\n      0x60\n        /* \"#utility.yul\":6074:6079   */\n      dup4\n        /* \"#utility.yul\":6070:6086   */\n      add\n        /* \"#utility.yul\":6064:6087   */\n      mload\n        /* \"#utility.yul\":6100:6163   */\n      tag_385\n        /* \"#utility.yul\":6157:6161   */\n      0x60\n        /* \"#utility.yul\":6152:6155   */\n      dup7\n        /* \"#utility.yul\":6148:6162   */\n      add\n        /* \"#utility.yul\":6134:6146   */\n      dup3\n        /* \"#utility.yul\":6100:6163   */\n      tag_259\n      jump\t// in\n    tag_385:\n        /* \"#utility.yul\":6004:6173   */\n      pop\n        /* \"#utility.yul\":6256:6260   */\n      0x80\n        /* \"#utility.yul\":6249:6254   */\n      dup4\n        /* \"#utility.yul\":6245:6261   */\n      add\n        /* \"#utility.yul\":6239:6262   */\n      mload\n        /* \"#utility.yul\":6275:6338   */\n      tag_386\n        /* \"#utility.yul\":6332:6336   */\n      0x80\n        /* \"#utility.yul\":6327:6330   */\n      dup7\n        /* \"#utility.yul\":6323:6337   */\n      add\n        /* \"#utility.yul\":6309:6321   */\n      dup3\n        /* \"#utility.yul\":6275:6338   */\n      tag_259\n      jump\t// in\n    tag_386:\n        /* \"#utility.yul\":6183:6348   */\n      pop\n        /* \"#utility.yul\":6365:6369   */\n      dup1\n        /* \"#utility.yul\":6358:6369   */\n      swap2\n      pop\n        /* \"#utility.yul\":5362:6375   */\n      pop\n        /* \"#utility.yul\":5256:6375   */\n      swap3\n      swap2\n      pop\n      pop\n      jump\t// out\n        /* \"#utility.yul\":6381:6621   */\n    tag_264:\n        /* \"#utility.yul\":6492:6502   */\n      0x00\n        /* \"#utility.yul\":6527:6615   */\n      tag_388\n        /* \"#utility.yul\":6611:6614   */\n      dup4\n        /* \"#utility.yul\":6603:6609   */\n      dup4\n        /* \"#utility.yul\":6527:6615   */\n      tag_263\n      jump\t// in\n    tag_388:\n        /* \"#utility.yul\":6513:6615   */\n      swap1\n      pop\n        /* \"#utility.yul\":6381:6621   */\n      swap3\n      swap2\n      pop\n      pop\n      jump\t// out\n        /* \"#utility.yul\":6627:6761   */\n    tag_265:\n        /* \"#utility.yul\":6718:6722   */\n      0x00\n        /* \"#utility.yul\":6750:6754   */\n      0x20\n        /* \"#utility.yul\":6745:6748   */\n      dup3\n        /* \"#utility.yul\":6741:6755   */\n      add\n        /* \"#utility.yul\":6733:6755   */\n      swap1\n      pop\n        /* \"#utility.yul\":6627:6761   */\n      swap2\n      swap1\n      pop\n      jump\t// out\n        /* \"#utility.yul\":6823:7902   */\n    tag_266:\n        /* \"#utility.yul\":6984:6987   */\n      0x00\n        /* \"#utility.yul\":7013:7088   */\n      tag_391\n        /* \"#utility.yul\":7082:7087   */\n      dup3\n        /* \"#utility.yul\":7013:7088   */\n      tag_256\n      jump\t// in\n    tag_391:\n        /* \"#utility.yul\":7104:7211   */\n      tag_392\n        /* \"#utility.yul\":7204:7210   */\n      dup2\n        /* \"#utility.yul\":7199:7202   */\n      dup6\n        /* \"#utility.yul\":7104:7211   */\n      tag_257\n      jump\t// in\n    tag_392:\n        /* \"#utility.yul\":7097:7211   */\n      swap4\n      pop\n        /* \"#utility.yul\":7237:7240   */\n      dup4\n        /* \"#utility.yul\":7282:7286   */\n      0x20\n        /* \"#utility.yul\":7274:7280   */\n      dup3\n        /* \"#utility.yul\":7270:7287   */\n      mul\n        /* \"#utility.yul\":7265:7268   */\n      dup6\n        /* \"#utility.yul\":7261:7288   */\n      add\n        /* \"#utility.yul\":7312:7389   */\n      tag_393\n        /* \"#utility.yul\":7383:7388   */\n      dup6\n        /* \"#utility.yul\":7312:7389   */\n      tag_258\n      jump\t// in\n    tag_393:\n        /* \"#utility.yul\":7412:7419   */\n      dup1\n        /* \"#utility.yul\":7443:7444   */\n      0x00\n        /* \"#utility.yul\":7428:7857   */\n    tag_394:\n        /* \"#utility.yul\":7453:7459   */\n      dup6\n        /* \"#utility.yul\":7450:7451   */\n      dup2\n        /* \"#utility.yul\":7447:7460   */\n      lt\n        /* \"#utility.yul\":7428:7857   */\n      iszero\n      tag_396\n      jumpi\n        /* \"#utility.yul\":7524:7533   */\n      dup5\n        /* \"#utility.yul\":7518:7522   */\n      dup5\n        /* \"#utility.yul\":7514:7534   */\n      sub\n        /* \"#utility.yul\":7509:7512   */\n      dup10\n        /* \"#utility.yul\":7502:7535   */\n      mstore\n        /* \"#utility.yul\":7575:7581   */\n      dup2\n        /* \"#utility.yul\":7569:7582   */\n      mload\n        /* \"#utility.yul\":7603:7709   */\n      tag_397\n        /* \"#utility.yul\":7704:7708   */\n      dup6\n        /* \"#utility.yul\":7689:7702   */\n      dup3\n        /* \"#utility.yul\":7603:7709   */\n      tag_264\n      jump\t// in\n    tag_397:\n        /* \"#utility.yul\":7595:7709   */\n      swap5\n      pop\n        /* \"#utility.yul\":7732:7813   */\n      tag_398\n        /* \"#utility.yul\":7806:7812   */\n      dup4\n        /* \"#utility.yul\":7732:7813   */\n      tag_265\n      jump\t// in\n    tag_398:\n        /* \"#utility.yul\":7722:7813   */\n      swap3\n      pop\n        /* \"#utility.yul\":7842:7846   */\n      0x20\n        /* \"#utility.yul\":7837:7840   */\n      dup11\n        /* \"#utility.yul\":7833:7847   */\n      add\n        /* \"#utility.yul\":7826:7847   */\n      swap10\n      pop\n        /* \"#utility.yul\":7488:7857   */\n      pop\n        /* \"#utility.yul\":7475:7476   */\n      0x01\n        /* \"#utility.yul\":7472:7473   */\n      dup2\n        /* \"#utility.yul\":7468:7477   */\n      add\n        /* \"#utility.yul\":7463:7477   */\n      swap1\n      pop\n        /* \"#utility.yul\":7428:7857   */\n      jump(tag_394)\n    tag_396:\n        /* \"#utility.yul\":7432:7446   */\n      pop\n        /* \"#utility.yul\":7873:7877   */\n      dup3\n        /* \"#utility.yul\":7866:7877   */\n      swap8\n      pop\n        /* \"#utility.yul\":7893:7896   */\n      dup8\n        /* \"#utility.yul\":7886:7896   */\n      swap6\n      pop\n        /* \"#utility.yul\":6989:7902   */\n      pop\n      pop\n      pop\n      pop\n      pop\n        /* \"#utility.yul\":6823:7902   */\n      swap3\n      swap2\n      pop\n      pop\n      jump\t// out\n        /* \"#utility.yul\":7908:8365   */\n    tag_34:\n        /* \"#utility.yul\":8093:8097   */\n      0x00\n        /* \"#utility.yul\":8131:8133   */\n      0x20\n        /* \"#utility.yul\":8120:8129   */\n      dup3\n        /* \"#utility.yul\":8116:8134   */\n      add\n        /* \"#utility.yul\":8108:8134   */\n      swap1\n      pop\n        /* \"#utility.yul\":8180:8189   */\n      dup2\n        /* \"#utility.yul\":8174:8178   */\n      dup2\n        /* \"#utility.yul\":8170:8190   */\n      sub\n        /* \"#utility.yul\":8166:8167   */\n      0x00\n        /* \"#utility.yul\":8155:8164   */\n      dup4\n        /* \"#utility.yul\":8151:8168   */\n      add\n        /* \"#utility.yul\":8144:8191   */\n      mstore\n        /* \"#utility.yul\":8208:8358   */\n      tag_400\n        /* \"#utility.yul\":8353:8357   */\n      dup2\n        /* \"#utility.yul\":8344:8350   */\n      dup5\n        /* \"#utility.yul\":8208:8358   */\n      tag_266\n      jump\t// in\n    tag_400:\n        /* \"#utility.yul\":8200:8358   */\n      swap1\n      pop\n        /* \"#utility.yul\":7908:8365   */\n      swap3\n      swap2\n      pop\n      pop\n      jump\t// out\n        /* \"#utility.yul\":8371:8460   */\n    tag_267:\n        /* \"#utility.yul\":8407:8414   */\n      0x00\n        /* \"#utility.yul\":8447:8453   */\n      0xffff\n        /* \"#utility.yul\":8440:8445   */\n      dup3\n        /* \"#utility.yul\":8436:8454   */\n      and\n        /* \"#utility.yul\":8425:8454   */\n      swap1\n      pop\n        /* \"#utility.yul\":8371:8460   */\n      swap2\n      swap1\n      pop\n      jump\t// out\n        /* \"#utility.yul\":8466:8586   */\n    tag_268:\n        /* \"#utility.yul\":8538:8561   */\n      tag_403\n        /* \"#utility.yul\":8555:8560   */\n      dup2\n        /* \"#utility.yul\":8538:8561   */\n      tag_267\n      jump\t// in\n    tag_403:\n        /* \"#utility.yul\":8531:8536   */\n      dup2\n        /* \"#utility.yul\":8528:8562   */\n      eq\n        /* \"#utility.yul\":8518:8580   */\n      tag_404\n      jumpi\n        /* \"#utility.yul\":8576:8577   */\n      0x00\n        /* \"#utility.yul\":8573:8574   */\n      dup1\n        /* \"#utility.yul\":8566:8578   */\n      revert\n        /* \"#utility.yul\":8518:8580   */\n    tag_404:\n        /* \"#utility.yul\":8466:8586   */\n      pop\n      jump\t// out\n        /* \"#utility.yul\":8592:8729   */\n    tag_269:\n        /* \"#utility.yul\":8637:8642   */\n      0x00\n        /* \"#utility.yul\":8675:8681   */\n      dup2\n        /* \"#utility.yul\":8662:8682   */\n      calldataload\n        /* \"#utility.yul\":8653:8682   */\n      swap1\n      pop\n        /* \"#utility.yul\":8691:8723   */\n      tag_406\n        /* \"#utility.yul\":8717:8722   */\n      dup2\n        /* \"#utility.yul\":8691:8723   */\n      tag_268\n      jump\t// in\n    tag_406:\n        /* \"#utility.yul\":8592:8729   */\n      swap3\n      swap2\n      pop\n      pop\n      jump\t// out\n        /* \"#utility.yul\":8735:9062   */\n    tag_40:\n        /* \"#utility.yul\":8793:8799   */\n      0x00\n        /* \"#utility.yul\":8842:8844   */\n      0x20\n        /* \"#utility.yul\":8830:8839   */\n      dup3\n        /* \"#utility.yul\":8821:8828   */\n      dup5\n        /* \"#utility.yul\":8817:8840   */\n      sub\n        /* \"#utility.yul\":8813:8845   */\n      slt\n        /* \"#utility.yul\":8810:8929   */\n      iszero\n      tag_408\n      jumpi\n        /* \"#utility.yul\":8848:8927   */\n      tag_409\n      tag_240\n      jump\t// in\n    tag_409:\n        /* \"#utility.yul\":8810:8929   */\n    tag_408:\n        /* \"#utility.yul\":8968:8969   */\n      0x00\n        /* \"#utility.yul\":8993:9045   */\n      tag_410\n        /* \"#utility.yul\":9037:9044   */\n      dup5\n        /* \"#utility.yul\":9028:9034   */\n      dup3\n        /* \"#utility.yul\":9017:9026   */\n      dup6\n        /* \"#utility.yul\":9013:9035   */\n      add\n        /* \"#utility.yul\":8993:9045   */\n      tag_269\n      jump\t// in\n    tag_410:\n        /* \"#utility.yul\":8983:9045   */\n      swap2\n      pop\n        /* \"#utility.yul\":8939:9055   */\n      pop\n        /* \"#utility.yul\":8735:9062   */\n      swap3\n      swap2\n      pop\n      pop\n      jump\t// out\n        /* \"#utility.yul\":9068:9290   */\n    tag_45:\n        /* \"#utility.yul\":9161:9165   */\n      0x00\n        /* \"#utility.yul\":9199:9201   */\n      0x20\n        /* \"#utility.yul\":9188:9197   */\n      dup3\n        /* \"#utility.yul\":9184:9202   */\n      add\n        /* \"#utility.yul\":9176:9202   */\n      swap1\n      pop\n        /* \"#utility.yul\":9212:9283   */\n      tag_412\n        /* \"#utility.yul\":9280:9281   */\n      0x00\n        /* \"#utility.yul\":9269:9278   */\n      dup4\n        /* \"#utility.yul\":9265:9282   */\n      add\n        /* \"#utility.yul\":9256:9262   */\n      dup5\n        /* \"#utility.yul\":9212:9283   */\n      tag_249\n      jump\t// in\n    tag_412:\n        /* \"#utility.yul\":9068:9290   */\n      swap3\n      swap2\n      pop\n      pop\n      jump\t// out\n        /* \"#utility.yul\":9296:9411   */\n    tag_270:\n        /* \"#utility.yul\":9381:9404   */\n      tag_414\n        /* \"#utility.yul\":9398:9403   */\n      dup2\n        /* \"#utility.yul\":9381:9404   */\n      tag_267\n      jump\t// in\n    tag_414:\n        /* \"#utility.yul\":9376:9379   */\n      dup3\n        /* \"#utility.yul\":9369:9405   */\n      mstore\n        /* \"#utility.yul\":9296:9411   */\n      pop\n      pop\n      jump\t// out\n        /* \"#utility.yul\":9417:9635   */\n    tag_49:\n        /* \"#utility.yul\":9508:9512   */\n      0x00\n        /* \"#utility.yul\":9546:9548   */\n      0x20\n        /* \"#utility.yul\":9535:9544   */\n      dup3\n        /* \"#utility.yul\":9531:9549   */\n      add\n        /* \"#utility.yul\":9523:9549   */\n      swap1\n      pop\n        /* \"#utility.yul\":9559:9628   */\n      tag_416\n        /* \"#utility.yul\":9625:9626   */\n      0x00\n        /* \"#utility.yul\":9614:9623   */\n      dup4\n        /* \"#utility.yul\":9610:9627   */\n      add\n        /* \"#utility.yul\":9601:9607   */\n      dup5\n        /* \"#utility.yul\":9559:9628   */\n      tag_270\n      jump\t// in\n    tag_416:\n        /* \"#utility.yul\":9417:9635   */\n      swap3\n      swap2\n      pop\n      pop\n      jump\t// out\n        /* \"#utility.yul\":9693:10822   */\n    tag_271:\n        /* \"#utility.yul\":9804:9807   */\n      0x00\n        /* \"#utility.yul\":9840:9844   */\n      0xa0\n        /* \"#utility.yul\":9835:9838   */\n      dup4\n        /* \"#utility.yul\":9831:9845   */\n      add\n        /* \"#utility.yul\":9925:9929   */\n      0x00\n        /* \"#utility.yul\":9918:9923   */\n      dup4\n        /* \"#utility.yul\":9914:9930   */\n      add\n        /* \"#utility.yul\":9908:9931   */\n      mload\n        /* \"#utility.yul\":9944:10007   */\n      tag_418\n        /* \"#utility.yul\":10001:10005   */\n      0x00\n        /* \"#utility.yul\":9996:9999   */\n      dup7\n        /* \"#utility.yul\":9992:10006   */\n      add\n        /* \"#utility.yul\":9978:9990   */\n      dup3\n        /* \"#utility.yul\":9944:10007   */\n      tag_259\n      jump\t// in\n    tag_418:\n        /* \"#utility.yul\":9855:10017   */\n      pop\n        /* \"#utility.yul\":10101:10105   */\n      0x20\n        /* \"#utility.yul\":10094:10099   */\n      dup4\n        /* \"#utility.yul\":10090:10106   */\n      add\n        /* \"#utility.yul\":10084:10107   */\n      mload\n        /* \"#utility.yul\":10120:10183   */\n      tag_419\n        /* \"#utility.yul\":10177:10181   */\n      0x20\n        /* \"#utility.yul\":10172:10175   */\n      dup7\n        /* \"#utility.yul\":10168:10182   */\n      add\n        /* \"#utility.yul\":10154:10166   */\n      dup3\n        /* \"#utility.yul\":10120:10183   */\n      tag_260\n      jump\t// in\n    tag_419:\n        /* \"#utility.yul\":10027:10193   */\n      pop\n        /* \"#utility.yul\":10278:10282   */\n      0x40\n        /* \"#utility.yul\":10271:10276   */\n      dup4\n        /* \"#utility.yul\":10267:10283   */\n      add\n        /* \"#utility.yul\":10261:10284   */\n      mload\n        /* \"#utility.yul\":10331:10334   */\n      dup5\n        /* \"#utility.yul\":10325:10329   */\n      dup3\n        /* \"#utility.yul\":10321:10335   */\n      sub\n        /* \"#utility.yul\":10314:10318   */\n      0x40\n        /* \"#utility.yul\":10309:10312   */\n      dup7\n        /* \"#utility.yul\":10305:10319   */\n      add\n        /* \"#utility.yul\":10298:10336   */\n      mstore\n        /* \"#utility.yul\":10357:10430   */\n      tag_420\n        /* \"#utility.yul\":10425:10429   */\n      dup3\n        /* \"#utility.yul\":10411:10423   */\n      dup3\n        /* \"#utility.yul\":10357:10430   */\n      tag_262\n      jump\t// in\n    tag_420:\n        /* \"#utility.yul\":10349:10430   */\n      swap2\n      pop\n        /* \"#utility.yul\":10203:10441   */\n      pop\n        /* \"#utility.yul\":10528:10532   */\n      0x60\n        /* \"#utility.yul\":10521:10526   */\n      dup4\n        /* \"#utility.yul\":10517:10533   */\n      add\n        /* \"#utility.yul\":10511:10534   */\n      mload\n        /* \"#utility.yul\":10547:10610   */\n      tag_421\n        /* \"#utility.yul\":10604:10608   */\n      0x60\n        /* \"#utility.yul\":10599:10602   */\n      dup7\n        /* \"#utility.yul\":10595:10609   */\n      add\n        /* \"#utility.yul\":10581:10593   */\n      dup3\n        /* \"#utility.yul\":10547:10610   */\n      tag_259\n      jump\t// in\n    tag_421:\n        /* \"#utility.yul\":10451:10620   */\n      pop\n        /* \"#utility.yul\":10703:10707   */\n      0x80\n        /* \"#utility.yul\":10696:10701   */\n      dup4\n        /* \"#utility.yul\":10692:10708   */\n      add\n        /* \"#utility.yul\":10686:10709   */\n      mload\n        /* \"#utility.yul\":10722:10785   */\n      tag_422\n        /* \"#utility.yul\":10779:10783   */\n      0x80\n        /* \"#utility.yul\":10774:10777   */\n      dup7\n        /* \"#utility.yul\":10770:10784   */\n      add\n        /* \"#utility.yul\":10756:10768   */\n      dup3\n        /* \"#utility.yul\":10722:10785   */\n      tag_259\n      jump\t// in\n    tag_422:\n        /* \"#utility.yul\":10630:10795   */\n      pop\n        /* \"#utility.yul\":10812:10816   */\n      dup1\n        /* \"#utility.yul\":10805:10816   */\n      swap2\n      pop\n        /* \"#utility.yul\":9809:10822   */\n      pop\n        /* \"#utility.yul\":9693:10822   */\n      swap3\n      swap2\n      pop\n      pop\n      jump\t// out\n        /* \"#utility.yul\":10828:11185   */\n    tag_57:\n        /* \"#utility.yul\":10963:10967   */\n      0x00\n        /* \"#utility.yul\":11001:11003   */\n      0x20\n        /* \"#utility.yul\":10990:10999   */\n      dup3\n        /* \"#utility.yul\":10986:11004   */\n      add\n        /* \"#utility.yul\":10978:11004   */\n      swap1\n      pop\n        /* \"#utility.yul\":11050:11059   */\n      dup2\n        /* \"#utility.yul\":11044:11048   */\n      dup2\n        /* \"#utility.yul\":11040:11060   */\n      sub\n        /* \"#utility.yul\":11036:11037   */\n      0x00\n        /* \"#utility.yul\":11025:11034   */\n      dup4\n        /* \"#utility.yul\":11021:11038   */\n      add\n        /* \"#utility.yul\":11014:11061   */\n      mstore\n        /* \"#utility.yul\":11078:11178   */\n      tag_424\n        /* \"#utility.yul\":11173:11177   */\n      dup2\n        /* \"#utility.yul\":11164:11170   */\n      dup5\n        /* \"#utility.yul\":11078:11178   */\n      tag_271\n      jump\t// in\n    tag_424:\n        /* \"#utility.yul\":11070:11178   */\n      swap1\n      pop\n        /* \"#utility.yul\":10828:11185   */\n      swap3\n      swap2\n      pop\n      pop\n      jump\t// out\n        /* \"#utility.yul\":11191:11308   */\n    tag_272:\n        /* \"#utility.yul\":11300:11301   */\n      0x00\n        /* \"#utility.yul\":11297:11298   */\n      dup1\n        /* \"#utility.yul\":11290:11302   */\n      revert\n        /* \"#utility.yul\":11314:11431   */\n    tag_273:\n        /* \"#utility.yul\":11423:11424   */\n      0x00\n        /* \"#utility.yul\":11420:11421   */\n      dup1\n        /* \"#utility.yul\":11413:11425   */\n      revert\n        /* \"#utility.yul\":11437:11617   */\n    tag_274:\n        /* \"#utility.yul\":11485:11562   */\n      0x4e487b7100000000000000000000000000000000000000000000000000000000\n        /* \"#utility.yul\":11482:11483   */\n      0x00\n        /* \"#utility.yul\":11475:11563   */\n      mstore\n        /* \"#utility.yul\":11582:11586   */\n      0x41\n        /* \"#utility.yul\":11579:11580   */\n      0x04\n        /* \"#utility.yul\":11572:11587   */\n      mstore\n        /* \"#utility.yul\":11606:11610   */\n      0x24\n        /* \"#utility.yul\":11603:11604   */\n      0x00\n        /* \"#utility.yul\":11596:11611   */\n      revert\n        /* \"#utility.yul\":11623:11904   */\n    tag_275:\n        /* \"#utility.yul\":11706:11733   */\n      tag_429\n        /* \"#utility.yul\":11728:11732   */\n      dup3\n        /* \"#utility.yul\":11706:11733   */\n      tag_254\n      jump\t// in\n    tag_429:\n        /* \"#utility.yul\":11698:11704   */\n      dup2\n        /* \"#utility.yul\":11694:11734   */\n      add\n        /* \"#utility.yul\":11836:11842   */\n      dup2\n        /* \"#utility.yul\":11824:11834   */\n      dup2\n        /* \"#utility.yul\":11821:11843   */\n      lt\n        /* \"#utility.yul\":11800:11818   */\n      0xffffffffffffffff\n        /* \"#utility.yul\":11788:11798   */\n      dup3\n        /* \"#utility.yul\":11785:11819   */\n      gt\n        /* \"#utility.yul\":11782:11844   */\n      or\n        /* \"#utility.yul\":11779:11867   */\n      iszero\n      tag_430\n      jumpi\n        /* \"#utility.yul\":11847:11865   */\n      tag_431\n      tag_274\n      jump\t// in\n    tag_431:\n        /* \"#utility.yul\":11779:11867   */\n    tag_430:\n        /* \"#utility.yul\":11887:11897   */\n      dup1\n        /* \"#utility.yul\":11883:11885   */\n      0x40\n        /* \"#utility.yul\":11876:11898   */\n      mstore\n        /* \"#utility.yul\":11666:11904   */\n      pop\n        /* \"#utility.yul\":11623:11904   */\n      pop\n      pop\n      jump\t// out\n        /* \"#utility.yul\":11910:12039   */\n    tag_276:\n        /* \"#utility.yul\":11944:11950   */\n      0x00\n        /* \"#utility.yul\":11971:11991   */\n      tag_433\n      tag_239\n      jump\t// in\n    tag_433:\n        /* \"#utility.yul\":11961:11991   */\n      swap1\n      pop\n        /* \"#utility.yul\":12000:12033   */\n      tag_434\n        /* \"#utility.yul\":12028:12032   */\n      dup3\n        /* \"#utility.yul\":12020:12026   */\n      dup3\n        /* \"#utility.yul\":12000:12033   */\n      tag_275\n      jump\t// in\n    tag_434:\n        /* \"#utility.yul\":11910:12039   */\n      swap2\n      swap1\n      pop\n      jump\t// out\n        /* \"#utility.yul\":12045:12353   */\n    tag_277:\n        /* \"#utility.yul\":12107:12111   */\n      0x00\n        /* \"#utility.yul\":12197:12215   */\n      0xffffffffffffffff\n        /* \"#utility.yul\":12189:12195   */\n      dup3\n        /* \"#utility.yul\":12186:12216   */\n      gt\n        /* \"#utility.yul\":12183:12239   */\n      iszero\n      tag_436\n      jumpi\n        /* \"#utility.yul\":12219:12237   */\n      tag_437\n      tag_274\n      jump\t// in\n    tag_437:\n        /* \"#utility.yul\":12183:12239   */\n    tag_436:\n        /* \"#utility.yul\":12257:12286   */\n      tag_438\n        /* \"#utility.yul\":12279:12285   */\n      dup3\n        /* \"#utility.yul\":12257:12286   */\n      tag_254\n      jump\t// in\n    tag_438:\n        /* \"#utility.yul\":12249:12286   */\n      swap1\n      pop\n        /* \"#utility.yul\":12341:12345   */\n      0x20\n        /* \"#utility.yul\":12335:12339   */\n      dup2\n        /* \"#utility.yul\":12331:12346   */\n      add\n        /* \"#utility.yul\":12323:12346   */\n      swap1\n      pop\n        /* \"#utility.yul\":12045:12353   */\n      swap2\n      swap1\n      pop\n      jump\t// out\n        /* \"#utility.yul\":12359:12507   */\n    tag_278:\n        /* \"#utility.yul\":12457:12463   */\n      dup3\n        /* \"#utility.yul\":12452:12455   */\n      dup2\n        /* \"#utility.yul\":12447:12450   */\n      dup4\n        /* \"#utility.yul\":12434:12464   */\n      calldatacopy\n        /* \"#utility.yul\":12498:12499   */\n      0x00\n        /* \"#utility.yul\":12489:12495   */\n      dup4\n        /* \"#utility.yul\":12484:12487   */\n      dup4\n        /* \"#utility.yul\":12480:12496   */\n      add\n        /* \"#utility.yul\":12473:12500   */\n      mstore\n        /* \"#utility.yul\":12359:12507   */\n      pop\n      pop\n      pop\n      jump\t// out\n        /* \"#utility.yul\":12513:12938   */\n    tag_279:\n        /* \"#utility.yul\":12591:12596   */\n      0x00\n        /* \"#utility.yul\":12616:12682   */\n      tag_441\n        /* \"#utility.yul\":12632:12681   */\n      tag_442\n        /* \"#utility.yul\":12674:12680   */\n      dup5\n        /* \"#utility.yul\":12632:12681   */\n      tag_277\n      jump\t// in\n    tag_442:\n        /* \"#utility.yul\":12616:12682   */\n      tag_276\n      jump\t// in\n    tag_441:\n        /* \"#utility.yul\":12607:12682   */\n      swap1\n      pop\n        /* \"#utility.yul\":12705:12711   */\n      dup3\n        /* \"#utility.yul\":12698:12703   */\n      dup2\n        /* \"#utility.yul\":12691:12712   */\n      mstore\n        /* \"#utility.yul\":12743:12747   */\n      0x20\n        /* \"#utility.yul\":12736:12741   */\n      dup2\n        /* \"#utility.yul\":12732:12748   */\n      add\n        /* \"#utility.yul\":12781:12784   */\n      dup5\n        /* \"#utility.yul\":12772:12778   */\n      dup5\n        /* \"#utility.yul\":12767:12770   */\n      dup5\n        /* \"#utility.yul\":12763:12779   */\n      add\n        /* \"#utility.yul\":12760:12785   */\n      gt\n        /* \"#utility.yul\":12757:12869   */\n      iszero\n      tag_443\n      jumpi\n        /* \"#utility.yul\":12788:12867   */\n      tag_444\n      tag_273\n      jump\t// in\n    tag_444:\n        /* \"#utility.yul\":12757:12869   */\n    tag_443:\n        /* \"#utility.yul\":12878:12932   */\n      tag_445\n        /* \"#utility.yul\":12925:12931   */\n      dup5\n        /* \"#utility.yul\":12920:12923   */\n      dup3\n        /* \"#utility.yul\":12915:12918   */\n      dup6\n        /* \"#utility.yul\":12878:12932   */\n      tag_278\n      jump\t// in\n    tag_445:\n        /* \"#utility.yul\":12597:12938   */\n      pop\n        /* \"#utility.yul\":12513:12938   */\n      swap4\n      swap3\n      pop\n      pop\n      pop\n      jump\t// out\n        /* \"#utility.yul\":12958:13298   */\n    tag_280:\n        /* \"#utility.yul\":13014:13019   */\n      0x00\n        /* \"#utility.yul\":13063:13066   */\n      dup3\n        /* \"#utility.yul\":13056:13060   */\n      0x1f\n        /* \"#utility.yul\":13048:13054   */\n      dup4\n        /* \"#utility.yul\":13044:13061   */\n      add\n        /* \"#utility.yul\":13040:13067   */\n      slt\n        /* \"#utility.yul\":13030:13152   */\n      tag_447\n      jumpi\n        /* \"#utility.yul\":13071:13150   */\n      tag_448\n      tag_272\n      jump\t// in\n    tag_448:\n        /* \"#utility.yul\":13030:13152   */\n    tag_447:\n        /* \"#utility.yul\":13188:13194   */\n      dup2\n        /* \"#utility.yul\":13175:13195   */\n      calldataload\n        /* \"#utility.yul\":13213:13292   */\n      tag_449\n        /* \"#utility.yul\":13288:13291   */\n      dup5\n        /* \"#utility.yul\":13280:13286   */\n      dup3\n        /* \"#utility.yul\":13273:13277   */\n      0x20\n        /* \"#utility.yul\":13265:13271   */\n      dup7\n        /* \"#utility.yul\":13261:13278   */\n      add\n        /* \"#utility.yul\":13213:13292   */\n      tag_279\n      jump\t// in\n    tag_449:\n        /* \"#utility.yul\":13204:13292   */\n      swap2\n      pop\n        /* \"#utility.yul\":13020:13298   */\n      pop\n        /* \"#utility.yul\":12958:13298   */\n      swap3\n      swap2\n      pop\n      pop\n      jump\t// out\n        /* \"#utility.yul\":13304:13813   */\n    tag_60:\n        /* \"#utility.yul\":13373:13379   */\n      0x00\n        /* \"#utility.yul\":13422:13424   */\n      0x20\n        /* \"#utility.yul\":13410:13419   */\n      dup3\n        /* \"#utility.yul\":13401:13408   */\n      dup5\n        /* \"#utility.yul\":13397:13420   */\n      sub\n        /* \"#utility.yul\":13393:13425   */\n      slt\n        /* \"#utility.yul\":13390:13509   */\n      iszero\n      tag_451\n      jumpi\n        /* \"#utility.yul\":13428:13507   */\n      tag_452\n      tag_240\n      jump\t// in\n    tag_452:\n        /* \"#utility.yul\":13390:13509   */\n    tag_451:\n        /* \"#utility.yul\":13576:13577   */\n      0x00\n        /* \"#utility.yul\":13565:13574   */\n      dup3\n        /* \"#utility.yul\":13561:13578   */\n      add\n        /* \"#utility.yul\":13548:13579   */\n      calldataload\n        /* \"#utility.yul\":13606:13624   */\n      0xffffffffffffffff\n        /* \"#utility.yul\":13598:13604   */\n      dup2\n        /* \"#utility.yul\":13595:13625   */\n      gt\n        /* \"#utility.yul\":13592:13709   */\n      iszero\n      tag_453\n      jumpi\n        /* \"#utility.yul\":13628:13707   */\n      tag_454\n      tag_241\n      jump\t// in\n    tag_454:\n        /* \"#utility.yul\":13592:13709   */\n    tag_453:\n        /* \"#utility.yul\":13733:13796   */\n      tag_455\n        /* \"#utility.yul\":13788:13795   */\n      dup5\n        /* \"#utility.yul\":13779:13785   */\n      dup3\n        /* \"#utility.yul\":13768:13777   */\n      dup6\n        /* \"#utility.yul\":13764:13786   */\n      add\n        /* \"#utility.yul\":13733:13796   */\n      tag_280\n      jump\t// in\n    tag_455:\n        /* \"#utility.yul\":13723:13796   */\n      swap2\n      pop\n        /* \"#utility.yul\":13519:13806   */\n      pop\n        /* \"#utility.yul\":13304:13813   */\n      swap3\n      swap2\n      pop\n      pop\n      jump\t// out\n        /* \"#utility.yul\":13819:14041   */\n    tag_65:\n        /* \"#utility.yul\":13912:13916   */\n      0x00\n        /* \"#utility.yul\":13950:13952   */\n      0x20\n        /* \"#utility.yul\":13939:13948   */\n      dup3\n        /* \"#utility.yul\":13935:13953   */\n      add\n        /* \"#utility.yul\":13927:13953   */\n      swap1\n      pop\n        /* \"#utility.yul\":13963:14034   */\n      tag_457\n        /* \"#utility.yul\":14031:14032   */\n      0x00\n        /* \"#utility.yul\":14020:14029   */\n      dup4\n        /* \"#utility.yul\":14016:14033   */\n      add\n        /* \"#utility.yul\":14007:14013   */\n      dup5\n        /* \"#utility.yul\":13963:14034   */\n      tag_250\n      jump\t// in\n    tag_457:\n        /* \"#utility.yul\":13819:14041   */\n      swap3\n      swap2\n      pop\n      pop\n      jump\t// out\n        /* \"#utility.yul\":14047:14521   */\n    tag_72:\n        /* \"#utility.yul\":14115:14121   */\n      0x00\n        /* \"#utility.yul\":14123:14129   */\n      dup1\n        /* \"#utility.yul\":14172:14174   */\n      0x40\n        /* \"#utility.yul\":14160:14169   */\n      dup4\n        /* \"#utility.yul\":14151:14158   */\n      dup6\n        /* \"#utility.yul\":14147:14170   */\n      sub\n        /* \"#utility.yul\":14143:14175   */\n      slt\n        /* \"#utility.yul\":14140:14259   */\n      iszero\n      tag_459\n      jumpi\n        /* \"#utility.yul\":14178:14257   */\n      tag_460\n      tag_240\n      jump\t// in\n    tag_460:\n        /* \"#utility.yul\":14140:14259   */\n    tag_459:\n        /* \"#utility.yul\":14298:14299   */\n      0x00\n        /* \"#utility.yul\":14323:14376   */\n      tag_461\n        /* \"#utility.yul\":14368:14375   */\n      dup6\n        /* \"#utility.yul\":14359:14365   */\n      dup3\n        /* \"#utility.yul\":14348:14357   */\n      dup7\n        /* \"#utility.yul\":14344:14366   */\n      add\n        /* \"#utility.yul\":14323:14376   */\n      tag_245\n      jump\t// in\n    tag_461:\n        /* \"#utility.yul\":14313:14376   */\n      swap3\n      pop\n        /* \"#utility.yul\":14269:14386   */\n      pop\n        /* \"#utility.yul\":14425:14427   */\n      0x20\n        /* \"#utility.yul\":14451:14504   */\n      tag_462\n        /* \"#utility.yul\":14496:14503   */\n      dup6\n        /* \"#utility.yul\":14487:14493   */\n      dup3\n        /* \"#utility.yul\":14476:14485   */\n      dup7\n        /* \"#utility.yul\":14472:14494   */\n      add\n        /* \"#utility.yul\":14451:14504   */\n      tag_245\n      jump\t// in\n    tag_462:\n        /* \"#utility.yul\":14441:14504   */\n      swap2\n      pop\n        /* \"#utility.yul\":14396:14514   */\n      pop\n        /* \"#utility.yul\":14047:14521   */\n      swap3\n      pop\n      swap3\n      swap1\n      pop\n      jump\t// out\n        /* \"#utility.yul\":14527:14617   */\n    tag_281:\n        /* \"#utility.yul\":14561:14568   */\n      0x00\n        /* \"#utility.yul\":14604:14609   */\n      dup2\n        /* \"#utility.yul\":14597:14610   */\n      iszero\n        /* \"#utility.yul\":14590:14611   */\n      iszero\n        /* \"#utility.yul\":14579:14611   */\n      swap1\n      pop\n        /* \"#utility.yul\":14527:14617   */\n      swap2\n      swap1\n      pop\n      jump\t// out\n        /* \"#utility.yul\":14623:14732   */\n    tag_282:\n        /* \"#utility.yul\":14704:14725   */\n      tag_465\n        /* \"#utility.yul\":14719:14724   */\n      dup2\n        /* \"#utility.yul\":14704:14725   */\n      tag_281\n      jump\t// in\n    tag_465:\n        /* \"#utility.yul\":14699:14702   */\n      dup3\n        /* \"#utility.yul\":14692:14726   */\n      mstore\n        /* \"#utility.yul\":14623:14732   */\n      pop\n      pop\n      jump\t// out\n        /* \"#utility.yul\":14738:14948   */\n    tag_75:\n        /* \"#utility.yul\":14825:14829   */\n      0x00\n        /* \"#utility.yul\":14863:14865   */\n      0x20\n        /* \"#utility.yul\":14852:14861   */\n      dup3\n        /* \"#utility.yul\":14848:14866   */\n      add\n        /* \"#utility.yul\":14840:14866   */\n      swap1\n      pop\n        /* \"#utility.yul\":14876:14941   */\n      tag_467\n        /* \"#utility.yul\":14938:14939   */\n      0x00\n        /* \"#utility.yul\":14927:14936   */\n      dup4\n        /* \"#utility.yul\":14923:14940   */\n      add\n        /* \"#utility.yul\":14914:14920   */\n      dup5\n        /* \"#utility.yul\":14876:14941   */\n      tag_282\n      jump\t// in\n    tag_467:\n        /* \"#utility.yul\":14738:14948   */\n      swap3\n      swap2\n      pop\n      pop\n      jump\t// out\n        /* \"#utility.yul\":14954:15068   */\n    tag_283:\n        /* \"#utility.yul\":15021:15027   */\n      0x00\n        /* \"#utility.yul\":15055:15060   */\n      dup2\n        /* \"#utility.yul\":15049:15061   */\n      mload\n        /* \"#utility.yul\":15039:15061   */\n      swap1\n      pop\n        /* \"#utility.yul\":14954:15068   */\n      swap2\n      swap1\n      pop\n      jump\t// out\n        /* \"#utility.yul\":15074:15258   */\n    tag_284:\n        /* \"#utility.yul\":15173:15184   */\n      0x00\n        /* \"#utility.yul\":15207:15213   */\n      dup3\n        /* \"#utility.yul\":15202:15205   */\n      dup3\n        /* \"#utility.yul\":15195:15214   */\n      mstore\n        /* \"#utility.yul\":15247:15251   */\n      0x20\n        /* \"#utility.yul\":15242:15245   */\n      dup3\n        /* \"#utility.yul\":15238:15252   */\n      add\n        /* \"#utility.yul\":15223:15252   */\n      swap1\n      pop\n        /* \"#utility.yul\":15074:15258   */\n      swap3\n      swap2\n      pop\n      pop\n      jump\t// out\n        /* \"#utility.yul\":15264:15396   */\n    tag_285:\n        /* \"#utility.yul\":15331:15335   */\n      0x00\n        /* \"#utility.yul\":15354:15357   */\n      dup2\n        /* \"#utility.yul\":15346:15357   */\n      swap1\n      pop\n        /* \"#utility.yul\":15384:15388   */\n      0x20\n        /* \"#utility.yul\":15379:15382   */\n      dup3\n        /* \"#utility.yul\":15375:15389   */\n      add\n        /* \"#utility.yul\":15367:15389   */\n      swap1\n      pop\n        /* \"#utility.yul\":15264:15396   */\n      swap2\n      swap1\n      pop\n      jump\t// out\n        /* \"#utility.yul\":15402:15581   */\n    tag_286:\n        /* \"#utility.yul\":15471:15481   */\n      0x00\n        /* \"#utility.yul\":15492:15538   */\n      tag_472\n        /* \"#utility.yul\":15534:15537   */\n      dup4\n        /* \"#utility.yul\":15526:15532   */\n      dup4\n        /* \"#utility.yul\":15492:15538   */\n      tag_260\n      jump\t// in\n    tag_472:\n        /* \"#utility.yul\":15570:15574   */\n      0x20\n        /* \"#utility.yul\":15565:15568   */\n      dup4\n        /* \"#utility.yul\":15561:15575   */\n      add\n        /* \"#utility.yul\":15547:15575   */\n      swap1\n      pop\n        /* \"#utility.yul\":15402:15581   */\n      swap3\n      swap2\n      pop\n      pop\n      jump\t// out\n        /* \"#utility.yul\":15587:15700   */\n    tag_287:\n        /* \"#utility.yul\":15657:15661   */\n      0x00\n        /* \"#utility.yul\":15689:15693   */\n      0x20\n        /* \"#utility.yul\":15684:15687   */\n      dup3\n        /* \"#utility.yul\":15680:15694   */\n      add\n        /* \"#utility.yul\":15672:15694   */\n      swap1\n      pop\n        /* \"#utility.yul\":15587:15700   */\n      swap2\n      swap1\n      pop\n      jump\t// out\n        /* \"#utility.yul\":15736:16468   */\n    tag_288:\n        /* \"#utility.yul\":15855:15858   */\n      0x00\n        /* \"#utility.yul\":15884:15938   */\n      tag_475\n        /* \"#utility.yul\":15932:15937   */\n      dup3\n        /* \"#utility.yul\":15884:15938   */\n      tag_283\n      jump\t// in\n    tag_475:\n        /* \"#utility.yul\":15954:16040   */\n      tag_476\n        /* \"#utility.yul\":16033:16039   */\n      dup2\n        /* \"#utility.yul\":16028:16031   */\n      dup6\n        /* \"#utility.yul\":15954:16040   */\n      tag_284\n      jump\t// in\n    tag_476:\n        /* \"#utility.yul\":15947:16040   */\n      swap4\n      pop\n        /* \"#utility.yul\":16064:16120   */\n      tag_477\n        /* \"#utility.yul\":16114:16119   */\n      dup4\n        /* \"#utility.yul\":16064:16120   */\n      tag_285\n      jump\t// in\n    tag_477:\n        /* \"#utility.yul\":16143:16150   */\n      dup1\n        /* \"#utility.yul\":16174:16175   */\n      0x00\n        /* \"#utility.yul\":16159:16443   */\n    tag_478:\n        /* \"#utility.yul\":16184:16190   */\n      dup4\n        /* \"#utility.yul\":16181:16182   */\n      dup2\n        /* \"#utility.yul\":16178:16191   */\n      lt\n        /* \"#utility.yul\":16159:16443   */\n      iszero\n      tag_480\n      jumpi\n        /* \"#utility.yul\":16260:16266   */\n      dup2\n        /* \"#utility.yul\":16254:16267   */\n      mload\n        /* \"#utility.yul\":16287:16350   */\n      tag_481\n        /* \"#utility.yul\":16346:16349   */\n      dup9\n        /* \"#utility.yul\":16331:16344   */\n      dup3\n        /* \"#utility.yul\":16287:16350   */\n      tag_286\n      jump\t// in\n    tag_481:\n        /* \"#utility.yul\":16280:16350   */\n      swap8\n      pop\n        /* \"#utility.yul\":16373:16433   */\n      tag_482\n        /* \"#utility.yul\":16426:16432   */\n      dup4\n        /* \"#utility.yul\":16373:16433   */\n      tag_287\n      jump\t// in\n    tag_482:\n        /* \"#utility.yul\":16363:16433   */\n      swap3\n      pop\n        /* \"#utility.yul\":16219:16443   */\n      pop\n        /* \"#utility.yul\":16206:16207   */\n      0x01\n        /* \"#utility.yul\":16203:16204   */\n      dup2\n        /* \"#utility.yul\":16199:16208   */\n      add\n        /* \"#utility.yul\":16194:16208   */\n      swap1\n      pop\n        /* \"#utility.yul\":16159:16443   */\n      jump(tag_478)\n    tag_480:\n        /* \"#utility.yul\":16163:16177   */\n      pop\n        /* \"#utility.yul\":16459:16462   */\n      dup6\n        /* \"#utility.yul\":16452:16462   */\n      swap4\n      pop\n        /* \"#utility.yul\":15860:16468   */\n      pop\n      pop\n      pop\n        /* \"#utility.yul\":15736:16468   */\n      swap3\n      swap2\n      pop\n      pop\n      jump\t// out\n        /* \"#utility.yul\":16474:16847   */\n    tag_83:\n        /* \"#utility.yul\":16617:16621   */\n      0x00\n        /* \"#utility.yul\":16655:16657   */\n      0x20\n        /* \"#utility.yul\":16644:16653   */\n      dup3\n        /* \"#utility.yul\":16640:16658   */\n      add\n        /* \"#utility.yul\":16632:16658   */\n      swap1\n      pop\n        /* \"#utility.yul\":16704:16713   */\n      dup2\n        /* \"#utility.yul\":16698:16702   */\n      dup2\n        /* \"#utility.yul\":16694:16714   */\n      sub\n        /* \"#utility.yul\":16690:16691   */\n      0x00\n        /* \"#utility.yul\":16679:16688   */\n      dup4\n        /* \"#utility.yul\":16675:16692   */\n      add\n        /* \"#utility.yul\":16668:16715   */\n      mstore\n        /* \"#utility.yul\":16732:16840   */\n      tag_484\n        /* \"#utility.yul\":16835:16839   */\n      dup2\n        /* \"#utility.yul\":16826:16832   */\n      dup5\n        /* \"#utility.yul\":16732:16840   */\n      tag_288\n      jump\t// in\n    tag_484:\n        /* \"#utility.yul\":16724:16840   */\n      swap1\n      pop\n        /* \"#utility.yul\":16474:16847   */\n      swap3\n      swap2\n      pop\n      pop\n      jump\t// out\n        /* \"#utility.yul\":16853:17033   */\n    tag_289:\n        /* \"#utility.yul\":16901:16978   */\n      0x4e487b7100000000000000000000000000000000000000000000000000000000\n        /* \"#utility.yul\":16898:16899   */\n      0x00\n        /* \"#utility.yul\":16891:16979   */\n      mstore\n        /* \"#utility.yul\":16998:17002   */\n      0x22\n        /* \"#utility.yul\":16995:16996   */\n      0x04\n        /* \"#utility.yul\":16988:17003   */\n      mstore\n        /* \"#utility.yul\":17022:17026   */\n      0x24\n        /* \"#utility.yul\":17019:17020   */\n      0x00\n        /* \"#utility.yul\":17012:17027   */\n      revert\n        /* \"#utility.yul\":17039:17359   */\n    tag_98:\n        /* \"#utility.yul\":17083:17089   */\n      0x00\n        /* \"#utility.yul\":17120:17121   */\n      0x02\n        /* \"#utility.yul\":17114:17118   */\n      dup3\n        /* \"#utility.yul\":17110:17122   */\n      div\n        /* \"#utility.yul\":17100:17122   */\n      swap1\n      pop\n        /* \"#utility.yul\":17167:17168   */\n      0x01\n        /* \"#utility.yul\":17161:17165   */\n      dup3\n        /* \"#utility.yul\":17157:17169   */\n      and\n        /* \"#utility.yul\":17188:17206   */\n      dup1\n        /* \"#utility.yul\":17178:17259   */\n      tag_487\n      jumpi\n        /* \"#utility.yul\":17244:17248   */\n      0x7f\n        /* \"#utility.yul\":17236:17242   */\n      dup3\n        /* \"#utility.yul\":17232:17249   */\n      and\n        /* \"#utility.yul\":17222:17249   */\n      swap2\n      pop\n        /* \"#utility.yul\":17178:17259   */\n    tag_487:\n        /* \"#utility.yul\":17306:17308   */\n      0x20\n        /* \"#utility.yul\":17298:17304   */\n      dup3\n        /* \"#utility.yul\":17295:17309   */\n      lt\n        /* \"#utility.yul\":17275:17293   */\n      dup2\n        /* \"#utility.yul\":17272:17310   */\n      sub\n        /* \"#utility.yul\":17269:17353   */\n      tag_488\n      jumpi\n        /* \"#utility.yul\":17325:17343   */\n      tag_489\n      tag_289\n      jump\t// in\n    tag_489:\n        /* \"#utility.yul\":17269:17353   */\n    tag_488:\n        /* \"#utility.yul\":17090:17359   */\n      pop\n        /* \"#utility.yul\":17039:17359   */\n      swap2\n      swap1\n      pop\n      jump\t// out\n        /* \"#utility.yul\":17365:17545   */\n    tag_115:\n        /* \"#utility.yul\":17413:17490   */\n      0x4e487b7100000000000000000000000000000000000000000000000000000000\n        /* \"#utility.yul\":17410:17411   */\n      0x00\n        /* \"#utility.yul\":17403:17491   */\n      mstore\n        /* \"#utility.yul\":17510:17514   */\n      0x32\n        /* \"#utility.yul\":17507:17508   */\n      0x04\n        /* \"#utility.yul\":17500:17515   */\n      mstore\n        /* \"#utility.yul\":17534:17538   */\n      0x24\n        /* \"#utility.yul\":17531:17532   */\n      0x00\n        /* \"#utility.yul\":17524:17539   */\n      revert\n        /* \"#utility.yul\":17551:17720   */\n    tag_290:\n        /* \"#utility.yul\":17691:17712   */\n      0x545745455420444f45534e275420455849535400000000000000000000000000\n        /* \"#utility.yul\":17687:17688   */\n      0x00\n        /* \"#utility.yul\":17679:17685   */\n      dup3\n        /* \"#utility.yul\":17675:17689   */\n      add\n        /* \"#utility.yul\":17668:17713   */\n      mstore\n        /* \"#utility.yul\":17551:17720   */\n      pop\n      jump\t// out\n        /* \"#utility.yul\":17726:18092   */\n    tag_291:\n        /* \"#utility.yul\":17868:17871   */\n      0x00\n        /* \"#utility.yul\":17889:17956   */\n      tag_493\n        /* \"#utility.yul\":17953:17955   */\n      0x13\n        /* \"#utility.yul\":17948:17951   */\n      dup4\n        /* \"#utility.yul\":17889:17956   */\n      tag_252\n      jump\t// in\n    tag_493:\n        /* \"#utility.yul\":17882:17956   */\n      swap2\n      pop\n        /* \"#utility.yul\":17965:18058   */\n      tag_494\n        /* \"#utility.yul\":18054:18057   */\n      dup3\n        /* \"#utility.yul\":17965:18058   */\n      tag_290\n      jump\t// in\n    tag_494:\n        /* \"#utility.yul\":18083:18085   */\n      0x20\n        /* \"#utility.yul\":18078:18081   */\n      dup3\n        /* \"#utility.yul\":18074:18086   */\n      add\n        /* \"#utility.yul\":18067:18086   */\n      swap1\n      pop\n        /* \"#utility.yul\":17726:18092   */\n      swap2\n      swap1\n      pop\n      jump\t// out\n        /* \"#utility.yul\":18098:18517   */\n    tag_119:\n        /* \"#utility.yul\":18264:18268   */\n      0x00\n        /* \"#utility.yul\":18302:18304   */\n      0x20\n        /* \"#utility.yul\":18291:18300   */\n      dup3\n        /* \"#utility.yul\":18287:18305   */\n      add\n        /* \"#utility.yul\":18279:18305   */\n      swap1\n      pop\n        /* \"#utility.yul\":18351:18360   */\n      dup2\n        /* \"#utility.yul\":18345:18349   */\n      dup2\n        /* \"#utility.yul\":18341:18361   */\n      sub\n        /* \"#utility.yul\":18337:18338   */\n      0x00\n        /* \"#utility.yul\":18326:18335   */\n      dup4\n        /* \"#utility.yul\":18322:18339   */\n      add\n        /* \"#utility.yul\":18315:18362   */\n      mstore\n        /* \"#utility.yul\":18379:18510   */\n      tag_496\n        /* \"#utility.yul\":18505:18509   */\n      dup2\n        /* \"#utility.yul\":18379:18510   */\n      tag_291\n      jump\t// in\n    tag_496:\n        /* \"#utility.yul\":18371:18510   */\n      swap1\n      pop\n        /* \"#utility.yul\":18098:18517   */\n      swap2\n      swap1\n      pop\n      jump\t// out\n        /* \"#utility.yul\":18523:18691   */\n    tag_292:\n        /* \"#utility.yul\":18663:18683   */\n      0x544845524520415245204e4f204c494b45530000000000000000000000000000\n        /* \"#utility.yul\":18659:18660   */\n      0x00\n        /* \"#utility.yul\":18651:18657   */\n      dup3\n        /* \"#utility.yul\":18647:18661   */\n      add\n        /* \"#utility.yul\":18640:18684   */\n      mstore\n        /* \"#utility.yul\":18523:18691   */\n      pop\n      jump\t// out\n        /* \"#utility.yul\":18697:19063   */\n    tag_293:\n        /* \"#utility.yul\":18839:18842   */\n      0x00\n        /* \"#utility.yul\":18860:18927   */\n      tag_499\n        /* \"#utility.yul\":18924:18926   */\n      0x12\n        /* \"#utility.yul\":18919:18922   */\n      dup4\n        /* \"#utility.yul\":18860:18927   */\n      tag_252\n      jump\t// in\n    tag_499:\n        /* \"#utility.yul\":18853:18927   */\n      swap2\n      pop\n        /* \"#utility.yul\":18936:19029   */\n      tag_500\n        /* \"#utility.yul\":19025:19028   */\n      dup3\n        /* \"#utility.yul\":18936:19029   */\n      tag_292\n      jump\t// in\n    tag_500:\n        /* \"#utility.yul\":19054:19056   */\n      0x20\n        /* \"#utility.yul\":19049:19052   */\n      dup3\n        /* \"#utility.yul\":19045:19057   */\n      add\n        /* \"#utility.yul\":19038:19057   */\n      swap1\n      pop\n        /* \"#utility.yul\":18697:19063   */\n      swap2\n      swap1\n      pop\n      jump\t// out\n        /* \"#utility.yul\":19069:19488   */\n    tag_125:\n        /* \"#utility.yul\":19235:19239   */\n      0x00\n        /* \"#utility.yul\":19273:19275   */\n      0x20\n        /* \"#utility.yul\":19262:19271   */\n      dup3\n        /* \"#utility.yul\":19258:19276   */\n      add\n        /* \"#utility.yul\":19250:19276   */\n      swap1\n      pop\n        /* \"#utility.yul\":19322:19331   */\n      dup2\n        /* \"#utility.yul\":19316:19320   */\n      dup2\n        /* \"#utility.yul\":19312:19332   */\n      sub\n        /* \"#utility.yul\":19308:19309   */\n      0x00\n        /* \"#utility.yul\":19297:19306   */\n      dup4\n        /* \"#utility.yul\":19293:19310   */\n      add\n        /* \"#utility.yul\":19286:19333   */\n      mstore\n        /* \"#utility.yul\":19350:19481   */\n      tag_502\n        /* \"#utility.yul\":19476:19480   */\n      dup2\n        /* \"#utility.yul\":19350:19481   */\n      tag_293\n      jump\t// in\n    tag_502:\n        /* \"#utility.yul\":19342:19481   */\n      swap1\n      pop\n        /* \"#utility.yul\":19069:19488   */\n      swap2\n      swap1\n      pop\n      jump\t// out\n        /* \"#utility.yul\":19494:19674   */\n    tag_294:\n        /* \"#utility.yul\":19542:19619   */\n      0x4e487b7100000000000000000000000000000000000000000000000000000000\n        /* \"#utility.yul\":19539:19540   */\n      0x00\n        /* \"#utility.yul\":19532:19620   */\n      mstore\n        /* \"#utility.yul\":19639:19643   */\n      0x11\n        /* \"#utility.yul\":19636:19637   */\n      0x04\n        /* \"#utility.yul\":19629:19644   */\n      mstore\n        /* \"#utility.yul\":19663:19667   */\n      0x24\n        /* \"#utility.yul\":19660:19661   */\n      0x00\n        /* \"#utility.yul\":19653:19668   */\n      revert\n        /* \"#utility.yul\":19680:19851   */\n    tag_130:\n        /* \"#utility.yul\":19719:19722   */\n      0x00\n        /* \"#utility.yul\":19742:19766   */\n      tag_505\n        /* \"#utility.yul\":19760:19765   */\n      dup3\n        /* \"#utility.yul\":19742:19766   */\n      tag_246\n      jump\t// in\n    tag_505:\n        /* \"#utility.yul\":19733:19766   */\n      swap2\n      pop\n        /* \"#utility.yul\":19788:19792   */\n      0x00\n        /* \"#utility.yul\":19781:19786   */\n      dup3\n        /* \"#utility.yul\":19778:19793   */\n      sub\n        /* \"#utility.yul\":19775:19816   */\n      tag_506\n      jumpi\n        /* \"#utility.yul\":19796:19814   */\n      tag_507\n      tag_294\n      jump\t// in\n    tag_507:\n        /* \"#utility.yul\":19775:19816   */\n    tag_506:\n        /* \"#utility.yul\":19843:19844   */\n      0x01\n        /* \"#utility.yul\":19836:19841   */\n      dup3\n        /* \"#utility.yul\":19832:19845   */\n      sub\n        /* \"#utility.yul\":19825:19845   */\n      swap1\n      pop\n        /* \"#utility.yul\":19680:19851   */\n      swap2\n      swap1\n      pop\n      jump\t// out\n        /* \"#utility.yul\":19857:20027   */\n    tag_295:\n        /* \"#utility.yul\":19997:20019   */\n      0x594f55275245204e4f5420544845204f574e4552000000000000000000000000\n        /* \"#utility.yul\":19993:19994   */\n      0x00\n        /* \"#utility.yul\":19985:19991   */\n      dup3\n        /* \"#utility.yul\":19981:19995   */\n      add\n        /* \"#utility.yul\":19974:20020   */\n      mstore\n        /* \"#utility.yul\":19857:20027   */\n      pop\n      jump\t// out\n        /* \"#utility.yul\":20033:20399   */\n    tag_296:\n        /* \"#utility.yul\":20175:20178   */\n      0x00\n        /* \"#utility.yul\":20196:20263   */\n      tag_510\n        /* \"#utility.yul\":20260:20262   */\n      0x14\n        /* \"#utility.yul\":20255:20258   */\n      dup4\n        /* \"#utility.yul\":20196:20263   */\n      tag_252\n      jump\t// in\n    tag_510:\n        /* \"#utility.yul\":20189:20263   */\n      swap2\n      pop\n        /* \"#utility.yul\":20272:20365   */\n      tag_511\n        /* \"#utility.yul\":20361:20364   */\n      dup3\n        /* \"#utility.yul\":20272:20365   */\n      tag_295\n      jump\t// in\n    tag_511:\n        /* \"#utility.yul\":20390:20392   */\n      0x20\n        /* \"#utility.yul\":20385:20388   */\n      dup3\n        /* \"#utility.yul\":20381:20393   */\n      add\n        /* \"#utility.yul\":20374:20393   */\n      swap1\n      pop\n        /* \"#utility.yul\":20033:20399   */\n      swap2\n      swap1\n      pop\n      jump\t// out\n        /* \"#utility.yul\":20405:20824   */\n    tag_138:\n        /* \"#utility.yul\":20571:20575   */\n      0x00\n        /* \"#utility.yul\":20609:20611   */\n      0x20\n        /* \"#utility.yul\":20598:20607   */\n      dup3\n        /* \"#utility.yul\":20594:20612   */\n      add\n        /* \"#utility.yul\":20586:20612   */\n      swap1\n      pop\n        /* \"#utility.yul\":20658:20667   */\n      dup2\n        /* \"#utility.yul\":20652:20656   */\n      dup2\n        /* \"#utility.yul\":20648:20668   */\n      sub\n        /* \"#utility.yul\":20644:20645   */\n      0x00\n        /* \"#utility.yul\":20633:20642   */\n      dup4\n        /* \"#utility.yul\":20629:20646   */\n      add\n        /* \"#utility.yul\":20622:20669   */\n      mstore\n        /* \"#utility.yul\":20686:20817   */\n      tag_513\n        /* \"#utility.yul\":20812:20816   */\n      dup2\n        /* \"#utility.yul\":20686:20817   */\n      tag_296\n      jump\t// in\n    tag_513:\n        /* \"#utility.yul\":20678:20817   */\n      swap1\n      pop\n        /* \"#utility.yul\":20405:20824   */\n      swap2\n      swap1\n      pop\n      jump\t// out\n        /* \"#utility.yul\":20830:21063   */\n    tag_152:\n        /* \"#utility.yul\":20869:20872   */\n      0x00\n        /* \"#utility.yul\":20892:20916   */\n      tag_515\n        /* \"#utility.yul\":20910:20915   */\n      dup3\n        /* \"#utility.yul\":20892:20916   */\n      tag_246\n      jump\t// in\n    tag_515:\n        /* \"#utility.yul\":20883:20916   */\n      swap2\n      pop\n        /* \"#utility.yul\":20938:21004   */\n      0xffffffffffffffffffffffffffffffffffffffffffffffffffffffffffffffff\n        /* \"#utility.yul\":20931:20936   */\n      dup3\n        /* \"#utility.yul\":20928:21005   */\n      sub\n        /* \"#utility.yul\":20925:21028   */\n      tag_516\n      jumpi\n        /* \"#utility.yul\":21008:21026   */\n      tag_517\n      tag_294\n      jump\t// in\n    tag_517:\n        /* \"#utility.yul\":20925:21028   */\n    tag_516:\n        /* \"#utility.yul\":21055:21056   */\n      0x01\n        /* \"#utility.yul\":21048:21053   */\n      dup3\n        /* \"#utility.yul\":21044:21057   */\n      add\n        /* \"#utility.yul\":21037:21057   */\n      swap1\n      pop\n        /* \"#utility.yul\":20830:21063   */\n      swap2\n      swap1\n      pop\n      jump\t// out\n        /* \"#utility.yul\":21069:21290   */\n    tag_297:\n        /* \"#utility.yul\":21209:21243   */\n      0x4e4f20434f4e54454e542c20504c4541534520575249544520534f4d45544849\n        /* \"#utility.yul\":21205:21206   */\n      0x00\n        /* \"#utility.yul\":21197:21203   */\n      dup3\n        /* \"#utility.yul\":21193:21207   */\n      add\n        /* \"#utility.yul\":21186:21244   */\n      mstore\n        /* \"#utility.yul\":21278:21282   */\n      0x4e47000000000000000000000000000000000000000000000000000000000000\n        /* \"#utility.yul\":21273:21275   */\n      0x20\n        /* \"#utility.yul\":21265:21271   */\n      dup3\n        /* \"#utility.yul\":21261:21276   */\n      add\n        /* \"#utility.yul\":21254:21283   */\n      mstore\n        /* \"#utility.yul\":21069:21290   */\n      pop\n      jump\t// out\n        /* \"#utility.yul\":21296:21662   */\n    tag_298:\n        /* \"#utility.yul\":21438:21441   */\n      0x00\n        /* \"#utility.yul\":21459:21526   */\n      tag_520\n        /* \"#utility.yul\":21523:21525   */\n      0x22\n        /* \"#utility.yul\":21518:21521   */\n      dup4\n        /* \"#utility.yul\":21459:21526   */\n      tag_252\n      jump\t// in\n    tag_520:\n        /* \"#utility.yul\":21452:21526   */\n      swap2\n      pop\n        /* \"#utility.yul\":21535:21628   */\n      tag_521\n        /* \"#utility.yul\":21624:21627   */\n      dup3\n        /* \"#utility.yul\":21535:21628   */\n      tag_297\n      jump\t// in\n    tag_521:\n        /* \"#utility.yul\":21653:21655   */\n      0x40\n        /* \"#utility.yul\":21648:21651   */\n      dup3\n        /* \"#utility.yul\":21644:21656   */\n      add\n        /* \"#utility.yul\":21637:21656   */\n      swap1\n      pop\n        /* \"#utility.yul\":21296:21662   */\n      swap2\n      swap1\n      pop\n      jump\t// out\n        /* \"#utility.yul\":21668:22087   */\n    tag_171:\n        /* \"#utility.yul\":21834:21838   */\n      0x00\n        /* \"#utility.yul\":21872:21874   */\n      0x20\n        /* \"#utility.yul\":21861:21870   */\n      dup3\n        /* \"#utility.yul\":21857:21875   */\n      add\n        /* \"#utility.yul\":21849:21875   */\n      swap1\n      pop\n        /* \"#utility.yul\":21921:21930   */\n      dup2\n        /* \"#utility.yul\":21915:21919   */\n      dup2\n        /* \"#utility.yul\":21911:21931   */\n      sub\n        /* \"#utility.yul\":21907:21908   */\n      0x00\n        /* \"#utility.yul\":21896:21905   */\n      dup4\n        /* \"#utility.yul\":21892:21909   */\n      add\n        /* \"#utility.yul\":21885:21932   */\n      mstore\n        /* \"#utility.yul\":21949:22080   */\n      tag_523\n        /* \"#utility.yul\":22075:22079   */\n      dup2\n        /* \"#utility.yul\":21949:22080   */\n      tag_298\n      jump\t// in\n    tag_523:\n        /* \"#utility.yul\":21941:22080   */\n      swap1\n      pop\n        /* \"#utility.yul\":21668:22087   */\n      swap2\n      swap1\n      pop\n      jump\t// out\n        /* \"#utility.yul\":22093:22269   */\n    tag_299:\n        /* \"#utility.yul\":22233:22261   */\n      0x544845204d4158494d554d205457454554532052454143484544000000000000\n        /* \"#utility.yul\":22229:22230   */\n      0x00\n        /* \"#utility.yul\":22221:22227   */\n      dup3\n        /* \"#utility.yul\":22217:22231   */\n      add\n        /* \"#utility.yul\":22210:22262   */\n      mstore\n        /* \"#utility.yul\":22093:22269   */\n      pop\n      jump\t// out\n        /* \"#utility.yul\":22275:22641   */\n    tag_300:\n        /* \"#utility.yul\":22417:22420   */\n      0x00\n        /* \"#utility.yul\":22438:22505   */\n      tag_526\n        /* \"#utility.yul\":22502:22504   */\n      0x1a\n        /* \"#utility.yul\":22497:22500   */\n      dup4\n        /* \"#utility.yul\":22438:22505   */\n      tag_252\n      jump\t// in\n    tag_526:\n        /* \"#utility.yul\":22431:22505   */\n      swap2\n      pop\n        /* \"#utility.yul\":22514:22607   */\n      tag_527\n        /* \"#utility.yul\":22603:22606   */\n      dup3\n        /* \"#utility.yul\":22514:22607   */\n      tag_299\n      jump\t// in\n    tag_527:\n        /* \"#utility.yul\":22632:22634   */\n      0x20\n        /* \"#utility.yul\":22627:22630   */\n      dup3\n        /* \"#utility.yul\":22623:22635   */\n      add\n        /* \"#utility.yul\":22616:22635   */\n      swap1\n      pop\n        /* \"#utility.yul\":22275:22641   */\n      swap2\n      swap1\n      pop\n      jump\t// out\n        /* \"#utility.yul\":22647:23066   */\n    tag_174:\n        /* \"#utility.yul\":22813:22817   */\n      0x00\n        /* \"#utility.yul\":22851:22853   */\n      0x20\n        /* \"#utility.yul\":22840:22849   */\n      dup3\n        /* \"#utility.yul\":22836:22854   */\n      add\n        /* \"#utility.yul\":22828:22854   */\n      swap1\n      pop\n        /* \"#utility.yul\":22900:22909   */\n      dup2\n        /* \"#utility.yul\":22894:22898   */\n      dup2\n        /* \"#utility.yul\":22890:22910   */\n      sub\n        /* \"#utility.yul\":22886:22887   */\n      0x00\n        /* \"#utility.yul\":22875:22884   */\n      dup4\n        /* \"#utility.yul\":22871:22888   */\n      add\n        /* \"#utility.yul\":22864:22911   */\n      mstore\n        /* \"#utility.yul\":22928:23059   */\n      tag_529\n        /* \"#utility.yul\":23054:23058   */\n      dup2\n        /* \"#utility.yul\":22928:23059   */\n      tag_300\n      jump\t// in\n    tag_529:\n        /* \"#utility.yul\":22920:23059   */\n      swap1\n      pop\n        /* \"#utility.yul\":22647:23066   */\n      swap2\n      swap1\n      pop\n      jump\t// out\n        /* \"#utility.yul\":23072:23213   */\n    tag_301:\n        /* \"#utility.yul\":23121:23125   */\n      0x00\n        /* \"#utility.yul\":23144:23147   */\n      dup2\n        /* \"#utility.yul\":23136:23147   */\n      swap1\n      pop\n        /* \"#utility.yul\":23167:23170   */\n      dup2\n        /* \"#utility.yul\":23164:23165   */\n      0x00\n        /* \"#utility.yul\":23157:23171   */\n      mstore\n        /* \"#utility.yul\":23201:23205   */\n      0x20\n        /* \"#utility.yul\":23198:23199   */\n      0x00\n        /* \"#utility.yul\":23188:23206   */\n      keccak256\n        /* \"#utility.yul\":23180:23206   */\n      swap1\n      pop\n        /* \"#utility.yul\":23072:23213   */\n      swap2\n      swap1\n      pop\n      jump\t// out\n        /* \"#utility.yul\":23219:23312   */\n    tag_302:\n        /* \"#utility.yul\":23256:23262   */\n      0x00\n        /* \"#utility.yul\":23303:23305   */\n      0x20\n        /* \"#utility.yul\":23298:23300   */\n      0x1f\n        /* \"#utility.yul\":23291:23296   */\n      dup4\n        /* \"#utility.yul\":23287:23301   */\n      add\n        /* \"#utility.yul\":23283:23306   */\n      div\n        /* \"#utility.yul\":23273:23306   */\n      swap1\n      pop\n        /* \"#utility.yul\":23219:23312   */\n      swap2\n      swap1\n      pop\n      jump\t// out\n        /* \"#utility.yul\":23318:23425   */\n    tag_303:\n        /* \"#utility.yul\":23362:23370   */\n      0x00\n        /* \"#utility.yul\":23412:23417   */\n      dup3\n        /* \"#utility.yul\":23406:23410   */\n      dup3\n        /* \"#utility.yul\":23402:23418   */\n      shl\n        /* \"#utility.yul\":23381:23418   */\n      swap1\n      pop\n        /* \"#utility.yul\":23318:23425   */\n      swap3\n      swap2\n      pop\n      pop\n      jump\t// out\n        /* \"#utility.yul\":23431:23824   */\n    tag_304:\n        /* \"#utility.yul\":23500:23506   */\n      0x00\n        /* \"#utility.yul\":23550:23551   */\n      0x08\n        /* \"#utility.yul\":23538:23548   */\n      dup4\n        /* \"#utility.yul\":23534:23552   */\n      mul\n        /* \"#utility.yul\":23573:23670   */\n      tag_534\n        /* \"#utility.yul\":23603:23669   */\n      0xffffffffffffffffffffffffffffffffffffffffffffffffffffffffffffffff\n        /* \"#utility.yul\":23592:23601   */\n      dup3\n        /* \"#utility.yul\":23573:23670   */\n      tag_303\n      jump\t// in\n    tag_534:\n        /* \"#utility.yul\":23691:23730   */\n      tag_535\n        /* \"#utility.yul\":23721:23729   */\n      dup7\n        /* \"#utility.yul\":23710:23719   */\n      dup4\n        /* \"#utility.yul\":23691:23730   */\n      tag_303\n      jump\t// in\n    tag_535:\n        /* \"#utility.yul\":23679:23730   */\n      swap6\n      pop\n        /* \"#utility.yul\":23763:23767   */\n      dup1\n        /* \"#utility.yul\":23759:23768   */\n      not\n        /* \"#utility.yul\":23752:23757   */\n      dup5\n        /* \"#utility.yul\":23748:23769   */\n      and\n        /* \"#utility.yul\":23739:23769   */\n      swap4\n      pop\n        /* \"#utility.yul\":23812:23816   */\n      dup1\n        /* \"#utility.yul\":23802:23810   */\n      dup7\n        /* \"#utility.yul\":23798:23817   */\n      and\n        /* \"#utility.yul\":23791:23796   */\n      dup5\n        /* \"#utility.yul\":23788:23818   */\n      or\n        /* \"#utility.yul\":23778:23818   */\n      swap3\n      pop\n        /* \"#utility.yul\":23507:23824   */\n      pop\n      pop\n        /* \"#utility.yul\":23431:23824   */\n      swap4\n      swap3\n      pop\n      pop\n      pop\n      jump\t// out\n        /* \"#utility.yul\":23830:23890   */\n    tag_305:\n        /* \"#utility.yul\":23858:23861   */\n      0x00\n        /* \"#utility.yul\":23879:23884   */\n      dup2\n        /* \"#utility.yul\":23872:23884   */\n      swap1\n      pop\n        /* \"#utility.yul\":23830:23890   */\n      swap2\n      swap1\n      pop\n      jump\t// out\n        /* \"#utility.yul\":23896:24038   */\n    tag_306:\n        /* \"#utility.yul\":23946:23955   */\n      0x00\n        /* \"#utility.yul\":23979:24032   */\n      tag_538\n        /* \"#utility.yul\":23997:24031   */\n      tag_539\n        /* \"#utility.yul\":24006:24030   */\n      tag_540\n        /* \"#utility.yul\":24024:24029   */\n      dup5\n        /* \"#utility.yul\":24006:24030   */\n      tag_246\n      jump\t// in\n    tag_540:\n        /* \"#utility.yul\":23997:24031   */\n      tag_305\n      jump\t// in\n    tag_539:\n        /* \"#utility.yul\":23979:24032   */\n      tag_246\n      jump\t// in\n    tag_538:\n        /* \"#utility.yul\":23966:24032   */\n      swap1\n      pop\n        /* \"#utility.yul\":23896:24038   */\n      swap2\n      swap1\n      pop\n      jump\t// out\n        /* \"#utility.yul\":24044:24119   */\n    tag_307:\n        /* \"#utility.yul\":24087:24090   */\n      0x00\n        /* \"#utility.yul\":24108:24113   */\n      dup2\n        /* \"#utility.yul\":24101:24113   */\n      swap1\n      pop\n        /* \"#utility.yul\":24044:24119   */\n      swap2\n      swap1\n      pop\n      jump\t// out\n        /* \"#utility.yul\":24125:24394   */\n    tag_308:\n        /* \"#utility.yul\":24235:24274   */\n      tag_543\n        /* \"#utility.yul\":24266:24273   */\n      dup4\n        /* \"#utility.yul\":24235:24274   */\n      tag_306\n      jump\t// in\n    tag_543:\n        /* \"#utility.yul\":24296:24387   */\n      tag_544\n        /* \"#utility.yul\":24345:24386   */\n      tag_545\n        /* \"#utility.yul\":24369:24385   */\n      dup3\n        /* \"#utility.yul\":24345:24386   */\n      tag_307\n      jump\t// in\n    tag_545:\n        /* \"#utility.yul\":24337:24343   */\n      dup5\n        /* \"#utility.yul\":24330:24334   */\n      dup5\n        /* \"#utility.yul\":24324:24335   */\n      sload\n        /* \"#utility.yul\":24296:24387   */\n      tag_304\n      jump\t// in\n    tag_544:\n        /* \"#utility.yul\":24290:24294   */\n      dup3\n        /* \"#utility.yul\":24283:24388   */\n      sstore\n        /* \"#utility.yul\":24201:24394   */\n      pop\n        /* \"#utility.yul\":24125:24394   */\n      pop\n      pop\n      pop\n      jump\t// out\n        /* \"#utility.yul\":24400:24473   */\n    tag_309:\n        /* \"#utility.yul\":24445:24448   */\n      0x00\n        /* \"#utility.yul\":24400:24473   */\n      swap1\n      jump\t// out\n        /* \"#utility.yul\":24479:24668   */\n    tag_310:\n        /* \"#utility.yul\":24556:24588   */\n      tag_548\n      tag_309\n      jump\t// in\n    tag_548:\n        /* \"#utility.yul\":24597:24662   */\n      tag_549\n        /* \"#utility.yul\":24655:24661   */\n      dup2\n        /* \"#utility.yul\":24647:24653   */\n      dup5\n        /* \"#utility.yul\":24641:24645   */\n      dup5\n        /* \"#utility.yul\":24597:24662   */\n      tag_308\n      jump\t// in\n    tag_549:\n        /* \"#utility.yul\":24532:24668   */\n      pop\n        /* \"#utility.yul\":24479:24668   */\n      pop\n      pop\n      jump\t// out\n        /* \"#utility.yul\":24674:24860   */\n    tag_311:\n        /* \"#utility.yul\":24734:24854   */\n    tag_551:\n        /* \"#utility.yul\":24751:24754   */\n      dup2\n        /* \"#utility.yul\":24744:24749   */\n      dup2\n        /* \"#utility.yul\":24741:24755   */\n      lt\n        /* \"#utility.yul\":24734:24854   */\n      iszero\n      tag_553\n      jumpi\n        /* \"#utility.yul\":24805:24844   */\n      tag_554\n        /* \"#utility.yul\":24842:24843   */\n      0x00\n        /* \"#utility.yul\":24835:24840   */\n      dup3\n        /* \"#utility.yul\":24805:24844   */\n      tag_310\n      jump\t// in\n    tag_554:\n        /* \"#utility.yul\":24778:24779   */\n      0x01\n        /* \"#utility.yul\":24771:24776   */\n      dup2\n        /* \"#utility.yul\":24767:24780   */\n      add\n        /* \"#utility.yul\":24758:24780   */\n      swap1\n      pop\n        /* \"#utility.yul\":24734:24854   */\n      jump(tag_551)\n    tag_553:\n        /* \"#utility.yul\":24674:24860   */\n      pop\n      pop\n      jump\t// out\n        /* \"#utility.yul\":24866:25409   */\n    tag_312:\n        /* \"#utility.yul\":24967:24969   */\n      0x1f\n        /* \"#utility.yul\":24962:24965   */\n      dup3\n        /* \"#utility.yul\":24959:24970   */\n      gt\n        /* \"#utility.yul\":24956:25402   */\n      iszero\n      tag_556\n      jumpi\n        /* \"#utility.yul\":25001:25039   */\n      tag_557\n        /* \"#utility.yul\":25033:25038   */\n      dup2\n        /* \"#utility.yul\":25001:25039   */\n      tag_301\n      jump\t// in\n    tag_557:\n        /* \"#utility.yul\":25085:25114   */\n      tag_558\n        /* \"#utility.yul\":25103:25113   */\n      dup5\n        /* \"#utility.yul\":25085:25114   */\n      tag_302\n      jump\t// in\n    tag_558:\n        /* \"#utility.yul\":25075:25083   */\n      dup2\n        /* \"#utility.yul\":25071:25115   */\n      add\n        /* \"#utility.yul\":25268:25270   */\n      0x20\n        /* \"#utility.yul\":25256:25266   */\n      dup6\n        /* \"#utility.yul\":25253:25271   */\n      lt\n        /* \"#utility.yul\":25250:25299   */\n      iszero\n      tag_559\n      jumpi\n        /* \"#utility.yul\":25289:25297   */\n      dup2\n        /* \"#utility.yul\":25274:25297   */\n      swap1\n      pop\n        /* \"#utility.yul\":25250:25299   */\n    tag_559:\n        /* \"#utility.yul\":25312:25392   */\n      tag_560\n        /* \"#utility.yul\":25368:25390   */\n      tag_561\n        /* \"#utility.yul\":25386:25389   */\n      dup6\n        /* \"#utility.yul\":25368:25390   */\n      tag_302\n      jump\t// in\n    tag_561:\n        /* \"#utility.yul\":25358:25366   */\n      dup4\n        /* \"#utility.yul\":25354:25391   */\n      add\n        /* \"#utility.yul\":25341:25352   */\n      dup3\n        /* \"#utility.yul\":25312:25392   */\n      tag_311\n      jump\t// in\n    tag_560:\n        /* \"#utility.yul\":24971:25402   */\n      pop\n      pop\n        /* \"#utility.yul\":24956:25402   */\n    tag_556:\n        /* \"#utility.yul\":24866:25409   */\n      pop\n      pop\n      pop\n      jump\t// out\n        /* \"#utility.yul\":25415:25532   */\n    tag_313:\n        /* \"#utility.yul\":25469:25477   */\n      0x00\n        /* \"#utility.yul\":25519:25524   */\n      dup3\n        /* \"#utility.yul\":25513:25517   */\n      dup3\n        /* \"#utility.yul\":25509:25525   */\n      shr\n        /* \"#utility.yul\":25488:25525   */\n      swap1\n      pop\n        /* \"#utility.yul\":25415:25532   */\n      swap3\n      swap2\n      pop\n      pop\n      jump\t// out\n        /* \"#utility.yul\":25538:25707   */\n    tag_314:\n        /* \"#utility.yul\":25582:25588   */\n      0x00\n        /* \"#utility.yul\":25615:25666   */\n      tag_564\n        /* \"#utility.yul\":25663:25664   */\n      0x00\n        /* \"#utility.yul\":25659:25665   */\n      not\n        /* \"#utility.yul\":25651:25656   */\n      dup5\n        /* \"#utility.yul\":25648:25649   */\n      0x08\n        /* \"#utility.yul\":25644:25657   */\n      mul\n        /* \"#utility.yul\":25615:25666   */\n      tag_313\n      jump\t// in\n    tag_564:\n        /* \"#utility.yul\":25611:25667   */\n      not\n        /* \"#utility.yul\":25696:25700   */\n      dup1\n        /* \"#utility.yul\":25690:25694   */\n      dup4\n        /* \"#utility.yul\":25686:25701   */\n      and\n        /* \"#utility.yul\":25676:25701   */\n      swap2\n      pop\n        /* \"#utility.yul\":25589:25707   */\n      pop\n        /* \"#utility.yul\":25538:25707   */\n      swap3\n      swap2\n      pop\n      pop\n      jump\t// out\n        /* \"#utility.yul\":25712:26007   */\n    tag_315:\n        /* \"#utility.yul\":25788:25792   */\n      0x00\n        /* \"#utility.yul\":25934:25963   */\n      tag_566\n        /* \"#utility.yul\":25959:25962   */\n      dup4\n        /* \"#utility.yul\":25953:25957   */\n      dup4\n        /* \"#utility.yul\":25934:25963   */\n      tag_314\n      jump\t// in\n    tag_566:\n        /* \"#utility.yul\":25926:25963   */\n      swap2\n      pop\n        /* \"#utility.yul\":25996:25999   */\n      dup3\n        /* \"#utility.yul\":25993:25994   */\n      0x02\n        /* \"#utility.yul\":25989:26000   */\n      mul\n        /* \"#utility.yul\":25983:25987   */\n      dup3\n        /* \"#utility.yul\":25980:26001   */\n      or\n        /* \"#utility.yul\":25972:26001   */\n      swap1\n      pop\n        /* \"#utility.yul\":25712:26007   */\n      swap3\n      swap2\n      pop\n      pop\n      jump\t// out\n        /* \"#utility.yul\":26012:27407   */\n    tag_177:\n        /* \"#utility.yul\":26129:26166   */\n      tag_568\n        /* \"#utility.yul\":26162:26165   */\n      dup3\n        /* \"#utility.yul\":26129:26166   */\n      tag_251\n      jump\t// in\n    tag_568:\n        /* \"#utility.yul\":26231:26249   */\n      0xffffffffffffffff\n        /* \"#utility.yul\":26223:26229   */\n      dup2\n        /* \"#utility.yul\":26220:26250   */\n      gt\n        /* \"#utility.yul\":26217:26273   */\n      iszero\n      tag_569\n      jumpi\n        /* \"#utility.yul\":26253:26271   */\n      tag_570\n      tag_274\n      jump\t// in\n    tag_570:\n        /* \"#utility.yul\":26217:26273   */\n    tag_569:\n        /* \"#utility.yul\":26297:26335   */\n      tag_571\n        /* \"#utility.yul\":26329:26333   */\n      dup3\n        /* \"#utility.yul\":26323:26334   */\n      sload\n        /* \"#utility.yul\":26297:26335   */\n      tag_98\n      jump\t// in\n    tag_571:\n        /* \"#utility.yul\":26382:26449   */\n      tag_572\n        /* \"#utility.yul\":26442:26448   */\n      dup3\n        /* \"#utility.yul\":26434:26440   */\n      dup3\n        /* \"#utility.yul\":26428:26432   */\n      dup6\n        /* \"#utility.yul\":26382:26449   */\n      tag_312\n      jump\t// in\n    tag_572:\n        /* \"#utility.yul\":26476:26477   */\n      0x00\n        /* \"#utility.yul\":26500:26504   */\n      0x20\n        /* \"#utility.yul\":26487:26504   */\n      swap1\n      pop\n        /* \"#utility.yul\":26532:26534   */\n      0x1f\n        /* \"#utility.yul\":26524:26530   */\n      dup4\n        /* \"#utility.yul\":26521:26535   */\n      gt\n        /* \"#utility.yul\":26549:26550   */\n      0x01\n        /* \"#utility.yul\":26544:27162   */\n      dup2\n      eq\n      tag_574\n      jumpi\n        /* \"#utility.yul\":27206:27207   */\n      0x00\n        /* \"#utility.yul\":27223:27229   */\n      dup5\n        /* \"#utility.yul\":27220:27297   */\n      iszero\n      tag_575\n      jumpi\n        /* \"#utility.yul\":27272:27281   */\n      dup3\n        /* \"#utility.yul\":27267:27270   */\n      dup8\n        /* \"#utility.yul\":27263:27282   */\n      add\n        /* \"#utility.yul\":27257:27283   */\n      mload\n        /* \"#utility.yul\":27248:27283   */\n      swap1\n      pop\n        /* \"#utility.yul\":27220:27297   */\n    tag_575:\n        /* \"#utility.yul\":27323:27390   */\n      tag_576\n        /* \"#utility.yul\":27383:27389   */\n      dup6\n        /* \"#utility.yul\":27376:27381   */\n      dup3\n        /* \"#utility.yul\":27323:27390   */\n      tag_315\n      jump\t// in\n    tag_576:\n        /* \"#utility.yul\":27317:27321   */\n      dup7\n        /* \"#utility.yul\":27310:27391   */\n      sstore\n        /* \"#utility.yul\":27179:27401   */\n      pop\n        /* \"#utility.yul\":26514:27401   */\n      jump(tag_573)\n        /* \"#utility.yul\":26544:27162   */\n    tag_574:\n        /* \"#utility.yul\":26596:26600   */\n      0x1f\n        /* \"#utility.yul\":26592:26601   */\n      not\n        /* \"#utility.yul\":26584:26590   */\n      dup5\n        /* \"#utility.yul\":26580:26602   */\n      and\n        /* \"#utility.yul\":26630:26667   */\n      tag_577\n        /* \"#utility.yul\":26662:26666   */\n      dup7\n        /* \"#utility.yul\":26630:26667   */\n      tag_301\n      jump\t// in\n    tag_577:\n        /* \"#utility.yul\":26689:26690   */\n      0x00\n        /* \"#utility.yul\":26703:26911   */\n    tag_578:\n        /* \"#utility.yul\":26717:26724   */\n      dup3\n        /* \"#utility.yul\":26714:26715   */\n      dup2\n        /* \"#utility.yul\":26711:26725   */\n      lt\n        /* \"#utility.yul\":26703:26911   */\n      iszero\n      tag_580\n      jumpi\n        /* \"#utility.yul\":26796:26805   */\n      dup5\n        /* \"#utility.yul\":26791:26794   */\n      dup10\n        /* \"#utility.yul\":26787:26806   */\n      add\n        /* \"#utility.yul\":26781:26807   */\n      mload\n        /* \"#utility.yul\":26773:26779   */\n      dup3\n        /* \"#utility.yul\":26766:26808   */\n      sstore\n        /* \"#utility.yul\":26847:26848   */\n      0x01\n        /* \"#utility.yul\":26839:26845   */\n      dup3\n        /* \"#utility.yul\":26835:26849   */\n      add\n        /* \"#utility.yul\":26825:26849   */\n      swap2\n      pop\n        /* \"#utility.yul\":26894:26896   */\n      0x20\n        /* \"#utility.yul\":26883:26892   */\n      dup6\n        /* \"#utility.yul\":26879:26897   */\n      add\n        /* \"#utility.yul\":26866:26897   */\n      swap5\n      pop\n        /* \"#utility.yul\":26740:26744   */\n      0x20\n        /* \"#utility.yul\":26737:26738   */\n      dup2\n        /* \"#utility.yul\":26733:26745   */\n      add\n        /* \"#utility.yul\":26728:26745   */\n      swap1\n      pop\n        /* \"#utility.yul\":26703:26911   */\n      jump(tag_578)\n    tag_580:\n        /* \"#utility.yul\":26939:26945   */\n      dup7\n        /* \"#utility.yul\":26930:26937   */\n      dup4\n        /* \"#utility.yul\":26927:26946   */\n      lt\n        /* \"#utility.yul\":26924:27103   */\n      iszero\n      tag_581\n      jumpi\n        /* \"#utility.yul\":26997:27006   */\n      dup5\n        /* \"#utility.yul\":26992:26995   */\n      dup10\n        /* \"#utility.yul\":26988:27007   */\n      add\n        /* \"#utility.yul\":26982:27008   */\n      mload\n        /* \"#utility.yul\":27040:27088   */\n      tag_582\n        /* \"#utility.yul\":27082:27086   */\n      0x1f\n        /* \"#utility.yul\":27074:27080   */\n      dup10\n        /* \"#utility.yul\":27070:27087   */\n      and\n        /* \"#utility.yul\":27059:27068   */\n      dup3\n        /* \"#utility.yul\":27040:27088   */\n      tag_314\n      jump\t// in\n    tag_582:\n        /* \"#utility.yul\":27032:27038   */\n      dup4\n        /* \"#utility.yul\":27025:27089   */\n      sstore\n        /* \"#utility.yul\":26947:27103   */\n      pop\n        /* \"#utility.yul\":26924:27103   */\n    tag_581:\n        /* \"#utility.yul\":27149:27150   */\n      0x01\n        /* \"#utility.yul\":27145:27146   */\n      0x02\n        /* \"#utility.yul\":27137:27143   */\n      dup9\n        /* \"#utility.yul\":27133:27147   */\n      mul\n        /* \"#utility.yul\":27129:27151   */\n      add\n        /* \"#utility.yul\":27123:27127   */\n      dup9\n        /* \"#utility.yul\":27116:27152   */\n      sstore\n        /* \"#utility.yul\":26551:27162   */\n      pop\n      pop\n      pop\n        /* \"#utility.yul\":26514:27401   */\n    tag_573:\n      pop\n        /* \"#utility.yul\":26104:27407   */\n      pop\n      pop\n      pop\n        /* \"#utility.yul\":26012:27407   */\n      pop\n      pop\n      jump\t// out\n        /* \"#utility.yul\":27413:28057   */\n    tag_179:\n        /* \"#utility.yul\":27610:27614   */\n      0x00\n        /* \"#utility.yul\":27648:27651   */\n      0x80\n        /* \"#utility.yul\":27637:27646   */\n      dup3\n        /* \"#utility.yul\":27633:27652   */\n      add\n        /* \"#utility.yul\":27625:27652   */\n      swap1\n      pop\n        /* \"#utility.yul\":27662:27733   */\n      tag_584\n        /* \"#utility.yul\":27730:27731   */\n      0x00\n        /* \"#utility.yul\":27719:27728   */\n      dup4\n        /* \"#utility.yul\":27715:27732   */\n      add\n        /* \"#utility.yul\":27706:27712   */\n      dup8\n        /* \"#utility.yul\":27662:27733   */\n      tag_249\n      jump\t// in\n    tag_584:\n        /* \"#utility.yul\":27780:27789   */\n      dup2\n        /* \"#utility.yul\":27774:27778   */\n      dup2\n        /* \"#utility.yul\":27770:27790   */\n      sub\n        /* \"#utility.yul\":27765:27767   */\n      0x20\n        /* \"#utility.yul\":27754:27763   */\n      dup4\n        /* \"#utility.yul\":27750:27768   */\n      add\n        /* \"#utility.yul\":27743:27791   */\n      mstore\n        /* \"#utility.yul\":27808:27886   */\n      tag_585\n        /* \"#utility.yul\":27881:27885   */\n      dup2\n        /* \"#utility.yul\":27872:27878   */\n      dup7\n        /* \"#utility.yul\":27808:27886   */\n      tag_255\n      jump\t// in\n    tag_585:\n        /* \"#utility.yul\":27800:27886   */\n      swap1\n      pop\n        /* \"#utility.yul\":27896:27968   */\n      tag_586\n        /* \"#utility.yul\":27964:27966   */\n      0x40\n        /* \"#utility.yul\":27953:27962   */\n      dup4\n        /* \"#utility.yul\":27949:27967   */\n      add\n        /* \"#utility.yul\":27940:27946   */\n      dup6\n        /* \"#utility.yul\":27896:27968   */\n      tag_249\n      jump\t// in\n    tag_586:\n        /* \"#utility.yul\":27978:28050   */\n      tag_587\n        /* \"#utility.yul\":28046:28048   */\n      0x60\n        /* \"#utility.yul\":28035:28044   */\n      dup4\n        /* \"#utility.yul\":28031:28049   */\n      add\n        /* \"#utility.yul\":28022:28028   */\n      dup5\n        /* \"#utility.yul\":27978:28050   */\n      tag_249\n      jump\t// in\n    tag_587:\n        /* \"#utility.yul\":27413:28057   */\n      swap6\n      swap5\n      pop\n      pop\n      pop\n      pop\n      pop\n      jump\t// out\n        /* \"#utility.yul\":28063:28239   */\n    tag_316:\n        /* \"#utility.yul\":28203:28231   */\n      0x594f552043414e4e4f5420464f4c4c4f5720594f555253454c46000000000000\n        /* \"#utility.yul\":28199:28200   */\n      0x00\n        /* \"#utility.yul\":28191:28197   */\n      dup3\n        /* \"#utility.yul\":28187:28201   */\n      add\n        /* \"#utility.yul\":28180:28232   */\n      mstore\n        /* \"#utility.yul\":28063:28239   */\n      pop\n      jump\t// out\n        /* \"#utility.yul\":28245:28611   */\n    tag_317:\n        /* \"#utility.yul\":28387:28390   */\n      0x00\n        /* \"#utility.yul\":28408:28475   */\n      tag_590\n        /* \"#utility.yul\":28472:28474   */\n      0x1a\n        /* \"#utility.yul\":28467:28470   */\n      dup4\n        /* \"#utility.yul\":28408:28475   */\n      tag_252\n      jump\t// in\n    tag_590:\n        /* \"#utility.yul\":28401:28475   */\n      swap2\n      pop\n        /* \"#utility.yul\":28484:28577   */\n      tag_591\n        /* \"#utility.yul\":28573:28576   */\n      dup3\n        /* \"#utility.yul\":28484:28577   */\n      tag_316\n      jump\t// in\n    tag_591:\n        /* \"#utility.yul\":28602:28604   */\n      0x20\n        /* \"#utility.yul\":28597:28600   */\n      dup3\n        /* \"#utility.yul\":28593:28605   */\n      add\n        /* \"#utility.yul\":28586:28605   */\n      swap1\n      pop\n        /* \"#utility.yul\":28245:28611   */\n      swap2\n      swap1\n      pop\n      jump\t// out\n        /* \"#utility.yul\":28617:29036   */\n    tag_185:\n        /* \"#utility.yul\":28783:28787   */\n      0x00\n        /* \"#utility.yul\":28821:28823   */\n      0x20\n        /* \"#utility.yul\":28810:28819   */\n      dup3\n        /* \"#utility.yul\":28806:28824   */\n      add\n        /* \"#utility.yul\":28798:28824   */\n      swap1\n      pop\n        /* \"#utility.yul\":28870:28879   */\n      dup2\n        /* \"#utility.yul\":28864:28868   */\n      dup2\n        /* \"#utility.yul\":28860:28880   */\n      sub\n        /* \"#utility.yul\":28856:28857   */\n      0x00\n        /* \"#utility.yul\":28845:28854   */\n      dup4\n        /* \"#utility.yul\":28841:28858   */\n      add\n        /* \"#utility.yul\":28834:28881   */\n      mstore\n        /* \"#utility.yul\":28898:29029   */\n      tag_593\n        /* \"#utility.yul\":29024:29028   */\n      dup2\n        /* \"#utility.yul\":28898:29029   */\n      tag_317\n      jump\t// in\n    tag_593:\n        /* \"#utility.yul\":28890:29029   */\n      swap1\n      pop\n        /* \"#utility.yul\":28617:29036   */\n      swap2\n      swap1\n      pop\n      jump\t// out\n        /* \"#utility.yul\":29042:29219   */\n    tag_318:\n        /* \"#utility.yul\":29182:29211   */\n      0x414c524541445920464f4c4c4f57494e47205448495320555345520000000000\n        /* \"#utility.yul\":29178:29179   */\n      0x00\n        /* \"#utility.yul\":29170:29176   */\n      dup3\n        /* \"#utility.yul\":29166:29180   */\n      add\n        /* \"#utility.yul\":29159:29212   */\n      mstore\n        /* \"#utility.yul\":29042:29219   */\n      pop\n      jump\t// out\n        /* \"#utility.yul\":29225:29591   */\n    tag_319:\n        /* \"#utility.yul\":29367:29370   */\n      0x00\n        /* \"#utility.yul\":29388:29455   */\n      tag_596\n        /* \"#utility.yul\":29452:29454   */\n      0x1b\n        /* \"#utility.yul\":29447:29450   */\n      dup4\n        /* \"#utility.yul\":29388:29455   */\n      tag_252\n      jump\t// in\n    tag_596:\n        /* \"#utility.yul\":29381:29455   */\n      swap2\n      pop\n        /* \"#utility.yul\":29464:29557   */\n      tag_597\n        /* \"#utility.yul\":29553:29556   */\n      dup3\n        /* \"#utility.yul\":29464:29557   */\n      tag_318\n      jump\t// in\n    tag_597:\n        /* \"#utility.yul\":29582:29584   */\n      0x20\n        /* \"#utility.yul\":29577:29580   */\n      dup3\n        /* \"#utility.yul\":29573:29585   */\n      add\n        /* \"#utility.yul\":29566:29585   */\n      swap1\n      pop\n        /* \"#utility.yul\":29225:29591   */\n      swap2\n      swap1\n      pop\n      jump\t// out\n        /* \"#utility.yul\":29597:30016   */\n    tag_188:\n        /* \"#utility.yul\":29763:29767   */\n      0x00\n        /* \"#utility.yul\":29801:29803   */\n      0x20\n        /* \"#utility.yul\":29790:29799   */\n      dup3\n        /* \"#utility.yul\":29786:29804   */\n      add\n        /* \"#utility.yul\":29778:29804   */\n      swap1\n      pop\n        /* \"#utility.yul\":29850:29859   */\n      dup2\n        /* \"#utility.yul\":29844:29848   */\n      dup2\n        /* \"#utility.yul\":29840:29860   */\n      sub\n        /* \"#utility.yul\":29836:29837   */\n      0x00\n        /* \"#utility.yul\":29825:29834   */\n      dup4\n        /* \"#utility.yul\":29821:29838   */\n      add\n        /* \"#utility.yul\":29814:29861   */\n      mstore\n        /* \"#utility.yul\":29878:30009   */\n      tag_599\n        /* \"#utility.yul\":30004:30008   */\n      dup2\n        /* \"#utility.yul\":29878:30009   */\n      tag_319\n      jump\t// in\n    tag_599:\n        /* \"#utility.yul\":29870:30009   */\n      swap1\n      pop\n        /* \"#utility.yul\":29597:30016   */\n      swap2\n      swap1\n      pop\n      jump\t// out\n        /* \"#utility.yul\":30022:30202   */\n    tag_320:\n        /* \"#utility.yul\":30162:30194   */\n      0x594f55275245204e4f5420464f4c4c4f57494e47205448495320555345520000\n        /* \"#utility.yul\":30158:30159   */\n      0x00\n        /* \"#utility.yul\":30150:30156   */\n      dup3\n        /* \"#utility.yul\":30146:30160   */\n      add\n        /* \"#utility.yul\":30139:30195   */\n      mstore\n        /* \"#utility.yul\":30022:30202   */\n      pop\n      jump\t// out\n        /* \"#utility.yul\":30208:30574   */\n    tag_321:\n        /* \"#utility.yul\":30350:30353   */\n      0x00\n        /* \"#utility.yul\":30371:30438   */\n      tag_602\n        /* \"#utility.yul\":30435:30437   */\n      0x1e\n        /* \"#utility.yul\":30430:30433   */\n      dup4\n        /* \"#utility.yul\":30371:30438   */\n      tag_252\n      jump\t// in\n    tag_602:\n        /* \"#utility.yul\":30364:30438   */\n      swap2\n      pop\n        /* \"#utility.yul\":30447:30540   */\n      tag_603\n        /* \"#utility.yul\":30536:30539   */\n      dup3\n        /* \"#utility.yul\":30447:30540   */\n      tag_320\n      jump\t// in\n    tag_603:\n        /* \"#utility.yul\":30565:30567   */\n      0x20\n        /* \"#utility.yul\":30560:30563   */\n      dup3\n        /* \"#utility.yul\":30556:30568   */\n      add\n        /* \"#utility.yul\":30549:30568   */\n      swap1\n      pop\n        /* \"#utility.yul\":30208:30574   */\n      swap2\n      swap1\n      pop\n      jump\t// out\n        /* \"#utility.yul\":30580:30999   */\n    tag_202:\n        /* \"#utility.yul\":30746:30750   */\n      0x00\n        /* \"#utility.yul\":30784:30786   */\n      0x20\n        /* \"#utility.yul\":30773:30782   */\n      dup3\n        /* \"#utility.yul\":30769:30787   */\n      add\n        /* \"#utility.yul\":30761:30787   */\n      swap1\n      pop\n        /* \"#utility.yul\":30833:30842   */\n      dup2\n        /* \"#utility.yul\":30827:30831   */\n      dup2\n        /* \"#utility.yul\":30823:30843   */\n      sub\n        /* \"#utility.yul\":30819:30820   */\n      0x00\n        /* \"#utility.yul\":30808:30817   */\n      dup4\n        /* \"#utility.yul\":30804:30821   */\n      add\n        /* \"#utility.yul\":30797:30844   */\n      mstore\n        /* \"#utility.yul\":30861:30992   */\n      tag_605\n        /* \"#utility.yul\":30987:30991   */\n      dup2\n        /* \"#utility.yul\":30861:30992   */\n      tag_321\n      jump\t// in\n    tag_605:\n        /* \"#utility.yul\":30853:30992   */\n      swap1\n      pop\n        /* \"#utility.yul\":30580:30999   */\n      swap2\n      swap1\n      pop\n      jump\t// out\n        /* \"#utility.yul\":31005:31199   */\n    tag_211:\n        /* \"#utility.yul\":31045:31049   */\n      0x00\n        /* \"#utility.yul\":31065:31085   */\n      tag_607\n        /* \"#utility.yul\":31083:31084   */\n      dup3\n        /* \"#utility.yul\":31065:31085   */\n      tag_246\n      jump\t// in\n    tag_607:\n        /* \"#utility.yul\":31060:31085   */\n      swap2\n      pop\n        /* \"#utility.yul\":31099:31119   */\n      tag_608\n        /* \"#utility.yul\":31117:31118   */\n      dup4\n        /* \"#utility.yul\":31099:31119   */\n      tag_246\n      jump\t// in\n    tag_608:\n        /* \"#utility.yul\":31094:31119   */\n      swap3\n      pop\n        /* \"#utility.yul\":31143:31144   */\n      dup3\n        /* \"#utility.yul\":31140:31141   */\n      dup3\n        /* \"#utility.yul\":31136:31145   */\n      sub\n        /* \"#utility.yul\":31128:31145   */\n      swap1\n      pop\n        /* \"#utility.yul\":31167:31168   */\n      dup2\n        /* \"#utility.yul\":31161:31165   */\n      dup2\n        /* \"#utility.yul\":31158:31169   */\n      gt\n        /* \"#utility.yul\":31155:31192   */\n      iszero\n      tag_609\n      jumpi\n        /* \"#utility.yul\":31172:31190   */\n      tag_610\n      tag_294\n      jump\t// in\n    tag_610:\n        /* \"#utility.yul\":31155:31192   */\n    tag_609:\n        /* \"#utility.yul\":31005:31199   */\n      swap3\n      swap2\n      pop\n      pop\n      jump\t// out\n        /* \"#utility.yul\":31205:31385   */\n    tag_220:\n        /* \"#utility.yul\":31253:31330   */\n      0x4e487b7100000000000000000000000000000000000000000000000000000000\n        /* \"#utility.yul\":31250:31251   */\n      0x00\n        /* \"#utility.yul\":31243:31331   */\n      mstore\n        /* \"#utility.yul\":31350:31354   */\n      0x31\n        /* \"#utility.yul\":31347:31348   */\n      0x04\n        /* \"#utility.yul\":31340:31355   */\n      mstore\n        /* \"#utility.yul\":31374:31378   */\n      0x24\n        /* \"#utility.yul\":31371:31372   */\n      0x00\n        /* \"#utility.yul\":31364:31379   */\n      revert\n\n    auxdata: 0xa2646970667358221220b49a9e72eab5dbccdbdd692aa6e70679005e960d9d2e594da4d47508e053ab4d64736f6c634300081a0033\n}\n",
				"bytecode": {
					"linkReferences": {},
					"object": "608060405260c85f806101000a81548161ffff021916908361ffff160217905550348015602a575f80fd5b50335f60026101000a81548173ffffffffffffffffffffffffffffffffffffffff021916908373ffffffffffffffffffffffffffffffffffffffff160217905550612c8e806100785f395ff3fe608060405234801561000f575f80fd5b5060043610610109575f3560e01c80637c9cd2bc116100a0578063a70806f71161006f578063a70806f7146102cb578063c2fe2022146102e7578063d8236dff14610317578063ebd009d314610347578063f107cfcb1461037757610109565b80637c9cd2bc146102315780638da5cb5b1461024d5780639139cda51461026b57806399ec3a421461029b57610109565b80635a34bd5e116100dc5780635a34bd5e146101a957806362a9edca146101c757806363378216146101e5578063728540c01461020157610109565b806305a1b4a91461010d57806312e7ee1c1461014157806332b0aa6a1461017157806358bfa4ab1461018d575b5f80fd5b61012760048036038101906101229190611db9565b610393565b604051610138959493929190611e85565b60405180910390f35b61015b60048036038101906101569190611edd565b610484565b604051610168919061209c565b60405180910390f35b61018b60048036038101906101869190611db9565b61061f565b005b6101a760048036038101906101a291906120f3565b610881565b005b6101b161097c565b6040516101be919061211e565b60405180910390f35b6101cf6109c3565b6040516101dc9190612146565b60405180910390f35b6101ff60048036038101906101fa9190611db9565b6109d4565b005b61021b60048036038101906102169190611db9565b610b96565b60405161022891906121d2565b60405180910390f35b61024b6004803603810190610246919061231e565b610d0e565b005b610255610fad565b6040516102629190612365565b60405180910390f35b61028560048036038101906102809190611db9565b610fd2565b6040516102929190612365565b60405180910390f35b6102b560048036038101906102b0919061237e565b61101a565b6040516102c291906123d6565b60405180910390f35b6102e560048036038101906102e09190611edd565b611044565b005b61030160048036038101906102fc9190611edd565b61139a565b60405161030e9190612497565b60405180910390f35b610331600480360381019061032c9190611edd565b611462565b60405161033e9190612497565b60405180910390f35b610361600480360381019061035c9190611db9565b61152a565b60405161036e9190612365565b60405180910390f35b610391600480360381019061038c9190611edd565b611572565b005b6001602052815f5260405f2081815481106103ac575f80fd5b905f5260205f2090600502015f9150915050805f015490806001015f9054906101000a900473ffffffffffffffffffffffffffffffffffffffff16908060020180546103f7906124e4565b80601f0160208091040260200160405190810160405280929190818152602001828054610423906124e4565b801561046e5780601f106104455761010080835404028352916020019161046e565b820191905f5260205f20905b81548152906001019060200180831161045157829003601f168201915b5050505050908060030154908060040154905085565b606060015f8373ffffffffffffffffffffffffffffffffffffffff1673ffffffffffffffffffffffffffffffffffffffff1681526020019081526020015f20805480602002602001604051908101604052809291908181526020015f905b82821015610614578382905f5260205f2090600502016040518060a00160405290815f8201548152602001600182015f9054906101000a900473ffffffffffffffffffffffffffffffffffffffff1673ffffffffffffffffffffffffffffffffffffffff1673ffffffffffffffffffffffffffffffffffffffff168152602001600282018054610571906124e4565b80601f016020809104026020016040519081016040528092919081815260200182805461059d906124e4565b80156105e85780601f106105bf576101008083540402835291602001916105e8565b820191905f5260205f20905b8154815290600101906020018083116105cb57829003601f168201915b5050505050815260200160038201548152602001600482015481525050815260200190600101906104e2565b505050509050919050565b8060015f8473ffffffffffffffffffffffffffffffffffffffff1673ffffffffffffffffffffffffffffffffffffffff1681526020019081526020015f20828154811061066f5761066e612514565b5b905f5260205f2090600502015f0154146106be576040517f08c379a00000000000000000000000000000000000000000000000000000000081526004016106b59061258b565b60405180910390fd5b5f60015f8473ffffffffffffffffffffffffffffffffffffffff1673ffffffffffffffffffffffffffffffffffffffff1681526020019081526020015f20828154811061070e5761070d612514565b5b905f5260205f209060050201600401541161075e576040517f08c379a0000000000000000000000000000000000000000000000000000000008152600401610755906125f3565b60405180910390fd5b60015f8373ffffffffffffffffffffffffffffffffffffffff1673ffffffffffffffffffffffffffffffffffffffff1681526020019081526020015f2081815481106107ad576107ac612514565b5b905f5260205f2090600502016004015f8154809291906107cc9061263e565b91905055508173ffffffffffffffffffffffffffffffffffffffff167fc06fdb2b696e45a97339c90f1d695147e89ad3202c3ff65f8b27d76937e7b51560015f3373ffffffffffffffffffffffffffffffffffffffff1673ffffffffffffffffffffffffffffffffffffffff1681526020019081526020015f20838154811061085857610857612514565b5b905f5260205f20906005020160040154604051610875919061211e565b60405180910390a25050565b5f60029054906101000a900473ffffffffffffffffffffffffffffffffffffffff1673ffffffffffffffffffffffffffffffffffffffff163373ffffffffffffffffffffffffffffffffffffffff1614610910576040517f08c379a0000000000000000000000000000000000000000000000000000000008152600401610907906126af565b60405180910390fd5b805f806101000a81548161ffff021916908361ffff1602179055503373ffffffffffffffffffffffffffffffffffffffff167f8323d82658670a49edff6f681164658b57381017bf33c952fe8a116e1c6b1a67826040516109719190612146565b60405180910390a250565b5f60015f3373ffffffffffffffffffffffffffffffffffffffff1673ffffffffffffffffffffffffffffffffffffffff1681526020019081526020015f2080549050905090565b5f8054906101000a900461ffff1681565b8060015f8473ffffffffffffffffffffffffffffffffffffffff1673ffffffffffffffffffffffffffffffffffffffff1681526020019081526020015f208281548110610a2457610a23612514565b5b905f5260205f2090600502015f015414610a73576040517f08c379a0000000000000000000000000000000000000000000000000000000008152600401610a6a9061258b565b60405180910390fd5b60015f8373ffffffffffffffffffffffffffffffffffffffff1673ffffffffffffffffffffffffffffffffffffffff1681526020019081526020015f208181548110610ac257610ac1612514565b5b905f5260205f2090600502016004015f815480929190610ae1906126cd565b91905055508173ffffffffffffffffffffffffffffffffffffffff167f8a386948f7e93ab4fcd287c576a77bebdc96097ff7ce25d207a8242bb1de398b60015f3373ffffffffffffffffffffffffffffffffffffffff1673ffffffffffffffffffffffffffffffffffffffff1681526020019081526020015f208381548110610b6d57610b6c612514565b5b905f5260205f20906005020160040154604051610b8a919061211e565b60405180910390a25050565b610b9e611cda565b60015f8473ffffffffffffffffffffffffffffffffffffffff1673ffffffffffffffffffffffffffffffffffffffff1681526020019081526020015f208281548110610bed57610bec612514565b5b905f5260205f2090600502016040518060a00160405290815f8201548152602001600182015f9054906101000a900473ffffffffffffffffffffffffffffffffffffffff1673ffffffffffffffffffffffffffffffffffffffff1673ffffffffffffffffffffffffffffffffffffffff168152602001600282018054610c72906124e4565b80601f0160208091040260200160405190810160405280929190818152602001828054610c9e906124e4565b8015610ce95780601f10610cc057610100808354040283529160200191610ce9565b820191905f5260205f20905b815481529060010190602001808311610ccc57829003601f168201915b5050505050815260200160038201548152602001600482015481525050905092915050565b5f815111610d51576040517f08c379a0000000000000000000000000000000000000000000000000000000008152600401610d4890612784565b60405180910390fd5b5f8054906101000a900461ffff1661ffff1660015f3373ffffffffffffffffffffffffffffffffffffffff1673ffffffffffffffffffffffffffffffffffffffff1681526020019081526020015f208054905010610de4576040517f08c379a0000000000000000000000000000000000000000000000000000000008152600401610ddb906127ec565b60405180910390fd5b5f6040518060a0016040528060015f3373ffffffffffffffffffffffffffffffffffffffff1673ffffffffffffffffffffffffffffffffffffffff1681526020019081526020015f208054905081526020013373ffffffffffffffffffffffffffffffffffffffff1681526020018381526020014281526020015f815250905060015f3373ffffffffffffffffffffffffffffffffffffffff1673ffffffffffffffffffffffffffffffffffffffff1681526020019081526020015f2081908060018154018082558091505060019003905f5260205f2090600502015f909190919091505f820151815f01556020820151816001015f6101000a81548173ffffffffffffffffffffffffffffffffffffffff021916908373ffffffffffffffffffffffffffffffffffffffff1602179055506040820151816002019081610f2b91906129a7565b5060608201518160030155608082015181600401555050806020015173ffffffffffffffffffffffffffffffffffffffff167f881ee5e736450a2211622934b24ae6488e14ca8444788d6e26fdbe582d098391825f0151836040015184606001518560800151604051610fa19493929190612a76565b60405180910390a25050565b5f60029054906101000a900473ffffffffffffffffffffffffffffffffffffffff1681565b6004602052815f5260405f208181548110610feb575f80fd5b905f5260205f20015f915091509054906101000a900473ffffffffffffffffffffffffffffffffffffffff1681565b6002602052815f5260405f20602052805f5260405f205f915091509054906101000a900460ff1681565b3373ffffffffffffffffffffffffffffffffffffffff168173ffffffffffffffffffffffffffffffffffffffff16036110b2576040517f08c379a00000000000000000000000000000000000000000000000000000000081526004016110a990612b0a565b60405180910390fd5b60025f3373ffffffffffffffffffffffffffffffffffffffff1673ffffffffffffffffffffffffffffffffffffffff1681526020019081526020015f205f8273ffffffffffffffffffffffffffffffffffffffff1673ffffffffffffffffffffffffffffffffffffffff1681526020019081526020015f205f9054906101000a900460ff1615611177576040517f08c379a000000000000000000000000000000000000000000000000000000000815260040161116e90612b72565b60405180910390fd5b600160025f3373ffffffffffffffffffffffffffffffffffffffff1673ffffffffffffffffffffffffffffffffffffffff1681526020019081526020015f205f8373ffffffffffffffffffffffffffffffffffffffff1673ffffffffffffffffffffffffffffffffffffffff1681526020019081526020015f205f6101000a81548160ff02191690831515021790555060035f8273ffffffffffffffffffffffffffffffffffffffff1673ffffffffffffffffffffffffffffffffffffffff1681526020019081526020015f2033908060018154018082558091505060019003905f5260205f20015f9091909190916101000a81548173ffffffffffffffffffffffffffffffffffffffff021916908373ffffffffffffffffffffffffffffffffffffffff16021790555060045f3373ffffffffffffffffffffffffffffffffffffffff1673ffffffffffffffffffffffffffffffffffffffff1681526020019081526020015f2081908060018154018082558091505060019003905f5260205f20015f9091909190916101000a81548173ffffffffffffffffffffffffffffffffffffffff021916908373ffffffffffffffffffffffffffffffffffffffff1602179055508073ffffffffffffffffffffffffffffffffffffffff163373ffffffffffffffffffffffffffffffffffffffff167f30b3435b456f45779984ddfa456115ee4c20d9e446979b1b9e90dbb7e12b90b760405160405180910390a350565b606060035f8373ffffffffffffffffffffffffffffffffffffffff1673ffffffffffffffffffffffffffffffffffffffff1681526020019081526020015f2080548060200260200160405190810160405280929190818152602001828054801561145657602002820191905f5260205f20905b815f9054906101000a900473ffffffffffffffffffffffffffffffffffffffff1673ffffffffffffffffffffffffffffffffffffffff168152602001906001019080831161140d575b50505050509050919050565b606060045f8373ffffffffffffffffffffffffffffffffffffffff1673ffffffffffffffffffffffffffffffffffffffff1681526020019081526020015f2080548060200260200160405190810160405280929190818152602001828054801561151e57602002820191905f5260205f20905b815f9054906101000a900473ffffffffffffffffffffffffffffffffffffffff1673ffffffffffffffffffffffffffffffffffffffff16815260200190600101908083116114d5575b50505050509050919050565b6003602052815f5260405f208181548110611543575f80fd5b905f5260205f20015f915091509054906101000a900473ffffffffffffffffffffffffffffffffffffffff1681565b60025f3373ffffffffffffffffffffffffffffffffffffffff1673ffffffffffffffffffffffffffffffffffffffff1681526020019081526020015f205f8273ffffffffffffffffffffffffffffffffffffffff1673ffffffffffffffffffffffffffffffffffffffff1681526020019081526020015f205f9054906101000a900460ff16611636576040517f08c379a000000000000000000000000000000000000000000000000000000000815260040161162d90612bda565b60405180910390fd5b5f60025f3373ffffffffffffffffffffffffffffffffffffffff1673ffffffffffffffffffffffffffffffffffffffff1681526020019081526020015f205f8373ffffffffffffffffffffffffffffffffffffffff1673ffffffffffffffffffffffffffffffffffffffff1681526020019081526020015f205f6101000a81548160ff0219169083151502179055505f5b60045f3373ffffffffffffffffffffffffffffffffffffffff1673ffffffffffffffffffffffffffffffffffffffff1681526020019081526020015f20805490508110156119a0578173ffffffffffffffffffffffffffffffffffffffff1660045f3373ffffffffffffffffffffffffffffffffffffffff1673ffffffffffffffffffffffffffffffffffffffff1681526020019081526020015f20828154811061177557611774612514565b5b905f5260205f20015f9054906101000a900473ffffffffffffffffffffffffffffffffffffffff1673ffffffffffffffffffffffffffffffffffffffff16036119935760045f3373ffffffffffffffffffffffffffffffffffffffff1673ffffffffffffffffffffffffffffffffffffffff1681526020019081526020015f20600160045f3373ffffffffffffffffffffffffffffffffffffffff1673ffffffffffffffffffffffffffffffffffffffff1681526020019081526020015f20805490506118429190612bf8565b8154811061185357611852612514565b5b905f5260205f20015f9054906101000a900473ffffffffffffffffffffffffffffffffffffffff1660045f3373ffffffffffffffffffffffffffffffffffffffff1673ffffffffffffffffffffffffffffffffffffffff1681526020019081526020015f2082815481106118ca576118c9612514565b5b905f5260205f20015f6101000a81548173ffffffffffffffffffffffffffffffffffffffff021916908373ffffffffffffffffffffffffffffffffffffffff16021790555060045f3373ffffffffffffffffffffffffffffffffffffffff1673ffffffffffffffffffffffffffffffffffffffff1681526020019081526020015f2080548061195c5761195b612c2b565b5b600190038181905f5260205f20015f6101000a81549073ffffffffffffffffffffffffffffffffffffffff021916905590556119a0565b80806001019150506116c7565b505f5b60035f8373ffffffffffffffffffffffffffffffffffffffff1673ffffffffffffffffffffffffffffffffffffffff1681526020019081526020015f2080549050811015611c7c573373ffffffffffffffffffffffffffffffffffffffff1660035f8473ffffffffffffffffffffffffffffffffffffffff1673ffffffffffffffffffffffffffffffffffffffff1681526020019081526020015f208281548110611a5157611a50612514565b5b905f5260205f20015f9054906101000a900473ffffffffffffffffffffffffffffffffffffffff1673ffffffffffffffffffffffffffffffffffffffff1603611c6f5760035f8373ffffffffffffffffffffffffffffffffffffffff1673ffffffffffffffffffffffffffffffffffffffff1681526020019081526020015f20600160035f8573ffffffffffffffffffffffffffffffffffffffff1673ffffffffffffffffffffffffffffffffffffffff1681526020019081526020015f2080549050611b1e9190612bf8565b81548110611b2f57611b2e612514565b5b905f5260205f20015f9054906101000a900473ffffffffffffffffffffffffffffffffffffffff1660035f8473ffffffffffffffffffffffffffffffffffffffff1673ffffffffffffffffffffffffffffffffffffffff1681526020019081526020015f208281548110611ba657611ba5612514565b5b905f5260205f20015f6101000a81548173ffffffffffffffffffffffffffffffffffffffff021916908373ffffffffffffffffffffffffffffffffffffffff16021790555060035f8373ffffffffffffffffffffffffffffffffffffffff1673ffffffffffffffffffffffffffffffffffffffff1681526020019081526020015f20805480611c3857611c37612c2b565b5b600190038181905f5260205f20015f6101000a81549073ffffffffffffffffffffffffffffffffffffffff02191690559055611c7c565b80806001019150506119a3565b508073ffffffffffffffffffffffffffffffffffffffff163373ffffffffffffffffffffffffffffffffffffffff167fe7339343c6edff57f2d15278c419523844cea30ae5ee2146aa22cb9e3107dab760405160405180910390a350565b6040518060a001604052805f81526020015f73ffffffffffffffffffffffffffffffffffffffff168152602001606081526020015f81526020015f81525090565b5f604051905090565b5f80fd5b5f80fd5b5f73ffffffffffffffffffffffffffffffffffffffff82169050919050565b5f611d5582611d2c565b9050919050565b611d6581611d4b565b8114611d6f575f80fd5b50565b5f81359050611d8081611d5c565b92915050565b5f819050919050565b611d9881611d86565b8114611da2575f80fd5b50565b5f81359050611db381611d8f565b92915050565b5f8060408385031215611dcf57611dce611d24565b5b5f611ddc85828601611d72565b9250506020611ded85828601611da5565b9150509250929050565b611e0081611d86565b82525050565b611e0f81611d4b565b82525050565b5f81519050919050565b5f82825260208201905092915050565b8281835e5f83830152505050565b5f601f19601f8301169050919050565b5f611e5782611e15565b611e618185611e1f565b9350611e71818560208601611e2f565b611e7a81611e3d565b840191505092915050565b5f60a082019050611e985f830188611df7565b611ea56020830187611e06565b8181036040830152611eb78186611e4d565b9050611ec66060830185611df7565b611ed36080830184611df7565b9695505050505050565b5f60208284031215611ef257611ef1611d24565b5b5f611eff84828501611d72565b91505092915050565b5f81519050919050565b5f82825260208201905092915050565b5f819050602082019050919050565b611f3a81611d86565b82525050565b611f4981611d4b565b82525050565b5f82825260208201905092915050565b5f611f6982611e15565b611f738185611f4f565b9350611f83818560208601611e2f565b611f8c81611e3d565b840191505092915050565b5f60a083015f830151611fac5f860182611f31565b506020830151611fbf6020860182611f40565b5060408301518482036040860152611fd78282611f5f565b9150506060830151611fec6060860182611f31565b506080830151611fff6080860182611f31565b508091505092915050565b5f6120158383611f97565b905092915050565b5f602082019050919050565b5f61203382611f08565b61203d8185611f12565b93508360208202850161204f85611f22565b805f5b8581101561208a578484038952815161206b858261200a565b94506120768361201d565b925060208a01995050600181019050612052565b50829750879550505050505092915050565b5f6020820190508181035f8301526120b48184612029565b905092915050565b5f61ffff82169050919050565b6120d2816120bc565b81146120dc575f80fd5b50565b5f813590506120ed816120c9565b92915050565b5f6020828403121561210857612107611d24565b5b5f612115848285016120df565b91505092915050565b5f6020820190506121315f830184611df7565b92915050565b612140816120bc565b82525050565b5f6020820190506121595f830184612137565b92915050565b5f60a083015f8301516121745f860182611f31565b5060208301516121876020860182611f40565b506040830151848203604086015261219f8282611f5f565b91505060608301516121b46060860182611f31565b5060808301516121c76080860182611f31565b508091505092915050565b5f6020820190508181035f8301526121ea818461215f565b905092915050565b5f80fd5b5f80fd5b7f4e487b71000000000000000000000000000000000000000000000000000000005f52604160045260245ffd5b61223082611e3d565b810181811067ffffffffffffffff8211171561224f5761224e6121fa565b5b80604052505050565b5f612261611d1b565b905061226d8282612227565b919050565b5f67ffffffffffffffff82111561228c5761228b6121fa565b5b61229582611e3d565b9050602081019050919050565b828183375f83830152505050565b5f6122c26122bd84612272565b612258565b9050828152602081018484840111156122de576122dd6121f6565b5b6122e98482856122a2565b509392505050565b5f82601f830112612305576123046121f2565b5b81356123158482602086016122b0565b91505092915050565b5f6020828403121561233357612332611d24565b5b5f82013567ffffffffffffffff8111156123505761234f611d28565b5b61235c848285016122f1565b91505092915050565b5f6020820190506123785f830184611e06565b92915050565b5f806040838503121561239457612393611d24565b5b5f6123a185828601611d72565b92505060206123b285828601611d72565b9150509250929050565b5f8115159050919050565b6123d0816123bc565b82525050565b5f6020820190506123e95f8301846123c7565b92915050565b5f81519050919050565b5f82825260208201905092915050565b5f819050602082019050919050565b5f6124238383611f40565b60208301905092915050565b5f602082019050919050565b5f612445826123ef565b61244f81856123f9565b935061245a83612409565b805f5b8381101561248a5781516124718882612418565b975061247c8361242f565b92505060018101905061245d565b5085935050505092915050565b5f6020820190508181035f8301526124af818461243b565b905092915050565b7f4e487b71000000000000000000000000000000000000000000000000000000005f52602260045260245ffd5b5f60028204905060018216806124fb57607f821691505b60208210810361250e5761250d6124b7565b5b50919050565b7f4e487b71000000000000000000000000000000000000000000000000000000005f52603260045260245ffd5b7f545745455420444f45534e2754204558495354000000000000000000000000005f82015250565b5f612575601383611e1f565b915061258082612541565b602082019050919050565b5f6020820190508181035f8301526125a281612569565b9050919050565b7f544845524520415245204e4f204c494b455300000000000000000000000000005f82015250565b5f6125dd601283611e1f565b91506125e8826125a9565b602082019050919050565b5f6020820190508181035f83015261260a816125d1565b9050919050565b7f4e487b71000000000000000000000000000000000000000000000000000000005f52601160045260245ffd5b5f61264882611d86565b91505f820361265a57612659612611565b5b600182039050919050565b7f594f55275245204e4f5420544845204f574e45520000000000000000000000005f82015250565b5f612699601483611e1f565b91506126a482612665565b602082019050919050565b5f6020820190508181035f8301526126c68161268d565b9050919050565b5f6126d782611d86565b91507fffffffffffffffffffffffffffffffffffffffffffffffffffffffffffffffff820361270957612708612611565b5b600182019050919050565b7f4e4f20434f4e54454e542c20504c4541534520575249544520534f4d455448495f8201527f4e47000000000000000000000000000000000000000000000000000000000000602082015250565b5f61276e602283611e1f565b915061277982612714565b604082019050919050565b5f6020820190508181035f83015261279b81612762565b9050919050565b7f544845204d4158494d554d2054574545545320524541434845440000000000005f82015250565b5f6127d6601a83611e1f565b91506127e1826127a2565b602082019050919050565b5f6020820190508181035f830152612803816127ca565b9050919050565b5f819050815f5260205f209050919050565b5f6020601f8301049050919050565b5f82821b905092915050565b5f600883026128667fffffffffffffffffffffffffffffffffffffffffffffffffffffffffffffffff8261282b565b612870868361282b565b95508019841693508086168417925050509392505050565b5f819050919050565b5f6128ab6128a66128a184611d86565b612888565b611d86565b9050919050565b5f819050919050565b6128c483612891565b6128d86128d0826128b2565b848454612837565b825550505050565b5f90565b6128ec6128e0565b6128f78184846128bb565b505050565b5b8181101561291a5761290f5f826128e4565b6001810190506128fd565b5050565b601f82111561295f576129308161280a565b6129398461281c565b81016020851015612948578190505b61295c6129548561281c565b8301826128fc565b50505b505050565b5f82821c905092915050565b5f61297f5f1984600802612964565b1980831691505092915050565b5f6129978383612970565b9150826002028217905092915050565b6129b082611e15565b67ffffffffffffffff8111156129c9576129c86121fa565b5b6129d382546124e4565b6129de82828561291e565b5f60209050601f831160018114612a0f575f84156129fd578287015190505b612a07858261298c565b865550612a6e565b601f198416612a1d8661280a565b5f5b82811015612a4457848901518255600182019150602085019450602081019050612a1f565b86831015612a615784890151612a5d601f891682612970565b8355505b6001600288020188555050505b505050505050565b5f608082019050612a895f830187611df7565b8181036020830152612a9b8186611e4d565b9050612aaa6040830185611df7565b612ab76060830184611df7565b95945050505050565b7f594f552043414e4e4f5420464f4c4c4f5720594f555253454c460000000000005f82015250565b5f612af4601a83611e1f565b9150612aff82612ac0565b602082019050919050565b5f6020820190508181035f830152612b2181612ae8565b9050919050565b7f414c524541445920464f4c4c4f57494e472054484953205553455200000000005f82015250565b5f612b5c601b83611e1f565b9150612b6782612b28565b602082019050919050565b5f6020820190508181035f830152612b8981612b50565b9050919050565b7f594f55275245204e4f5420464f4c4c4f57494e472054484953205553455200005f82015250565b5f612bc4601e83611e1f565b9150612bcf82612b90565b602082019050919050565b5f6020820190508181035f830152612bf181612bb8565b9050919050565b5f612c0282611d86565b9150612c0d83611d86565b9250828203905081811115612c2557612c24612611565b5b92915050565b7f4e487b71000000000000000000000000000000000000000000000000000000005f52603160045260245ffdfea2646970667358221220b49a9e72eab5dbccdbdd692aa6e70679005e960d9d2e594da4d47508e053ab4d64736f6c634300081a0033",
					"opcodes": "PUSH1 0x80 PUSH1 0x40 MSTORE PUSH1 0xC8 PUSH0 DUP1 PUSH2 0x100 EXP DUP2 SLOAD DUP2 PUSH2 0xFFFF MUL NOT AND SWAP1 DUP4 PUSH2 0xFFFF AND MUL OR SWAP1 SSTORE POP CALLVALUE DUP1 ISZERO PUSH1 0x2A JUMPI PUSH0 DUP1 REVERT JUMPDEST POP CALLER PUSH0 PUSH1 0x2 PUSH2 0x100 EXP DUP2 SLOAD DUP2 PUSH20 0xFFFFFFFFFFFFFFFFFFFFFFFFFFFFFFFFFFFFFFFF MUL NOT AND SWAP1 DUP4 PUSH20 0xFFFFFFFFFFFFFFFFFFFFFFFFFFFFFFFFFFFFFFFF AND MUL OR SWAP1 SSTORE POP PUSH2 0x2C8E DUP1 PUSH2 0x78 PUSH0 CODECOPY PUSH0 RETURN INVALID PUSH1 0x80 PUSH1 0x40 MSTORE CALLVALUE DUP1 ISZERO PUSH2 0xF JUMPI PUSH0 DUP1 REVERT JUMPDEST POP PUSH1 0x4 CALLDATASIZE LT PUSH2 0x109 JUMPI PUSH0 CALLDATALOAD PUSH1 0xE0 SHR DUP1 PUSH4 0x7C9CD2BC GT PUSH2 0xA0 JUMPI DUP1 PUSH4 0xA70806F7 GT PUSH2 0x6F JUMPI DUP1 PUSH4 0xA70806F7 EQ PUSH2 0x2CB JUMPI DUP1 PUSH4 0xC2FE2022 EQ PUSH2 0x2E7 JUMPI DUP1 PUSH4 0xD8236DFF EQ PUSH2 0x317 JUMPI DUP1 PUSH4 0xEBD009D3 EQ PUSH2 0x347 JUMPI DUP1 PUSH4 0xF107CFCB EQ PUSH2 0x377 JUMPI PUSH2 0x109 JUMP JUMPDEST DUP1 PUSH4 0x7C9CD2BC EQ PUSH2 0x231 JUMPI DUP1 PUSH4 0x8DA5CB5B EQ PUSH2 0x24D JUMPI DUP1 PUSH4 0x9139CDA5 EQ PUSH2 0x26B JUMPI DUP1 PUSH4 0x99EC3A42 EQ PUSH2 0x29B JUMPI PUSH2 0x109 JUMP JUMPDEST DUP1 PUSH4 0x5A34BD5E GT PUSH2 0xDC JUMPI DUP1 PUSH4 0x5A34BD5E EQ PUSH2 0x1A9 JUMPI DUP1 PUSH4 0x62A9EDCA EQ PUSH2 0x1C7 JUMPI DUP1 PUSH4 0x63378216 EQ PUSH2 0x1E5 JUMPI DUP1 PUSH4 0x728540C0 EQ PUSH2 0x201 JUMPI PUSH2 0x109 JUMP JUMPDEST DUP1 PUSH4 0x5A1B4A9 EQ PUSH2 0x10D JUMPI DUP1 PUSH4 0x12E7EE1C EQ PUSH2 0x141 JUMPI DUP1 PUSH4 0x32B0AA6A EQ PUSH2 0x171 JUMPI DUP1 PUSH4 0x58BFA4AB EQ PUSH2 0x18D JUMPI JUMPDEST PUSH0 DUP1 REVERT JUMPDEST PUSH2 0x127 PUSH1 0x4 DUP1 CALLDATASIZE SUB DUP2 ADD SWAP1 PUSH2 0x122 SWAP2 SWAP1 PUSH2 0x1DB9 JUMP JUMPDEST PUSH2 0x393 JUMP JUMPDEST PUSH1 0x40 MLOAD PUSH2 0x138 SWAP6 SWAP5 SWAP4 SWAP3 SWAP2 SWAP1 PUSH2 0x1E85 JUMP JUMPDEST PUSH1 0x40 MLOAD DUP1 SWAP2 SUB SWAP1 RETURN JUMPDEST PUSH2 0x15B PUSH1 0x4 DUP1 CALLDATASIZE SUB DUP2 ADD SWAP1 PUSH2 0x156 SWAP2 SWAP1 PUSH2 0x1EDD JUMP JUMPDEST PUSH2 0x484 JUMP JUMPDEST PUSH1 0x40 MLOAD PUSH2 0x168 SWAP2 SWAP1 PUSH2 0x209C JUMP JUMPDEST PUSH1 0x40 MLOAD DUP1 SWAP2 SUB SWAP1 RETURN JUMPDEST PUSH2 0x18B PUSH1 0x4 DUP1 CALLDATASIZE SUB DUP2 ADD SWAP1 PUSH2 0x186 SWAP2 SWAP1 PUSH2 0x1DB9 JUMP JUMPDEST PUSH2 0x61F JUMP JUMPDEST STOP JUMPDEST PUSH2 0x1A7 PUSH1 0x4 DUP1 CALLDATASIZE SUB DUP2 ADD SWAP1 PUSH2 0x1A2 SWAP2 SWAP1 PUSH2 0x20F3 JUMP JUMPDEST PUSH2 0x881 JUMP JUMPDEST STOP JUMPDEST PUSH2 0x1B1 PUSH2 0x97C JUMP JUMPDEST PUSH1 0x40 MLOAD PUSH2 0x1BE SWAP2 SWAP1 PUSH2 0x211E JUMP JUMPDEST PUSH1 0x40 MLOAD DUP1 SWAP2 SUB SWAP1 RETURN JUMPDEST PUSH2 0x1CF PUSH2 0x9C3 JUMP JUMPDEST PUSH1 0x40 MLOAD PUSH2 0x1DC SWAP2 SWAP1 PUSH2 0x2146 JUMP JUMPDEST PUSH1 0x40 MLOAD DUP1 SWAP2 SUB SWAP1 RETURN JUMPDEST PUSH2 0x1FF PUSH1 0x4 DUP1 CALLDATASIZE SUB DUP2 ADD SWAP1 PUSH2 0x1FA SWAP2 SWAP1 PUSH2 0x1DB9 JUMP JUMPDEST PUSH2 0x9D4 JUMP JUMPDEST STOP JUMPDEST PUSH2 0x21B PUSH1 0x4 DUP1 CALLDATASIZE SUB DUP2 ADD SWAP1 PUSH2 0x216 SWAP2 SWAP1 PUSH2 0x1DB9 JUMP JUMPDEST PUSH2 0xB96 JUMP JUMPDEST PUSH1 0x40 MLOAD PUSH2 0x228 SWAP2 SWAP1 PUSH2 0x21D2 JUMP JUMPDEST PUSH1 0x40 MLOAD DUP1 SWAP2 SUB SWAP1 RETURN JUMPDEST PUSH2 0x24B PUSH1 0x4 DUP1 CALLDATASIZE SUB DUP2 ADD SWAP1 PUSH2 0x246 SWAP2 SWAP1 PUSH2 0x231E JUMP JUMPDEST PUSH2 0xD0E JUMP JUMPDEST STOP JUMPDEST PUSH2 0x255 PUSH2 0xFAD JUMP JUMPDEST PUSH1 0x40 MLOAD PUSH2 0x262 SWAP2 SWAP1 PUSH2 0x2365 JUMP JUMPDEST PUSH1 0x40 MLOAD DUP1 SWAP2 SUB SWAP1 RETURN JUMPDEST PUSH2 0x285 PUSH1 0x4 DUP1 CALLDATASIZE SUB DUP2 ADD SWAP1 PUSH2 0x280 SWAP2 SWAP1 PUSH2 0x1DB9 JUMP JUMPDEST PUSH2 0xFD2 JUMP JUMPDEST PUSH1 0x40 MLOAD PUSH2 0x292 SWAP2 SWAP1 PUSH2 0x2365 JUMP JUMPDEST PUSH1 0x40 MLOAD DUP1 SWAP2 SUB SWAP1 RETURN JUMPDEST PUSH2 0x2B5 PUSH1 0x4 DUP1 CALLDATASIZE SUB DUP2 ADD SWAP1 PUSH2 0x2B0 SWAP2 SWAP1 PUSH2 0x237E JUMP JUMPDEST PUSH2 0x101A JUMP JUMPDEST PUSH1 0x40 MLOAD PUSH2 0x2C2 SWAP2 SWAP1 PUSH2 0x23D6 JUMP JUMPDEST PUSH1 0x40 MLOAD DUP1 SWAP2 SUB SWAP1 RETURN JUMPDEST PUSH2 0x2E5 PUSH1 0x4 DUP1 CALLDATASIZE SUB DUP2 ADD SWAP1 PUSH2 0x2E0 SWAP2 SWAP1 PUSH2 0x1EDD JUMP JUMPDEST PUSH2 0x1044 JUMP JUMPDEST STOP JUMPDEST PUSH2 0x301 PUSH1 0x4 DUP1 CALLDATASIZE SUB DUP2 ADD SWAP1 PUSH2 0x2FC SWAP2 SWAP1 PUSH2 0x1EDD JUMP JUMPDEST PUSH2 0x139A JUMP JUMPDEST PUSH1 0x40 MLOAD PUSH2 0x30E SWAP2 SWAP1 PUSH2 0x2497 JUMP JUMPDEST PUSH1 0x40 MLOAD DUP1 SWAP2 SUB SWAP1 RETURN JUMPDEST PUSH2 0x331 PUSH1 0x4 DUP1 CALLDATASIZE SUB DUP2 ADD SWAP1 PUSH2 0x32C SWAP2 SWAP1 PUSH2 0x1EDD JUMP JUMPDEST PUSH2 0x1462 JUMP JUMPDEST PUSH1 0x40 MLOAD PUSH2 0x33E SWAP2 SWAP1 PUSH2 0x2497 JUMP JUMPDEST PUSH1 0x40 MLOAD DUP1 SWAP2 SUB SWAP1 RETURN JUMPDEST PUSH2 0x361 PUSH1 0x4 DUP1 CALLDATASIZE SUB DUP2 ADD SWAP1 PUSH2 0x35C SWAP2 SWAP1 PUSH2 0x1DB9 JUMP JUMPDEST PUSH2 0x152A JUMP JUMPDEST PUSH1 0x40 MLOAD PUSH2 0x36E SWAP2 SWAP1 PUSH2 0x2365 JUMP JUMPDEST PUSH1 0x40 MLOAD DUP1 SWAP2 SUB SWAP1 RETURN JUMPDEST PUSH2 0x391 PUSH1 0x4 DUP1 CALLDATASIZE SUB DUP2 ADD SWAP1 PUSH2 0x38C SWAP2 SWAP1 PUSH2 0x1EDD JUMP JUMPDEST PUSH2 0x1572 JUMP JUMPDEST STOP JUMPDEST PUSH1 0x1 PUSH1 0x20 MSTORE DUP2 PUSH0 MSTORE PUSH1 0x40 PUSH0 KECCAK256 DUP2 DUP2 SLOAD DUP2 LT PUSH2 0x3AC JUMPI PUSH0 DUP1 REVERT JUMPDEST SWAP1 PUSH0 MSTORE PUSH1 0x20 PUSH0 KECCAK256 SWAP1 PUSH1 0x5 MUL ADD PUSH0 SWAP2 POP SWAP2 POP POP DUP1 PUSH0 ADD SLOAD SWAP1 DUP1 PUSH1 0x1 ADD PUSH0 SWAP1 SLOAD SWAP1 PUSH2 0x100 EXP SWAP1 DIV PUSH20 0xFFFFFFFFFFFFFFFFFFFFFFFFFFFFFFFFFFFFFFFF AND SWAP1 DUP1 PUSH1 0x2 ADD DUP1 SLOAD PUSH2 0x3F7 SWAP1 PUSH2 0x24E4 JUMP JUMPDEST DUP1 PUSH1 0x1F ADD PUSH1 0x20 DUP1 SWAP2 DIV MUL PUSH1 0x20 ADD PUSH1 0x40 MLOAD SWAP1 DUP2 ADD PUSH1 0x40 MSTORE DUP1 SWAP3 SWAP2 SWAP1 DUP2 DUP2 MSTORE PUSH1 0x20 ADD DUP3 DUP1 SLOAD PUSH2 0x423 SWAP1 PUSH2 0x24E4 JUMP JUMPDEST DUP1 ISZERO PUSH2 0x46E JUMPI DUP1 PUSH1 0x1F LT PUSH2 0x445 JUMPI PUSH2 0x100 DUP1 DUP4 SLOAD DIV MUL DUP4 MSTORE SWAP2 PUSH1 0x20 ADD SWAP2 PUSH2 0x46E JUMP JUMPDEST DUP3 ADD SWAP2 SWAP1 PUSH0 MSTORE PUSH1 0x20 PUSH0 KECCAK256 SWAP1 JUMPDEST DUP2 SLOAD DUP2 MSTORE SWAP1 PUSH1 0x1 ADD SWAP1 PUSH1 0x20 ADD DUP1 DUP4 GT PUSH2 0x451 JUMPI DUP3 SWAP1 SUB PUSH1 0x1F AND DUP3 ADD SWAP2 JUMPDEST POP POP POP POP POP SWAP1 DUP1 PUSH1 0x3 ADD SLOAD SWAP1 DUP1 PUSH1 0x4 ADD SLOAD SWAP1 POP DUP6 JUMP JUMPDEST PUSH1 0x60 PUSH1 0x1 PUSH0 DUP4 PUSH20 0xFFFFFFFFFFFFFFFFFFFFFFFFFFFFFFFFFFFFFFFF AND PUSH20 0xFFFFFFFFFFFFFFFFFFFFFFFFFFFFFFFFFFFFFFFF AND DUP2 MSTORE PUSH1 0x20 ADD SWAP1 DUP2 MSTORE PUSH1 0x20 ADD PUSH0 KECCAK256 DUP1 SLOAD DUP1 PUSH1 0x20 MUL PUSH1 0x20 ADD PUSH1 0x40 MLOAD SWAP1 DUP2 ADD PUSH1 0x40 MSTORE DUP1 SWAP3 SWAP2 SWAP1 DUP2 DUP2 MSTORE PUSH1 0x20 ADD PUSH0 SWAP1 JUMPDEST DUP3 DUP3 LT ISZERO PUSH2 0x614 JUMPI DUP4 DUP3 SWAP1 PUSH0 MSTORE PUSH1 0x20 PUSH0 KECCAK256 SWAP1 PUSH1 0x5 MUL ADD PUSH1 0x40 MLOAD DUP1 PUSH1 0xA0 ADD PUSH1 0x40 MSTORE SWAP1 DUP2 PUSH0 DUP3 ADD SLOAD DUP2 MSTORE PUSH1 0x20 ADD PUSH1 0x1 DUP3 ADD PUSH0 SWAP1 SLOAD SWAP1 PUSH2 0x100 EXP SWAP1 DIV PUSH20 0xFFFFFFFFFFFFFFFFFFFFFFFFFFFFFFFFFFFFFFFF AND PUSH20 0xFFFFFFFFFFFFFFFFFFFFFFFFFFFFFFFFFFFFFFFF AND PUSH20 0xFFFFFFFFFFFFFFFFFFFFFFFFFFFFFFFFFFFFFFFF AND DUP2 MSTORE PUSH1 0x20 ADD PUSH1 0x2 DUP3 ADD DUP1 SLOAD PUSH2 0x571 SWAP1 PUSH2 0x24E4 JUMP JUMPDEST DUP1 PUSH1 0x1F ADD PUSH1 0x20 DUP1 SWAP2 DIV MUL PUSH1 0x20 ADD PUSH1 0x40 MLOAD SWAP1 DUP2 ADD PUSH1 0x40 MSTORE DUP1 SWAP3 SWAP2 SWAP1 DUP2 DUP2 MSTORE PUSH1 0x20 ADD DUP3 DUP1 SLOAD PUSH2 0x59D SWAP1 PUSH2 0x24E4 JUMP JUMPDEST DUP1 ISZERO PUSH2 0x5E8 JUMPI DUP1 PUSH1 0x1F LT PUSH2 0x5BF JUMPI PUSH2 0x100 DUP1 DUP4 SLOAD DIV MUL DUP4 MSTORE SWAP2 PUSH1 0x20 ADD SWAP2 PUSH2 0x5E8 JUMP JUMPDEST DUP3 ADD SWAP2 SWAP1 PUSH0 MSTORE PUSH1 0x20 PUSH0 KECCAK256 SWAP1 JUMPDEST DUP2 SLOAD DUP2 MSTORE SWAP1 PUSH1 0x1 ADD SWAP1 PUSH1 0x20 ADD DUP1 DUP4 GT PUSH2 0x5CB JUMPI DUP3 SWAP1 SUB PUSH1 0x1F AND DUP3 ADD SWAP2 JUMPDEST POP POP POP POP POP DUP2 MSTORE PUSH1 0x20 ADD PUSH1 0x3 DUP3 ADD SLOAD DUP2 MSTORE PUSH1 0x20 ADD PUSH1 0x4 DUP3 ADD SLOAD DUP2 MSTORE POP POP DUP2 MSTORE PUSH1 0x20 ADD SWAP1 PUSH1 0x1 ADD SWAP1 PUSH2 0x4E2 JUMP JUMPDEST POP POP POP POP SWAP1 POP SWAP2 SWAP1 POP JUMP JUMPDEST DUP1 PUSH1 0x1 PUSH0 DUP5 PUSH20 0xFFFFFFFFFFFFFFFFFFFFFFFFFFFFFFFFFFFFFFFF AND PUSH20 0xFFFFFFFFFFFFFFFFFFFFFFFFFFFFFFFFFFFFFFFF AND DUP2 MSTORE PUSH1 0x20 ADD SWAP1 DUP2 MSTORE PUSH1 0x20 ADD PUSH0 KECCAK256 DUP3 DUP2 SLOAD DUP2 LT PUSH2 0x66F JUMPI PUSH2 0x66E PUSH2 0x2514 JUMP JUMPDEST JUMPDEST SWAP1 PUSH0 MSTORE PUSH1 0x20 PUSH0 KECCAK256 SWAP1 PUSH1 0x5 MUL ADD PUSH0 ADD SLOAD EQ PUSH2 0x6BE JUMPI PUSH1 0x40 MLOAD PUSH32 0x8C379A000000000000000000000000000000000000000000000000000000000 DUP2 MSTORE PUSH1 0x4 ADD PUSH2 0x6B5 SWAP1 PUSH2 0x258B JUMP JUMPDEST PUSH1 0x40 MLOAD DUP1 SWAP2 SUB SWAP1 REVERT JUMPDEST PUSH0 PUSH1 0x1 PUSH0 DUP5 PUSH20 0xFFFFFFFFFFFFFFFFFFFFFFFFFFFFFFFFFFFFFFFF AND PUSH20 0xFFFFFFFFFFFFFFFFFFFFFFFFFFFFFFFFFFFFFFFF AND DUP2 MSTORE PUSH1 0x20 ADD SWAP1 DUP2 MSTORE PUSH1 0x20 ADD PUSH0 KECCAK256 DUP3 DUP2 SLOAD DUP2 LT PUSH2 0x70E JUMPI PUSH2 0x70D PUSH2 0x2514 JUMP JUMPDEST JUMPDEST SWAP1 PUSH0 MSTORE PUSH1 0x20 PUSH0 KECCAK256 SWAP1 PUSH1 0x5 MUL ADD PUSH1 0x4 ADD SLOAD GT PUSH2 0x75E JUMPI PUSH1 0x40 MLOAD PUSH32 0x8C379A000000000000000000000000000000000000000000000000000000000 DUP2 MSTORE PUSH1 0x4 ADD PUSH2 0x755 SWAP1 PUSH2 0x25F3 JUMP JUMPDEST PUSH1 0x40 MLOAD DUP1 SWAP2 SUB SWAP1 REVERT JUMPDEST PUSH1 0x1 PUSH0 DUP4 PUSH20 0xFFFFFFFFFFFFFFFFFFFFFFFFFFFFFFFFFFFFFFFF AND PUSH20 0xFFFFFFFFFFFFFFFFFFFFFFFFFFFFFFFFFFFFFFFF AND DUP2 MSTORE PUSH1 0x20 ADD SWAP1 DUP2 MSTORE PUSH1 0x20 ADD PUSH0 KECCAK256 DUP2 DUP2 SLOAD DUP2 LT PUSH2 0x7AD JUMPI PUSH2 0x7AC PUSH2 0x2514 JUMP JUMPDEST JUMPDEST SWAP1 PUSH0 MSTORE PUSH1 0x20 PUSH0 KECCAK256 SWAP1 PUSH1 0x5 MUL ADD PUSH1 0x4 ADD PUSH0 DUP2 SLOAD DUP1 SWAP3 SWAP2 SWAP1 PUSH2 0x7CC SWAP1 PUSH2 0x263E JUMP JUMPDEST SWAP2 SWAP1 POP SSTORE POP DUP2 PUSH20 0xFFFFFFFFFFFFFFFFFFFFFFFFFFFFFFFFFFFFFFFF AND PUSH32 0xC06FDB2B696E45A97339C90F1D695147E89AD3202C3FF65F8B27D76937E7B515 PUSH1 0x1 PUSH0 CALLER PUSH20 0xFFFFFFFFFFFFFFFFFFFFFFFFFFFFFFFFFFFFFFFF AND PUSH20 0xFFFFFFFFFFFFFFFFFFFFFFFFFFFFFFFFFFFFFFFF AND DUP2 MSTORE PUSH1 0x20 ADD SWAP1 DUP2 MSTORE PUSH1 0x20 ADD PUSH0 KECCAK256 DUP4 DUP2 SLOAD DUP2 LT PUSH2 0x858 JUMPI PUSH2 0x857 PUSH2 0x2514 JUMP JUMPDEST JUMPDEST SWAP1 PUSH0 MSTORE PUSH1 0x20 PUSH0 KECCAK256 SWAP1 PUSH1 0x5 MUL ADD PUSH1 0x4 ADD SLOAD PUSH1 0x40 MLOAD PUSH2 0x875 SWAP2 SWAP1 PUSH2 0x211E JUMP JUMPDEST PUSH1 0x40 MLOAD DUP1 SWAP2 SUB SWAP1 LOG2 POP POP JUMP JUMPDEST PUSH0 PUSH1 0x2 SWAP1 SLOAD SWAP1 PUSH2 0x100 EXP SWAP1 DIV PUSH20 0xFFFFFFFFFFFFFFFFFFFFFFFFFFFFFFFFFFFFFFFF AND PUSH20 0xFFFFFFFFFFFFFFFFFFFFFFFFFFFFFFFFFFFFFFFF AND CALLER PUSH20 0xFFFFFFFFFFFFFFFFFFFFFFFFFFFFFFFFFFFFFFFF AND EQ PUSH2 0x910 JUMPI PUSH1 0x40 MLOAD PUSH32 0x8C379A000000000000000000000000000000000000000000000000000000000 DUP2 MSTORE PUSH1 0x4 ADD PUSH2 0x907 SWAP1 PUSH2 0x26AF JUMP JUMPDEST PUSH1 0x40 MLOAD DUP1 SWAP2 SUB SWAP1 REVERT JUMPDEST DUP1 PUSH0 DUP1 PUSH2 0x100 EXP DUP2 SLOAD DUP2 PUSH2 0xFFFF MUL NOT AND SWAP1 DUP4 PUSH2 0xFFFF AND MUL OR SWAP1 SSTORE POP CALLER PUSH20 0xFFFFFFFFFFFFFFFFFFFFFFFFFFFFFFFFFFFFFFFF AND PUSH32 0x8323D82658670A49EDFF6F681164658B57381017BF33C952FE8A116E1C6B1A67 DUP3 PUSH1 0x40 MLOAD PUSH2 0x971 SWAP2 SWAP1 PUSH2 0x2146 JUMP JUMPDEST PUSH1 0x40 MLOAD DUP1 SWAP2 SUB SWAP1 LOG2 POP JUMP JUMPDEST PUSH0 PUSH1 0x1 PUSH0 CALLER PUSH20 0xFFFFFFFFFFFFFFFFFFFFFFFFFFFFFFFFFFFFFFFF AND PUSH20 0xFFFFFFFFFFFFFFFFFFFFFFFFFFFFFFFFFFFFFFFF AND DUP2 MSTORE PUSH1 0x20 ADD SWAP1 DUP2 MSTORE PUSH1 0x20 ADD PUSH0 KECCAK256 DUP1 SLOAD SWAP1 POP SWAP1 POP SWAP1 JUMP JUMPDEST PUSH0 DUP1 SLOAD SWAP1 PUSH2 0x100 EXP SWAP1 DIV PUSH2 0xFFFF AND DUP2 JUMP JUMPDEST DUP1 PUSH1 0x1 PUSH0 DUP5 PUSH20 0xFFFFFFFFFFFFFFFFFFFFFFFFFFFFFFFFFFFFFFFF AND PUSH20 0xFFFFFFFFFFFFFFFFFFFFFFFFFFFFFFFFFFFFFFFF AND DUP2 MSTORE PUSH1 0x20 ADD SWAP1 DUP2 MSTORE PUSH1 0x20 ADD PUSH0 KECCAK256 DUP3 DUP2 SLOAD DUP2 LT PUSH2 0xA24 JUMPI PUSH2 0xA23 PUSH2 0x2514 JUMP JUMPDEST JUMPDEST SWAP1 PUSH0 MSTORE PUSH1 0x20 PUSH0 KECCAK256 SWAP1 PUSH1 0x5 MUL ADD PUSH0 ADD SLOAD EQ PUSH2 0xA73 JUMPI PUSH1 0x40 MLOAD PUSH32 0x8C379A000000000000000000000000000000000000000000000000000000000 DUP2 MSTORE PUSH1 0x4 ADD PUSH2 0xA6A SWAP1 PUSH2 0x258B JUMP JUMPDEST PUSH1 0x40 MLOAD DUP1 SWAP2 SUB SWAP1 REVERT JUMPDEST PUSH1 0x1 PUSH0 DUP4 PUSH20 0xFFFFFFFFFFFFFFFFFFFFFFFFFFFFFFFFFFFFFFFF AND PUSH20 0xFFFFFFFFFFFFFFFFFFFFFFFFFFFFFFFFFFFFFFFF AND DUP2 MSTORE PUSH1 0x20 ADD SWAP1 DUP2 MSTORE PUSH1 0x20 ADD PUSH0 KECCAK256 DUP2 DUP2 SLOAD DUP2 LT PUSH2 0xAC2 JUMPI PUSH2 0xAC1 PUSH2 0x2514 JUMP JUMPDEST JUMPDEST SWAP1 PUSH0 MSTORE PUSH1 0x20 PUSH0 KECCAK256 SWAP1 PUSH1 0x5 MUL ADD PUSH1 0x4 ADD PUSH0 DUP2 SLOAD DUP1 SWAP3 SWAP2 SWAP1 PUSH2 0xAE1 SWAP1 PUSH2 0x26CD JUMP JUMPDEST SWAP2 SWAP1 POP SSTORE POP DUP2 PUSH20 0xFFFFFFFFFFFFFFFFFFFFFFFFFFFFFFFFFFFFFFFF AND PUSH32 0x8A386948F7E93AB4FCD287C576A77BEBDC96097FF7CE25D207A8242BB1DE398B PUSH1 0x1 PUSH0 CALLER PUSH20 0xFFFFFFFFFFFFFFFFFFFFFFFFFFFFFFFFFFFFFFFF AND PUSH20 0xFFFFFFFFFFFFFFFFFFFFFFFFFFFFFFFFFFFFFFFF AND DUP2 MSTORE PUSH1 0x20 ADD SWAP1 DUP2 MSTORE PUSH1 0x20 ADD PUSH0 KECCAK256 DUP4 DUP2 SLOAD DUP2 LT PUSH2 0xB6D JUMPI PUSH2 0xB6C PUSH2 0x2514 JUMP JUMPDEST JUMPDEST SWAP1 PUSH0 MSTORE PUSH1 0x20 PUSH0 KECCAK256 SWAP1 PUSH1 0x5 MUL ADD PUSH1 0x4 ADD SLOAD PUSH1 0x40 MLOAD PUSH2 0xB8A SWAP2 SWAP1 PUSH2 0x211E JUMP JUMPDEST PUSH1 0x40 MLOAD DUP1 SWAP2 SUB SWAP1 LOG2 POP POP JUMP JUMPDEST PUSH2 0xB9E PUSH2 0x1CDA JUMP JUMPDEST PUSH1 0x1 PUSH0 DUP5 PUSH20 0xFFFFFFFFFFFFFFFFFFFFFFFFFFFFFFFFFFFFFFFF AND PUSH20 0xFFFFFFFFFFFFFFFFFFFFFFFFFFFFFFFFFFFFFFFF AND DUP2 MSTORE PUSH1 0x20 ADD SWAP1 DUP2 MSTORE PUSH1 0x20 ADD PUSH0 KECCAK256 DUP3 DUP2 SLOAD DUP2 LT PUSH2 0xBED JUMPI PUSH2 0xBEC PUSH2 0x2514 JUMP JUMPDEST JUMPDEST SWAP1 PUSH0 MSTORE PUSH1 0x20 PUSH0 KECCAK256 SWAP1 PUSH1 0x5 MUL ADD PUSH1 0x40 MLOAD DUP1 PUSH1 0xA0 ADD PUSH1 0x40 MSTORE SWAP1 DUP2 PUSH0 DUP3 ADD SLOAD DUP2 MSTORE PUSH1 0x20 ADD PUSH1 0x1 DUP3 ADD PUSH0 SWAP1 SLOAD SWAP1 PUSH2 0x100 EXP SWAP1 DIV PUSH20 0xFFFFFFFFFFFFFFFFFFFFFFFFFFFFFFFFFFFFFFFF AND PUSH20 0xFFFFFFFFFFFFFFFFFFFFFFFFFFFFFFFFFFFFFFFF AND PUSH20 0xFFFFFFFFFFFFFFFFFFFFFFFFFFFFFFFFFFFFFFFF AND DUP2 MSTORE PUSH1 0x20 ADD PUSH1 0x2 DUP3 ADD DUP1 SLOAD PUSH2 0xC72 SWAP1 PUSH2 0x24E4 JUMP JUMPDEST DUP1 PUSH1 0x1F ADD PUSH1 0x20 DUP1 SWAP2 DIV MUL PUSH1 0x20 ADD PUSH1 0x40 MLOAD SWAP1 DUP2 ADD PUSH1 0x40 MSTORE DUP1 SWAP3 SWAP2 SWAP1 DUP2 DUP2 MSTORE PUSH1 0x20 ADD DUP3 DUP1 SLOAD PUSH2 0xC9E SWAP1 PUSH2 0x24E4 JUMP JUMPDEST DUP1 ISZERO PUSH2 0xCE9 JUMPI DUP1 PUSH1 0x1F LT PUSH2 0xCC0 JUMPI PUSH2 0x100 DUP1 DUP4 SLOAD DIV MUL DUP4 MSTORE SWAP2 PUSH1 0x20 ADD SWAP2 PUSH2 0xCE9 JUMP JUMPDEST DUP3 ADD SWAP2 SWAP1 PUSH0 MSTORE PUSH1 0x20 PUSH0 KECCAK256 SWAP1 JUMPDEST DUP2 SLOAD DUP2 MSTORE SWAP1 PUSH1 0x1 ADD SWAP1 PUSH1 0x20 ADD DUP1 DUP4 GT PUSH2 0xCCC JUMPI DUP3 SWAP1 SUB PUSH1 0x1F AND DUP3 ADD SWAP2 JUMPDEST POP POP POP POP POP DUP2 MSTORE PUSH1 0x20 ADD PUSH1 0x3 DUP3 ADD SLOAD DUP2 MSTORE PUSH1 0x20 ADD PUSH1 0x4 DUP3 ADD SLOAD DUP2 MSTORE POP POP SWAP1 POP SWAP3 SWAP2 POP POP JUMP JUMPDEST PUSH0 DUP2 MLOAD GT PUSH2 0xD51 JUMPI PUSH1 0x40 MLOAD PUSH32 0x8C379A000000000000000000000000000000000000000000000000000000000 DUP2 MSTORE PUSH1 0x4 ADD PUSH2 0xD48 SWAP1 PUSH2 0x2784 JUMP JUMPDEST PUSH1 0x40 MLOAD DUP1 SWAP2 SUB SWAP1 REVERT JUMPDEST PUSH0 DUP1 SLOAD SWAP1 PUSH2 0x100 EXP SWAP1 DIV PUSH2 0xFFFF AND PUSH2 0xFFFF AND PUSH1 0x1 PUSH0 CALLER PUSH20 0xFFFFFFFFFFFFFFFFFFFFFFFFFFFFFFFFFFFFFFFF AND PUSH20 0xFFFFFFFFFFFFFFFFFFFFFFFFFFFFFFFFFFFFFFFF AND DUP2 MSTORE PUSH1 0x20 ADD SWAP1 DUP2 MSTORE PUSH1 0x20 ADD PUSH0 KECCAK256 DUP1 SLOAD SWAP1 POP LT PUSH2 0xDE4 JUMPI PUSH1 0x40 MLOAD PUSH32 0x8C379A000000000000000000000000000000000000000000000000000000000 DUP2 MSTORE PUSH1 0x4 ADD PUSH2 0xDDB SWAP1 PUSH2 0x27EC JUMP JUMPDEST PUSH1 0x40 MLOAD DUP1 SWAP2 SUB SWAP1 REVERT JUMPDEST PUSH0 PUSH1 0x40 MLOAD DUP1 PUSH1 0xA0 ADD PUSH1 0x40 MSTORE DUP1 PUSH1 0x1 PUSH0 CALLER PUSH20 0xFFFFFFFFFFFFFFFFFFFFFFFFFFFFFFFFFFFFFFFF AND PUSH20 0xFFFFFFFFFFFFFFFFFFFFFFFFFFFFFFFFFFFFFFFF AND DUP2 MSTORE PUSH1 0x20 ADD SWAP1 DUP2 MSTORE PUSH1 0x20 ADD PUSH0 KECCAK256 DUP1 SLOAD SWAP1 POP DUP2 MSTORE PUSH1 0x20 ADD CALLER PUSH20 0xFFFFFFFFFFFFFFFFFFFFFFFFFFFFFFFFFFFFFFFF AND DUP2 MSTORE PUSH1 0x20 ADD DUP4 DUP2 MSTORE PUSH1 0x20 ADD TIMESTAMP DUP2 MSTORE PUSH1 0x20 ADD PUSH0 DUP2 MSTORE POP SWAP1 POP PUSH1 0x1 PUSH0 CALLER PUSH20 0xFFFFFFFFFFFFFFFFFFFFFFFFFFFFFFFFFFFFFFFF AND PUSH20 0xFFFFFFFFFFFFFFFFFFFFFFFFFFFFFFFFFFFFFFFF AND DUP2 MSTORE PUSH1 0x20 ADD SWAP1 DUP2 MSTORE PUSH1 0x20 ADD PUSH0 KECCAK256 DUP2 SWAP1 DUP1 PUSH1 0x1 DUP2 SLOAD ADD DUP1 DUP3 SSTORE DUP1 SWAP2 POP POP PUSH1 0x1 SWAP1 SUB SWAP1 PUSH0 MSTORE PUSH1 0x20 PUSH0 KECCAK256 SWAP1 PUSH1 0x5 MUL ADD PUSH0 SWAP1 SWAP2 SWAP1 SWAP2 SWAP1 SWAP2 POP PUSH0 DUP3 ADD MLOAD DUP2 PUSH0 ADD SSTORE PUSH1 0x20 DUP3 ADD MLOAD DUP2 PUSH1 0x1 ADD PUSH0 PUSH2 0x100 EXP DUP2 SLOAD DUP2 PUSH20 0xFFFFFFFFFFFFFFFFFFFFFFFFFFFFFFFFFFFFFFFF MUL NOT AND SWAP1 DUP4 PUSH20 0xFFFFFFFFFFFFFFFFFFFFFFFFFFFFFFFFFFFFFFFF AND MUL OR SWAP1 SSTORE POP PUSH1 0x40 DUP3 ADD MLOAD DUP2 PUSH1 0x2 ADD SWAP1 DUP2 PUSH2 0xF2B SWAP2 SWAP1 PUSH2 0x29A7 JUMP JUMPDEST POP PUSH1 0x60 DUP3 ADD MLOAD DUP2 PUSH1 0x3 ADD SSTORE PUSH1 0x80 DUP3 ADD MLOAD DUP2 PUSH1 0x4 ADD SSTORE POP POP DUP1 PUSH1 0x20 ADD MLOAD PUSH20 0xFFFFFFFFFFFFFFFFFFFFFFFFFFFFFFFFFFFFFFFF AND PUSH32 0x881EE5E736450A2211622934B24AE6488E14CA8444788D6E26FDBE582D098391 DUP3 PUSH0 ADD MLOAD DUP4 PUSH1 0x40 ADD MLOAD DUP5 PUSH1 0x60 ADD MLOAD DUP6 PUSH1 0x80 ADD MLOAD PUSH1 0x40 MLOAD PUSH2 0xFA1 SWAP5 SWAP4 SWAP3 SWAP2 SWAP1 PUSH2 0x2A76 JUMP JUMPDEST PUSH1 0x40 MLOAD DUP1 SWAP2 SUB SWAP1 LOG2 POP POP JUMP JUMPDEST PUSH0 PUSH1 0x2 SWAP1 SLOAD SWAP1 PUSH2 0x100 EXP SWAP1 DIV PUSH20 0xFFFFFFFFFFFFFFFFFFFFFFFFFFFFFFFFFFFFFFFF AND DUP2 JUMP JUMPDEST PUSH1 0x4 PUSH1 0x20 MSTORE DUP2 PUSH0 MSTORE PUSH1 0x40 PUSH0 KECCAK256 DUP2 DUP2 SLOAD DUP2 LT PUSH2 0xFEB JUMPI PUSH0 DUP1 REVERT JUMPDEST SWAP1 PUSH0 MSTORE PUSH1 0x20 PUSH0 KECCAK256 ADD PUSH0 SWAP2 POP SWAP2 POP SWAP1 SLOAD SWAP1 PUSH2 0x100 EXP SWAP1 DIV PUSH20 0xFFFFFFFFFFFFFFFFFFFFFFFFFFFFFFFFFFFFFFFF AND DUP2 JUMP JUMPDEST PUSH1 0x2 PUSH1 0x20 MSTORE DUP2 PUSH0 MSTORE PUSH1 0x40 PUSH0 KECCAK256 PUSH1 0x20 MSTORE DUP1 PUSH0 MSTORE PUSH1 0x40 PUSH0 KECCAK256 PUSH0 SWAP2 POP SWAP2 POP SWAP1 SLOAD SWAP1 PUSH2 0x100 EXP SWAP1 DIV PUSH1 0xFF AND DUP2 JUMP JUMPDEST CALLER PUSH20 0xFFFFFFFFFFFFFFFFFFFFFFFFFFFFFFFFFFFFFFFF AND DUP2 PUSH20 0xFFFFFFFFFFFFFFFFFFFFFFFFFFFFFFFFFFFFFFFF AND SUB PUSH2 0x10B2 JUMPI PUSH1 0x40 MLOAD PUSH32 0x8C379A000000000000000000000000000000000000000000000000000000000 DUP2 MSTORE PUSH1 0x4 ADD PUSH2 0x10A9 SWAP1 PUSH2 0x2B0A JUMP JUMPDEST PUSH1 0x40 MLOAD DUP1 SWAP2 SUB SWAP1 REVERT JUMPDEST PUSH1 0x2 PUSH0 CALLER PUSH20 0xFFFFFFFFFFFFFFFFFFFFFFFFFFFFFFFFFFFFFFFF AND PUSH20 0xFFFFFFFFFFFFFFFFFFFFFFFFFFFFFFFFFFFFFFFF AND DUP2 MSTORE PUSH1 0x20 ADD SWAP1 DUP2 MSTORE PUSH1 0x20 ADD PUSH0 KECCAK256 PUSH0 DUP3 PUSH20 0xFFFFFFFFFFFFFFFFFFFFFFFFFFFFFFFFFFFFFFFF AND PUSH20 0xFFFFFFFFFFFFFFFFFFFFFFFFFFFFFFFFFFFFFFFF AND DUP2 MSTORE PUSH1 0x20 ADD SWAP1 DUP2 MSTORE PUSH1 0x20 ADD PUSH0 KECCAK256 PUSH0 SWAP1 SLOAD SWAP1 PUSH2 0x100 EXP SWAP1 DIV PUSH1 0xFF AND ISZERO PUSH2 0x1177 JUMPI PUSH1 0x40 MLOAD PUSH32 0x8C379A000000000000000000000000000000000000000000000000000000000 DUP2 MSTORE PUSH1 0x4 ADD PUSH2 0x116E SWAP1 PUSH2 0x2B72 JUMP JUMPDEST PUSH1 0x40 MLOAD DUP1 SWAP2 SUB SWAP1 REVERT JUMPDEST PUSH1 0x1 PUSH1 0x2 PUSH0 CALLER PUSH20 0xFFFFFFFFFFFFFFFFFFFFFFFFFFFFFFFFFFFFFFFF AND PUSH20 0xFFFFFFFFFFFFFFFFFFFFFFFFFFFFFFFFFFFFFFFF AND DUP2 MSTORE PUSH1 0x20 ADD SWAP1 DUP2 MSTORE PUSH1 0x20 ADD PUSH0 KECCAK256 PUSH0 DUP4 PUSH20 0xFFFFFFFFFFFFFFFFFFFFFFFFFFFFFFFFFFFFFFFF AND PUSH20 0xFFFFFFFFFFFFFFFFFFFFFFFFFFFFFFFFFFFFFFFF AND DUP2 MSTORE PUSH1 0x20 ADD SWAP1 DUP2 MSTORE PUSH1 0x20 ADD PUSH0 KECCAK256 PUSH0 PUSH2 0x100 EXP DUP2 SLOAD DUP2 PUSH1 0xFF MUL NOT AND SWAP1 DUP4 ISZERO ISZERO MUL OR SWAP1 SSTORE POP PUSH1 0x3 PUSH0 DUP3 PUSH20 0xFFFFFFFFFFFFFFFFFFFFFFFFFFFFFFFFFFFFFFFF AND PUSH20 0xFFFFFFFFFFFFFFFFFFFFFFFFFFFFFFFFFFFFFFFF AND DUP2 MSTORE PUSH1 0x20 ADD SWAP1 DUP2 MSTORE PUSH1 0x20 ADD PUSH0 KECCAK256 CALLER SWAP1 DUP1 PUSH1 0x1 DUP2 SLOAD ADD DUP1 DUP3 SSTORE DUP1 SWAP2 POP POP PUSH1 0x1 SWAP1 SUB SWAP1 PUSH0 MSTORE PUSH1 0x20 PUSH0 KECCAK256 ADD PUSH0 SWAP1 SWAP2 SWAP1 SWAP2 SWAP1 SWAP2 PUSH2 0x100 EXP DUP2 SLOAD DUP2 PUSH20 0xFFFFFFFFFFFFFFFFFFFFFFFFFFFFFFFFFFFFFFFF MUL NOT AND SWAP1 DUP4 PUSH20 0xFFFFFFFFFFFFFFFFFFFFFFFFFFFFFFFFFFFFFFFF AND MUL OR SWAP1 SSTORE POP PUSH1 0x4 PUSH0 CALLER PUSH20 0xFFFFFFFFFFFFFFFFFFFFFFFFFFFFFFFFFFFFFFFF AND PUSH20 0xFFFFFFFFFFFFFFFFFFFFFFFFFFFFFFFFFFFFFFFF AND DUP2 MSTORE PUSH1 0x20 ADD SWAP1 DUP2 MSTORE PUSH1 0x20 ADD PUSH0 KECCAK256 DUP2 SWAP1 DUP1 PUSH1 0x1 DUP2 SLOAD ADD DUP1 DUP3 SSTORE DUP1 SWAP2 POP POP PUSH1 0x1 SWAP1 SUB SWAP1 PUSH0 MSTORE PUSH1 0x20 PUSH0 KECCAK256 ADD PUSH0 SWAP1 SWAP2 SWAP1 SWAP2 SWAP1 SWAP2 PUSH2 0x100 EXP DUP2 SLOAD DUP2 PUSH20 0xFFFFFFFFFFFFFFFFFFFFFFFFFFFFFFFFFFFFFFFF MUL NOT AND SWAP1 DUP4 PUSH20 0xFFFFFFFFFFFFFFFFFFFFFFFFFFFFFFFFFFFFFFFF AND MUL OR SWAP1 SSTORE POP DUP1 PUSH20 0xFFFFFFFFFFFFFFFFFFFFFFFFFFFFFFFFFFFFFFFF AND CALLER PUSH20 0xFFFFFFFFFFFFFFFFFFFFFFFFFFFFFFFFFFFFFFFF AND PUSH32 0x30B3435B456F45779984DDFA456115EE4C20D9E446979B1B9E90DBB7E12B90B7 PUSH1 0x40 MLOAD PUSH1 0x40 MLOAD DUP1 SWAP2 SUB SWAP1 LOG3 POP JUMP JUMPDEST PUSH1 0x60 PUSH1 0x3 PUSH0 DUP4 PUSH20 0xFFFFFFFFFFFFFFFFFFFFFFFFFFFFFFFFFFFFFFFF AND PUSH20 0xFFFFFFFFFFFFFFFFFFFFFFFFFFFFFFFFFFFFFFFF AND DUP2 MSTORE PUSH1 0x20 ADD SWAP1 DUP2 MSTORE PUSH1 0x20 ADD PUSH0 KECCAK256 DUP1 SLOAD DUP1 PUSH1 0x20 MUL PUSH1 0x20 ADD PUSH1 0x40 MLOAD SWAP1 DUP2 ADD PUSH1 0x40 MSTORE DUP1 SWAP3 SWAP2 SWAP1 DUP2 DUP2 MSTORE PUSH1 0x20 ADD DUP3 DUP1 SLOAD DUP1 ISZERO PUSH2 0x1456 JUMPI PUSH1 0x20 MUL DUP3 ADD SWAP2 SWAP1 PUSH0 MSTORE PUSH1 0x20 PUSH0 KECCAK256 SWAP1 JUMPDEST DUP2 PUSH0 SWAP1 SLOAD SWAP1 PUSH2 0x100 EXP SWAP1 DIV PUSH20 0xFFFFFFFFFFFFFFFFFFFFFFFFFFFFFFFFFFFFFFFF AND PUSH20 0xFFFFFFFFFFFFFFFFFFFFFFFFFFFFFFFFFFFFFFFF AND DUP2 MSTORE PUSH1 0x20 ADD SWAP1 PUSH1 0x1 ADD SWAP1 DUP1 DUP4 GT PUSH2 0x140D JUMPI JUMPDEST POP POP POP POP POP SWAP1 POP SWAP2 SWAP1 POP JUMP JUMPDEST PUSH1 0x60 PUSH1 0x4 PUSH0 DUP4 PUSH20 0xFFFFFFFFFFFFFFFFFFFFFFFFFFFFFFFFFFFFFFFF AND PUSH20 0xFFFFFFFFFFFFFFFFFFFFFFFFFFFFFFFFFFFFFFFF AND DUP2 MSTORE PUSH1 0x20 ADD SWAP1 DUP2 MSTORE PUSH1 0x20 ADD PUSH0 KECCAK256 DUP1 SLOAD DUP1 PUSH1 0x20 MUL PUSH1 0x20 ADD PUSH1 0x40 MLOAD SWAP1 DUP2 ADD PUSH1 0x40 MSTORE DUP1 SWAP3 SWAP2 SWAP1 DUP2 DUP2 MSTORE PUSH1 0x20 ADD DUP3 DUP1 SLOAD DUP1 ISZERO PUSH2 0x151E JUMPI PUSH1 0x20 MUL DUP3 ADD SWAP2 SWAP1 PUSH0 MSTORE PUSH1 0x20 PUSH0 KECCAK256 SWAP1 JUMPDEST DUP2 PUSH0 SWAP1 SLOAD SWAP1 PUSH2 0x100 EXP SWAP1 DIV PUSH20 0xFFFFFFFFFFFFFFFFFFFFFFFFFFFFFFFFFFFFFFFF AND PUSH20 0xFFFFFFFFFFFFFFFFFFFFFFFFFFFFFFFFFFFFFFFF AND DUP2 MSTORE PUSH1 0x20 ADD SWAP1 PUSH1 0x1 ADD SWAP1 DUP1 DUP4 GT PUSH2 0x14D5 JUMPI JUMPDEST POP POP POP POP POP SWAP1 POP SWAP2 SWAP1 POP JUMP JUMPDEST PUSH1 0x3 PUSH1 0x20 MSTORE DUP2 PUSH0 MSTORE PUSH1 0x40 PUSH0 KECCAK256 DUP2 DUP2 SLOAD DUP2 LT PUSH2 0x1543 JUMPI PUSH0 DUP1 REVERT JUMPDEST SWAP1 PUSH0 MSTORE PUSH1 0x20 PUSH0 KECCAK256 ADD PUSH0 SWAP2 POP SWAP2 POP SWAP1 SLOAD SWAP1 PUSH2 0x100 EXP SWAP1 DIV PUSH20 0xFFFFFFFFFFFFFFFFFFFFFFFFFFFFFFFFFFFFFFFF AND DUP2 JUMP JUMPDEST PUSH1 0x2 PUSH0 CALLER PUSH20 0xFFFFFFFFFFFFFFFFFFFFFFFFFFFFFFFFFFFFFFFF AND PUSH20 0xFFFFFFFFFFFFFFFFFFFFFFFFFFFFFFFFFFFFFFFF AND DUP2 MSTORE PUSH1 0x20 ADD SWAP1 DUP2 MSTORE PUSH1 0x20 ADD PUSH0 KECCAK256 PUSH0 DUP3 PUSH20 0xFFFFFFFFFFFFFFFFFFFFFFFFFFFFFFFFFFFFFFFF AND PUSH20 0xFFFFFFFFFFFFFFFFFFFFFFFFFFFFFFFFFFFFFFFF AND DUP2 MSTORE PUSH1 0x20 ADD SWAP1 DUP2 MSTORE PUSH1 0x20 ADD PUSH0 KECCAK256 PUSH0 SWAP1 SLOAD SWAP1 PUSH2 0x100 EXP SWAP1 DIV PUSH1 0xFF AND PUSH2 0x1636 JUMPI PUSH1 0x40 MLOAD PUSH32 0x8C379A000000000000000000000000000000000000000000000000000000000 DUP2 MSTORE PUSH1 0x4 ADD PUSH2 0x162D SWAP1 PUSH2 0x2BDA JUMP JUMPDEST PUSH1 0x40 MLOAD DUP1 SWAP2 SUB SWAP1 REVERT JUMPDEST PUSH0 PUSH1 0x2 PUSH0 CALLER PUSH20 0xFFFFFFFFFFFFFFFFFFFFFFFFFFFFFFFFFFFFFFFF AND PUSH20 0xFFFFFFFFFFFFFFFFFFFFFFFFFFFFFFFFFFFFFFFF AND DUP2 MSTORE PUSH1 0x20 ADD SWAP1 DUP2 MSTORE PUSH1 0x20 ADD PUSH0 KECCAK256 PUSH0 DUP4 PUSH20 0xFFFFFFFFFFFFFFFFFFFFFFFFFFFFFFFFFFFFFFFF AND PUSH20 0xFFFFFFFFFFFFFFFFFFFFFFFFFFFFFFFFFFFFFFFF AND DUP2 MSTORE PUSH1 0x20 ADD SWAP1 DUP2 MSTORE PUSH1 0x20 ADD PUSH0 KECCAK256 PUSH0 PUSH2 0x100 EXP DUP2 SLOAD DUP2 PUSH1 0xFF MUL NOT AND SWAP1 DUP4 ISZERO ISZERO MUL OR SWAP1 SSTORE POP PUSH0 JUMPDEST PUSH1 0x4 PUSH0 CALLER PUSH20 0xFFFFFFFFFFFFFFFFFFFFFFFFFFFFFFFFFFFFFFFF AND PUSH20 0xFFFFFFFFFFFFFFFFFFFFFFFFFFFFFFFFFFFFFFFF AND DUP2 MSTORE PUSH1 0x20 ADD SWAP1 DUP2 MSTORE PUSH1 0x20 ADD PUSH0 KECCAK256 DUP1 SLOAD SWAP1 POP DUP2 LT ISZERO PUSH2 0x19A0 JUMPI DUP2 PUSH20 0xFFFFFFFFFFFFFFFFFFFFFFFFFFFFFFFFFFFFFFFF AND PUSH1 0x4 PUSH0 CALLER PUSH20 0xFFFFFFFFFFFFFFFFFFFFFFFFFFFFFFFFFFFFFFFF AND PUSH20 0xFFFFFFFFFFFFFFFFFFFFFFFFFFFFFFFFFFFFFFFF AND DUP2 MSTORE PUSH1 0x20 ADD SWAP1 DUP2 MSTORE PUSH1 0x20 ADD PUSH0 KECCAK256 DUP3 DUP2 SLOAD DUP2 LT PUSH2 0x1775 JUMPI PUSH2 0x1774 PUSH2 0x2514 JUMP JUMPDEST JUMPDEST SWAP1 PUSH0 MSTORE PUSH1 0x20 PUSH0 KECCAK256 ADD PUSH0 SWAP1 SLOAD SWAP1 PUSH2 0x100 EXP SWAP1 DIV PUSH20 0xFFFFFFFFFFFFFFFFFFFFFFFFFFFFFFFFFFFFFFFF AND PUSH20 0xFFFFFFFFFFFFFFFFFFFFFFFFFFFFFFFFFFFFFFFF AND SUB PUSH2 0x1993 JUMPI PUSH1 0x4 PUSH0 CALLER PUSH20 0xFFFFFFFFFFFFFFFFFFFFFFFFFFFFFFFFFFFFFFFF AND PUSH20 0xFFFFFFFFFFFFFFFFFFFFFFFFFFFFFFFFFFFFFFFF AND DUP2 MSTORE PUSH1 0x20 ADD SWAP1 DUP2 MSTORE PUSH1 0x20 ADD PUSH0 KECCAK256 PUSH1 0x1 PUSH1 0x4 PUSH0 CALLER PUSH20 0xFFFFFFFFFFFFFFFFFFFFFFFFFFFFFFFFFFFFFFFF AND PUSH20 0xFFFFFFFFFFFFFFFFFFFFFFFFFFFFFFFFFFFFFFFF AND DUP2 MSTORE PUSH1 0x20 ADD SWAP1 DUP2 MSTORE PUSH1 0x20 ADD PUSH0 KECCAK256 DUP1 SLOAD SWAP1 POP PUSH2 0x1842 SWAP2 SWAP1 PUSH2 0x2BF8 JUMP JUMPDEST DUP2 SLOAD DUP2 LT PUSH2 0x1853 JUMPI PUSH2 0x1852 PUSH2 0x2514 JUMP JUMPDEST JUMPDEST SWAP1 PUSH0 MSTORE PUSH1 0x20 PUSH0 KECCAK256 ADD PUSH0 SWAP1 SLOAD SWAP1 PUSH2 0x100 EXP SWAP1 DIV PUSH20 0xFFFFFFFFFFFFFFFFFFFFFFFFFFFFFFFFFFFFFFFF AND PUSH1 0x4 PUSH0 CALLER PUSH20 0xFFFFFFFFFFFFFFFFFFFFFFFFFFFFFFFFFFFFFFFF AND PUSH20 0xFFFFFFFFFFFFFFFFFFFFFFFFFFFFFFFFFFFFFFFF AND DUP2 MSTORE PUSH1 0x20 ADD SWAP1 DUP2 MSTORE PUSH1 0x20 ADD PUSH0 KECCAK256 DUP3 DUP2 SLOAD DUP2 LT PUSH2 0x18CA JUMPI PUSH2 0x18C9 PUSH2 0x2514 JUMP JUMPDEST JUMPDEST SWAP1 PUSH0 MSTORE PUSH1 0x20 PUSH0 KECCAK256 ADD PUSH0 PUSH2 0x100 EXP DUP2 SLOAD DUP2 PUSH20 0xFFFFFFFFFFFFFFFFFFFFFFFFFFFFFFFFFFFFFFFF MUL NOT AND SWAP1 DUP4 PUSH20 0xFFFFFFFFFFFFFFFFFFFFFFFFFFFFFFFFFFFFFFFF AND MUL OR SWAP1 SSTORE POP PUSH1 0x4 PUSH0 CALLER PUSH20 0xFFFFFFFFFFFFFFFFFFFFFFFFFFFFFFFFFFFFFFFF AND PUSH20 0xFFFFFFFFFFFFFFFFFFFFFFFFFFFFFFFFFFFFFFFF AND DUP2 MSTORE PUSH1 0x20 ADD SWAP1 DUP2 MSTORE PUSH1 0x20 ADD PUSH0 KECCAK256 DUP1 SLOAD DUP1 PUSH2 0x195C JUMPI PUSH2 0x195B PUSH2 0x2C2B JUMP JUMPDEST JUMPDEST PUSH1 0x1 SWAP1 SUB DUP2 DUP2 SWAP1 PUSH0 MSTORE PUSH1 0x20 PUSH0 KECCAK256 ADD PUSH0 PUSH2 0x100 EXP DUP2 SLOAD SWAP1 PUSH20 0xFFFFFFFFFFFFFFFFFFFFFFFFFFFFFFFFFFFFFFFF MUL NOT AND SWAP1 SSTORE SWAP1 SSTORE PUSH2 0x19A0 JUMP JUMPDEST DUP1 DUP1 PUSH1 0x1 ADD SWAP2 POP POP PUSH2 0x16C7 JUMP JUMPDEST POP PUSH0 JUMPDEST PUSH1 0x3 PUSH0 DUP4 PUSH20 0xFFFFFFFFFFFFFFFFFFFFFFFFFFFFFFFFFFFFFFFF AND PUSH20 0xFFFFFFFFFFFFFFFFFFFFFFFFFFFFFFFFFFFFFFFF AND DUP2 MSTORE PUSH1 0x20 ADD SWAP1 DUP2 MSTORE PUSH1 0x20 ADD PUSH0 KECCAK256 DUP1 SLOAD SWAP1 POP DUP2 LT ISZERO PUSH2 0x1C7C JUMPI CALLER PUSH20 0xFFFFFFFFFFFFFFFFFFFFFFFFFFFFFFFFFFFFFFFF AND PUSH1 0x3 PUSH0 DUP5 PUSH20 0xFFFFFFFFFFFFFFFFFFFFFFFFFFFFFFFFFFFFFFFF AND PUSH20 0xFFFFFFFFFFFFFFFFFFFFFFFFFFFFFFFFFFFFFFFF AND DUP2 MSTORE PUSH1 0x20 ADD SWAP1 DUP2 MSTORE PUSH1 0x20 ADD PUSH0 KECCAK256 DUP3 DUP2 SLOAD DUP2 LT PUSH2 0x1A51 JUMPI PUSH2 0x1A50 PUSH2 0x2514 JUMP JUMPDEST JUMPDEST SWAP1 PUSH0 MSTORE PUSH1 0x20 PUSH0 KECCAK256 ADD PUSH0 SWAP1 SLOAD SWAP1 PUSH2 0x100 EXP SWAP1 DIV PUSH20 0xFFFFFFFFFFFFFFFFFFFFFFFFFFFFFFFFFFFFFFFF AND PUSH20 0xFFFFFFFFFFFFFFFFFFFFFFFFFFFFFFFFFFFFFFFF AND SUB PUSH2 0x1C6F JUMPI PUSH1 0x3 PUSH0 DUP4 PUSH20 0xFFFFFFFFFFFFFFFFFFFFFFFFFFFFFFFFFFFFFFFF AND PUSH20 0xFFFFFFFFFFFFFFFFFFFFFFFFFFFFFFFFFFFFFFFF AND DUP2 MSTORE PUSH1 0x20 ADD SWAP1 DUP2 MSTORE PUSH1 0x20 ADD PUSH0 KECCAK256 PUSH1 0x1 PUSH1 0x3 PUSH0 DUP6 PUSH20 0xFFFFFFFFFFFFFFFFFFFFFFFFFFFFFFFFFFFFFFFF AND PUSH20 0xFFFFFFFFFFFFFFFFFFFFFFFFFFFFFFFFFFFFFFFF AND DUP2 MSTORE PUSH1 0x20 ADD SWAP1 DUP2 MSTORE PUSH1 0x20 ADD PUSH0 KECCAK256 DUP1 SLOAD SWAP1 POP PUSH2 0x1B1E SWAP2 SWAP1 PUSH2 0x2BF8 JUMP JUMPDEST DUP2 SLOAD DUP2 LT PUSH2 0x1B2F JUMPI PUSH2 0x1B2E PUSH2 0x2514 JUMP JUMPDEST JUMPDEST SWAP1 PUSH0 MSTORE PUSH1 0x20 PUSH0 KECCAK256 ADD PUSH0 SWAP1 SLOAD SWAP1 PUSH2 0x100 EXP SWAP1 DIV PUSH20 0xFFFFFFFFFFFFFFFFFFFFFFFFFFFFFFFFFFFFFFFF AND PUSH1 0x3 PUSH0 DUP5 PUSH20 0xFFFFFFFFFFFFFFFFFFFFFFFFFFFFFFFFFFFFFFFF AND PUSH20 0xFFFFFFFFFFFFFFFFFFFFFFFFFFFFFFFFFFFFFFFF AND DUP2 MSTORE PUSH1 0x20 ADD SWAP1 DUP2 MSTORE PUSH1 0x20 ADD PUSH0 KECCAK256 DUP3 DUP2 SLOAD DUP2 LT PUSH2 0x1BA6 JUMPI PUSH2 0x1BA5 PUSH2 0x2514 JUMP JUMPDEST JUMPDEST SWAP1 PUSH0 MSTORE PUSH1 0x20 PUSH0 KECCAK256 ADD PUSH0 PUSH2 0x100 EXP DUP2 SLOAD DUP2 PUSH20 0xFFFFFFFFFFFFFFFFFFFFFFFFFFFFFFFFFFFFFFFF MUL NOT AND SWAP1 DUP4 PUSH20 0xFFFFFFFFFFFFFFFFFFFFFFFFFFFFFFFFFFFFFFFF AND MUL OR SWAP1 SSTORE POP PUSH1 0x3 PUSH0 DUP4 PUSH20 0xFFFFFFFFFFFFFFFFFFFFFFFFFFFFFFFFFFFFFFFF AND PUSH20 0xFFFFFFFFFFFFFFFFFFFFFFFFFFFFFFFFFFFFFFFF AND DUP2 MSTORE PUSH1 0x20 ADD SWAP1 DUP2 MSTORE PUSH1 0x20 ADD PUSH0 KECCAK256 DUP1 SLOAD DUP1 PUSH2 0x1C38 JUMPI PUSH2 0x1C37 PUSH2 0x2C2B JUMP JUMPDEST JUMPDEST PUSH1 0x1 SWAP1 SUB DUP2 DUP2 SWAP1 PUSH0 MSTORE PUSH1 0x20 PUSH0 KECCAK256 ADD PUSH0 PUSH2 0x100 EXP DUP2 SLOAD SWAP1 PUSH20 0xFFFFFFFFFFFFFFFFFFFFFFFFFFFFFFFFFFFFFFFF MUL NOT AND SWAP1 SSTORE SWAP1 SSTORE PUSH2 0x1C7C JUMP JUMPDEST DUP1 DUP1 PUSH1 0x1 ADD SWAP2 POP POP PUSH2 0x19A3 JUMP JUMPDEST POP DUP1 PUSH20 0xFFFFFFFFFFFFFFFFFFFFFFFFFFFFFFFFFFFFFFFF AND CALLER PUSH20 0xFFFFFFFFFFFFFFFFFFFFFFFFFFFFFFFFFFFFFFFF AND PUSH32 0xE7339343C6EDFF57F2D15278C419523844CEA30AE5EE2146AA22CB9E3107DAB7 PUSH1 0x40 MLOAD PUSH1 0x40 MLOAD DUP1 SWAP2 SUB SWAP1 LOG3 POP JUMP JUMPDEST PUSH1 0x40 MLOAD DUP1 PUSH1 0xA0 ADD PUSH1 0x40 MSTORE DUP1 PUSH0 DUP2 MSTORE PUSH1 0x20 ADD PUSH0 PUSH20 0xFFFFFFFFFFFFFFFFFFFFFFFFFFFFFFFFFFFFFFFF AND DUP2 MSTORE PUSH1 0x20 ADD PUSH1 0x60 DUP2 MSTORE PUSH1 0x20 ADD PUSH0 DUP2 MSTORE PUSH1 0x20 ADD PUSH0 DUP2 MSTORE POP SWAP1 JUMP JUMPDEST PUSH0 PUSH1 0x40 MLOAD SWAP1 POP SWAP1 JUMP JUMPDEST PUSH0 DUP1 REVERT JUMPDEST PUSH0 DUP1 REVERT JUMPDEST PUSH0 PUSH20 0xFFFFFFFFFFFFFFFFFFFFFFFFFFFFFFFFFFFFFFFF DUP3 AND SWAP1 POP SWAP2 SWAP1 POP JUMP JUMPDEST PUSH0 PUSH2 0x1D55 DUP3 PUSH2 0x1D2C JUMP JUMPDEST SWAP1 POP SWAP2 SWAP1 POP JUMP JUMPDEST PUSH2 0x1D65 DUP2 PUSH2 0x1D4B JUMP JUMPDEST DUP2 EQ PUSH2 0x1D6F JUMPI PUSH0 DUP1 REVERT JUMPDEST POP JUMP JUMPDEST PUSH0 DUP2 CALLDATALOAD SWAP1 POP PUSH2 0x1D80 DUP2 PUSH2 0x1D5C JUMP JUMPDEST SWAP3 SWAP2 POP POP JUMP JUMPDEST PUSH0 DUP2 SWAP1 POP SWAP2 SWAP1 POP JUMP JUMPDEST PUSH2 0x1D98 DUP2 PUSH2 0x1D86 JUMP JUMPDEST DUP2 EQ PUSH2 0x1DA2 JUMPI PUSH0 DUP1 REVERT JUMPDEST POP JUMP JUMPDEST PUSH0 DUP2 CALLDATALOAD SWAP1 POP PUSH2 0x1DB3 DUP2 PUSH2 0x1D8F JUMP JUMPDEST SWAP3 SWAP2 POP POP JUMP JUMPDEST PUSH0 DUP1 PUSH1 0x40 DUP4 DUP6 SUB SLT ISZERO PUSH2 0x1DCF JUMPI PUSH2 0x1DCE PUSH2 0x1D24 JUMP JUMPDEST JUMPDEST PUSH0 PUSH2 0x1DDC DUP6 DUP3 DUP7 ADD PUSH2 0x1D72 JUMP JUMPDEST SWAP3 POP POP PUSH1 0x20 PUSH2 0x1DED DUP6 DUP3 DUP7 ADD PUSH2 0x1DA5 JUMP JUMPDEST SWAP2 POP POP SWAP3 POP SWAP3 SWAP1 POP JUMP JUMPDEST PUSH2 0x1E00 DUP2 PUSH2 0x1D86 JUMP JUMPDEST DUP3 MSTORE POP POP JUMP JUMPDEST PUSH2 0x1E0F DUP2 PUSH2 0x1D4B JUMP JUMPDEST DUP3 MSTORE POP POP JUMP JUMPDEST PUSH0 DUP2 MLOAD SWAP1 POP SWAP2 SWAP1 POP JUMP JUMPDEST PUSH0 DUP3 DUP3 MSTORE PUSH1 0x20 DUP3 ADD SWAP1 POP SWAP3 SWAP2 POP POP JUMP JUMPDEST DUP3 DUP2 DUP4 MCOPY PUSH0 DUP4 DUP4 ADD MSTORE POP POP POP JUMP JUMPDEST PUSH0 PUSH1 0x1F NOT PUSH1 0x1F DUP4 ADD AND SWAP1 POP SWAP2 SWAP1 POP JUMP JUMPDEST PUSH0 PUSH2 0x1E57 DUP3 PUSH2 0x1E15 JUMP JUMPDEST PUSH2 0x1E61 DUP2 DUP6 PUSH2 0x1E1F JUMP JUMPDEST SWAP4 POP PUSH2 0x1E71 DUP2 DUP6 PUSH1 0x20 DUP7 ADD PUSH2 0x1E2F JUMP JUMPDEST PUSH2 0x1E7A DUP2 PUSH2 0x1E3D JUMP JUMPDEST DUP5 ADD SWAP2 POP POP SWAP3 SWAP2 POP POP JUMP JUMPDEST PUSH0 PUSH1 0xA0 DUP3 ADD SWAP1 POP PUSH2 0x1E98 PUSH0 DUP4 ADD DUP9 PUSH2 0x1DF7 JUMP JUMPDEST PUSH2 0x1EA5 PUSH1 0x20 DUP4 ADD DUP8 PUSH2 0x1E06 JUMP JUMPDEST DUP2 DUP2 SUB PUSH1 0x40 DUP4 ADD MSTORE PUSH2 0x1EB7 DUP2 DUP7 PUSH2 0x1E4D JUMP JUMPDEST SWAP1 POP PUSH2 0x1EC6 PUSH1 0x60 DUP4 ADD DUP6 PUSH2 0x1DF7 JUMP JUMPDEST PUSH2 0x1ED3 PUSH1 0x80 DUP4 ADD DUP5 PUSH2 0x1DF7 JUMP JUMPDEST SWAP7 SWAP6 POP POP POP POP POP POP JUMP JUMPDEST PUSH0 PUSH1 0x20 DUP3 DUP5 SUB SLT ISZERO PUSH2 0x1EF2 JUMPI PUSH2 0x1EF1 PUSH2 0x1D24 JUMP JUMPDEST JUMPDEST PUSH0 PUSH2 0x1EFF DUP5 DUP3 DUP6 ADD PUSH2 0x1D72 JUMP JUMPDEST SWAP2 POP POP SWAP3 SWAP2 POP POP JUMP JUMPDEST PUSH0 DUP2 MLOAD SWAP1 POP SWAP2 SWAP1 POP JUMP JUMPDEST PUSH0 DUP3 DUP3 MSTORE PUSH1 0x20 DUP3 ADD SWAP1 POP SWAP3 SWAP2 POP POP JUMP JUMPDEST PUSH0 DUP2 SWAP1 POP PUSH1 0x20 DUP3 ADD SWAP1 POP SWAP2 SWAP1 POP JUMP JUMPDEST PUSH2 0x1F3A DUP2 PUSH2 0x1D86 JUMP JUMPDEST DUP3 MSTORE POP POP JUMP JUMPDEST PUSH2 0x1F49 DUP2 PUSH2 0x1D4B JUMP JUMPDEST DUP3 MSTORE POP POP JUMP JUMPDEST PUSH0 DUP3 DUP3 MSTORE PUSH1 0x20 DUP3 ADD SWAP1 POP SWAP3 SWAP2 POP POP JUMP JUMPDEST PUSH0 PUSH2 0x1F69 DUP3 PUSH2 0x1E15 JUMP JUMPDEST PUSH2 0x1F73 DUP2 DUP6 PUSH2 0x1F4F JUMP JUMPDEST SWAP4 POP PUSH2 0x1F83 DUP2 DUP6 PUSH1 0x20 DUP7 ADD PUSH2 0x1E2F JUMP JUMPDEST PUSH2 0x1F8C DUP2 PUSH2 0x1E3D JUMP JUMPDEST DUP5 ADD SWAP2 POP POP SWAP3 SWAP2 POP POP JUMP JUMPDEST PUSH0 PUSH1 0xA0 DUP4 ADD PUSH0 DUP4 ADD MLOAD PUSH2 0x1FAC PUSH0 DUP7 ADD DUP3 PUSH2 0x1F31 JUMP JUMPDEST POP PUSH1 0x20 DUP4 ADD MLOAD PUSH2 0x1FBF PUSH1 0x20 DUP7 ADD DUP3 PUSH2 0x1F40 JUMP JUMPDEST POP PUSH1 0x40 DUP4 ADD MLOAD DUP5 DUP3 SUB PUSH1 0x40 DUP7 ADD MSTORE PUSH2 0x1FD7 DUP3 DUP3 PUSH2 0x1F5F JUMP JUMPDEST SWAP2 POP POP PUSH1 0x60 DUP4 ADD MLOAD PUSH2 0x1FEC PUSH1 0x60 DUP7 ADD DUP3 PUSH2 0x1F31 JUMP JUMPDEST POP PUSH1 0x80 DUP4 ADD MLOAD PUSH2 0x1FFF PUSH1 0x80 DUP7 ADD DUP3 PUSH2 0x1F31 JUMP JUMPDEST POP DUP1 SWAP2 POP POP SWAP3 SWAP2 POP POP JUMP JUMPDEST PUSH0 PUSH2 0x2015 DUP4 DUP4 PUSH2 0x1F97 JUMP JUMPDEST SWAP1 POP SWAP3 SWAP2 POP POP JUMP JUMPDEST PUSH0 PUSH1 0x20 DUP3 ADD SWAP1 POP SWAP2 SWAP1 POP JUMP JUMPDEST PUSH0 PUSH2 0x2033 DUP3 PUSH2 0x1F08 JUMP JUMPDEST PUSH2 0x203D DUP2 DUP6 PUSH2 0x1F12 JUMP JUMPDEST SWAP4 POP DUP4 PUSH1 0x20 DUP3 MUL DUP6 ADD PUSH2 0x204F DUP6 PUSH2 0x1F22 JUMP JUMPDEST DUP1 PUSH0 JUMPDEST DUP6 DUP2 LT ISZERO PUSH2 0x208A JUMPI DUP5 DUP5 SUB DUP10 MSTORE DUP2 MLOAD PUSH2 0x206B DUP6 DUP3 PUSH2 0x200A JUMP JUMPDEST SWAP5 POP PUSH2 0x2076 DUP4 PUSH2 0x201D JUMP JUMPDEST SWAP3 POP PUSH1 0x20 DUP11 ADD SWAP10 POP POP PUSH1 0x1 DUP2 ADD SWAP1 POP PUSH2 0x2052 JUMP JUMPDEST POP DUP3 SWAP8 POP DUP8 SWAP6 POP POP POP POP POP POP SWAP3 SWAP2 POP POP JUMP JUMPDEST PUSH0 PUSH1 0x20 DUP3 ADD SWAP1 POP DUP2 DUP2 SUB PUSH0 DUP4 ADD MSTORE PUSH2 0x20B4 DUP2 DUP5 PUSH2 0x2029 JUMP JUMPDEST SWAP1 POP SWAP3 SWAP2 POP POP JUMP JUMPDEST PUSH0 PUSH2 0xFFFF DUP3 AND SWAP1 POP SWAP2 SWAP1 POP JUMP JUMPDEST PUSH2 0x20D2 DUP2 PUSH2 0x20BC JUMP JUMPDEST DUP2 EQ PUSH2 0x20DC JUMPI PUSH0 DUP1 REVERT JUMPDEST POP JUMP JUMPDEST PUSH0 DUP2 CALLDATALOAD SWAP1 POP PUSH2 0x20ED DUP2 PUSH2 0x20C9 JUMP JUMPDEST SWAP3 SWAP2 POP POP JUMP JUMPDEST PUSH0 PUSH1 0x20 DUP3 DUP5 SUB SLT ISZERO PUSH2 0x2108 JUMPI PUSH2 0x2107 PUSH2 0x1D24 JUMP JUMPDEST JUMPDEST PUSH0 PUSH2 0x2115 DUP5 DUP3 DUP6 ADD PUSH2 0x20DF JUMP JUMPDEST SWAP2 POP POP SWAP3 SWAP2 POP POP JUMP JUMPDEST PUSH0 PUSH1 0x20 DUP3 ADD SWAP1 POP PUSH2 0x2131 PUSH0 DUP4 ADD DUP5 PUSH2 0x1DF7 JUMP JUMPDEST SWAP3 SWAP2 POP POP JUMP JUMPDEST PUSH2 0x2140 DUP2 PUSH2 0x20BC JUMP JUMPDEST DUP3 MSTORE POP POP JUMP JUMPDEST PUSH0 PUSH1 0x20 DUP3 ADD SWAP1 POP PUSH2 0x2159 PUSH0 DUP4 ADD DUP5 PUSH2 0x2137 JUMP JUMPDEST SWAP3 SWAP2 POP POP JUMP JUMPDEST PUSH0 PUSH1 0xA0 DUP4 ADD PUSH0 DUP4 ADD MLOAD PUSH2 0x2174 PUSH0 DUP7 ADD DUP3 PUSH2 0x1F31 JUMP JUMPDEST POP PUSH1 0x20 DUP4 ADD MLOAD PUSH2 0x2187 PUSH1 0x20 DUP7 ADD DUP3 PUSH2 0x1F40 JUMP JUMPDEST POP PUSH1 0x40 DUP4 ADD MLOAD DUP5 DUP3 SUB PUSH1 0x40 DUP7 ADD MSTORE PUSH2 0x219F DUP3 DUP3 PUSH2 0x1F5F JUMP JUMPDEST SWAP2 POP POP PUSH1 0x60 DUP4 ADD MLOAD PUSH2 0x21B4 PUSH1 0x60 DUP7 ADD DUP3 PUSH2 0x1F31 JUMP JUMPDEST POP PUSH1 0x80 DUP4 ADD MLOAD PUSH2 0x21C7 PUSH1 0x80 DUP7 ADD DUP3 PUSH2 0x1F31 JUMP JUMPDEST POP DUP1 SWAP2 POP POP SWAP3 SWAP2 POP POP JUMP JUMPDEST PUSH0 PUSH1 0x20 DUP3 ADD SWAP1 POP DUP2 DUP2 SUB PUSH0 DUP4 ADD MSTORE PUSH2 0x21EA DUP2 DUP5 PUSH2 0x215F JUMP JUMPDEST SWAP1 POP SWAP3 SWAP2 POP POP JUMP JUMPDEST PUSH0 DUP1 REVERT JUMPDEST PUSH0 DUP1 REVERT JUMPDEST PUSH32 0x4E487B7100000000000000000000000000000000000000000000000000000000 PUSH0 MSTORE PUSH1 0x41 PUSH1 0x4 MSTORE PUSH1 0x24 PUSH0 REVERT JUMPDEST PUSH2 0x2230 DUP3 PUSH2 0x1E3D JUMP JUMPDEST DUP2 ADD DUP2 DUP2 LT PUSH8 0xFFFFFFFFFFFFFFFF DUP3 GT OR ISZERO PUSH2 0x224F JUMPI PUSH2 0x224E PUSH2 0x21FA JUMP JUMPDEST JUMPDEST DUP1 PUSH1 0x40 MSTORE POP POP POP JUMP JUMPDEST PUSH0 PUSH2 0x2261 PUSH2 0x1D1B JUMP JUMPDEST SWAP1 POP PUSH2 0x226D DUP3 DUP3 PUSH2 0x2227 JUMP JUMPDEST SWAP2 SWAP1 POP JUMP JUMPDEST PUSH0 PUSH8 0xFFFFFFFFFFFFFFFF DUP3 GT ISZERO PUSH2 0x228C JUMPI PUSH2 0x228B PUSH2 0x21FA JUMP JUMPDEST JUMPDEST PUSH2 0x2295 DUP3 PUSH2 0x1E3D JUMP JUMPDEST SWAP1 POP PUSH1 0x20 DUP2 ADD SWAP1 POP SWAP2 SWAP1 POP JUMP JUMPDEST DUP3 DUP2 DUP4 CALLDATACOPY PUSH0 DUP4 DUP4 ADD MSTORE POP POP POP JUMP JUMPDEST PUSH0 PUSH2 0x22C2 PUSH2 0x22BD DUP5 PUSH2 0x2272 JUMP JUMPDEST PUSH2 0x2258 JUMP JUMPDEST SWAP1 POP DUP3 DUP2 MSTORE PUSH1 0x20 DUP2 ADD DUP5 DUP5 DUP5 ADD GT ISZERO PUSH2 0x22DE JUMPI PUSH2 0x22DD PUSH2 0x21F6 JUMP JUMPDEST JUMPDEST PUSH2 0x22E9 DUP5 DUP3 DUP6 PUSH2 0x22A2 JUMP JUMPDEST POP SWAP4 SWAP3 POP POP POP JUMP JUMPDEST PUSH0 DUP3 PUSH1 0x1F DUP4 ADD SLT PUSH2 0x2305 JUMPI PUSH2 0x2304 PUSH2 0x21F2 JUMP JUMPDEST JUMPDEST DUP2 CALLDATALOAD PUSH2 0x2315 DUP5 DUP3 PUSH1 0x20 DUP7 ADD PUSH2 0x22B0 JUMP JUMPDEST SWAP2 POP POP SWAP3 SWAP2 POP POP JUMP JUMPDEST PUSH0 PUSH1 0x20 DUP3 DUP5 SUB SLT ISZERO PUSH2 0x2333 JUMPI PUSH2 0x2332 PUSH2 0x1D24 JUMP JUMPDEST JUMPDEST PUSH0 DUP3 ADD CALLDATALOAD PUSH8 0xFFFFFFFFFFFFFFFF DUP2 GT ISZERO PUSH2 0x2350 JUMPI PUSH2 0x234F PUSH2 0x1D28 JUMP JUMPDEST JUMPDEST PUSH2 0x235C DUP5 DUP3 DUP6 ADD PUSH2 0x22F1 JUMP JUMPDEST SWAP2 POP POP SWAP3 SWAP2 POP POP JUMP JUMPDEST PUSH0 PUSH1 0x20 DUP3 ADD SWAP1 POP PUSH2 0x2378 PUSH0 DUP4 ADD DUP5 PUSH2 0x1E06 JUMP JUMPDEST SWAP3 SWAP2 POP POP JUMP JUMPDEST PUSH0 DUP1 PUSH1 0x40 DUP4 DUP6 SUB SLT ISZERO PUSH2 0x2394 JUMPI PUSH2 0x2393 PUSH2 0x1D24 JUMP JUMPDEST JUMPDEST PUSH0 PUSH2 0x23A1 DUP6 DUP3 DUP7 ADD PUSH2 0x1D72 JUMP JUMPDEST SWAP3 POP POP PUSH1 0x20 PUSH2 0x23B2 DUP6 DUP3 DUP7 ADD PUSH2 0x1D72 JUMP JUMPDEST SWAP2 POP POP SWAP3 POP SWAP3 SWAP1 POP JUMP JUMPDEST PUSH0 DUP2 ISZERO ISZERO SWAP1 POP SWAP2 SWAP1 POP JUMP JUMPDEST PUSH2 0x23D0 DUP2 PUSH2 0x23BC JUMP JUMPDEST DUP3 MSTORE POP POP JUMP JUMPDEST PUSH0 PUSH1 0x20 DUP3 ADD SWAP1 POP PUSH2 0x23E9 PUSH0 DUP4 ADD DUP5 PUSH2 0x23C7 JUMP JUMPDEST SWAP3 SWAP2 POP POP JUMP JUMPDEST PUSH0 DUP2 MLOAD SWAP1 POP SWAP2 SWAP1 POP JUMP JUMPDEST PUSH0 DUP3 DUP3 MSTORE PUSH1 0x20 DUP3 ADD SWAP1 POP SWAP3 SWAP2 POP POP JUMP JUMPDEST PUSH0 DUP2 SWAP1 POP PUSH1 0x20 DUP3 ADD SWAP1 POP SWAP2 SWAP1 POP JUMP JUMPDEST PUSH0 PUSH2 0x2423 DUP4 DUP4 PUSH2 0x1F40 JUMP JUMPDEST PUSH1 0x20 DUP4 ADD SWAP1 POP SWAP3 SWAP2 POP POP JUMP JUMPDEST PUSH0 PUSH1 0x20 DUP3 ADD SWAP1 POP SWAP2 SWAP1 POP JUMP JUMPDEST PUSH0 PUSH2 0x2445 DUP3 PUSH2 0x23EF JUMP JUMPDEST PUSH2 0x244F DUP2 DUP6 PUSH2 0x23F9 JUMP JUMPDEST SWAP4 POP PUSH2 0x245A DUP4 PUSH2 0x2409 JUMP JUMPDEST DUP1 PUSH0 JUMPDEST DUP4 DUP2 LT ISZERO PUSH2 0x248A JUMPI DUP2 MLOAD PUSH2 0x2471 DUP9 DUP3 PUSH2 0x2418 JUMP JUMPDEST SWAP8 POP PUSH2 0x247C DUP4 PUSH2 0x242F JUMP JUMPDEST SWAP3 POP POP PUSH1 0x1 DUP2 ADD SWAP1 POP PUSH2 0x245D JUMP JUMPDEST POP DUP6 SWAP4 POP POP POP POP SWAP3 SWAP2 POP POP JUMP JUMPDEST PUSH0 PUSH1 0x20 DUP3 ADD SWAP1 POP DUP2 DUP2 SUB PUSH0 DUP4 ADD MSTORE PUSH2 0x24AF DUP2 DUP5 PUSH2 0x243B JUMP JUMPDEST SWAP1 POP SWAP3 SWAP2 POP POP JUMP JUMPDEST PUSH32 0x4E487B7100000000000000000000000000000000000000000000000000000000 PUSH0 MSTORE PUSH1 0x22 PUSH1 0x4 MSTORE PUSH1 0x24 PUSH0 REVERT JUMPDEST PUSH0 PUSH1 0x2 DUP3 DIV SWAP1 POP PUSH1 0x1 DUP3 AND DUP1 PUSH2 0x24FB JUMPI PUSH1 0x7F DUP3 AND SWAP2 POP JUMPDEST PUSH1 0x20 DUP3 LT DUP2 SUB PUSH2 0x250E JUMPI PUSH2 0x250D PUSH2 0x24B7 JUMP JUMPDEST JUMPDEST POP SWAP2 SWAP1 POP JUMP JUMPDEST PUSH32 0x4E487B7100000000000000000000000000000000000000000000000000000000 PUSH0 MSTORE PUSH1 0x32 PUSH1 0x4 MSTORE PUSH1 0x24 PUSH0 REVERT JUMPDEST PUSH32 0x545745455420444F45534E275420455849535400000000000000000000000000 PUSH0 DUP3 ADD MSTORE POP JUMP JUMPDEST PUSH0 PUSH2 0x2575 PUSH1 0x13 DUP4 PUSH2 0x1E1F JUMP JUMPDEST SWAP2 POP PUSH2 0x2580 DUP3 PUSH2 0x2541 JUMP JUMPDEST PUSH1 0x20 DUP3 ADD SWAP1 POP SWAP2 SWAP1 POP JUMP JUMPDEST PUSH0 PUSH1 0x20 DUP3 ADD SWAP1 POP DUP2 DUP2 SUB PUSH0 DUP4 ADD MSTORE PUSH2 0x25A2 DUP2 PUSH2 0x2569 JUMP JUMPDEST SWAP1 POP SWAP2 SWAP1 POP JUMP JUMPDEST PUSH32 0x544845524520415245204E4F204C494B45530000000000000000000000000000 PUSH0 DUP3 ADD MSTORE POP JUMP JUMPDEST PUSH0 PUSH2 0x25DD PUSH1 0x12 DUP4 PUSH2 0x1E1F JUMP JUMPDEST SWAP2 POP PUSH2 0x25E8 DUP3 PUSH2 0x25A9 JUMP JUMPDEST PUSH1 0x20 DUP3 ADD SWAP1 POP SWAP2 SWAP1 POP JUMP JUMPDEST PUSH0 PUSH1 0x20 DUP3 ADD SWAP1 POP DUP2 DUP2 SUB PUSH0 DUP4 ADD MSTORE PUSH2 0x260A DUP2 PUSH2 0x25D1 JUMP JUMPDEST SWAP1 POP SWAP2 SWAP1 POP JUMP JUMPDEST PUSH32 0x4E487B7100000000000000000000000000000000000000000000000000000000 PUSH0 MSTORE PUSH1 0x11 PUSH1 0x4 MSTORE PUSH1 0x24 PUSH0 REVERT JUMPDEST PUSH0 PUSH2 0x2648 DUP3 PUSH2 0x1D86 JUMP JUMPDEST SWAP2 POP PUSH0 DUP3 SUB PUSH2 0x265A JUMPI PUSH2 0x2659 PUSH2 0x2611 JUMP JUMPDEST JUMPDEST PUSH1 0x1 DUP3 SUB SWAP1 POP SWAP2 SWAP1 POP JUMP JUMPDEST PUSH32 0x594F55275245204E4F5420544845204F574E4552000000000000000000000000 PUSH0 DUP3 ADD MSTORE POP JUMP JUMPDEST PUSH0 PUSH2 0x2699 PUSH1 0x14 DUP4 PUSH2 0x1E1F JUMP JUMPDEST SWAP2 POP PUSH2 0x26A4 DUP3 PUSH2 0x2665 JUMP JUMPDEST PUSH1 0x20 DUP3 ADD SWAP1 POP SWAP2 SWAP1 POP JUMP JUMPDEST PUSH0 PUSH1 0x20 DUP3 ADD SWAP1 POP DUP2 DUP2 SUB PUSH0 DUP4 ADD MSTORE PUSH2 0x26C6 DUP2 PUSH2 0x268D JUMP JUMPDEST SWAP1 POP SWAP2 SWAP1 POP JUMP JUMPDEST PUSH0 PUSH2 0x26D7 DUP3 PUSH2 0x1D86 JUMP JUMPDEST SWAP2 POP PUSH32 0xFFFFFFFFFFFFFFFFFFFFFFFFFFFFFFFFFFFFFFFFFFFFFFFFFFFFFFFFFFFFFFFF DUP3 SUB PUSH2 0x2709 JUMPI PUSH2 0x2708 PUSH2 0x2611 JUMP JUMPDEST JUMPDEST PUSH1 0x1 DUP3 ADD SWAP1 POP SWAP2 SWAP1 POP JUMP JUMPDEST PUSH32 0x4E4F20434F4E54454E542C20504C4541534520575249544520534F4D45544849 PUSH0 DUP3 ADD MSTORE PUSH32 0x4E47000000000000000000000000000000000000000000000000000000000000 PUSH1 0x20 DUP3 ADD MSTORE POP JUMP JUMPDEST PUSH0 PUSH2 0x276E PUSH1 0x22 DUP4 PUSH2 0x1E1F JUMP JUMPDEST SWAP2 POP PUSH2 0x2779 DUP3 PUSH2 0x2714 JUMP JUMPDEST PUSH1 0x40 DUP3 ADD SWAP1 POP SWAP2 SWAP1 POP JUMP JUMPDEST PUSH0 PUSH1 0x20 DUP3 ADD SWAP1 POP DUP2 DUP2 SUB PUSH0 DUP4 ADD MSTORE PUSH2 0x279B DUP2 PUSH2 0x2762 JUMP JUMPDEST SWAP1 POP SWAP2 SWAP1 POP JUMP JUMPDEST PUSH32 0x544845204D4158494D554D205457454554532052454143484544000000000000 PUSH0 DUP3 ADD MSTORE POP JUMP JUMPDEST PUSH0 PUSH2 0x27D6 PUSH1 0x1A DUP4 PUSH2 0x1E1F JUMP JUMPDEST SWAP2 POP PUSH2 0x27E1 DUP3 PUSH2 0x27A2 JUMP JUMPDEST PUSH1 0x20 DUP3 ADD SWAP1 POP SWAP2 SWAP1 POP JUMP JUMPDEST PUSH0 PUSH1 0x20 DUP3 ADD SWAP1 POP DUP2 DUP2 SUB PUSH0 DUP4 ADD MSTORE PUSH2 0x2803 DUP2 PUSH2 0x27CA JUMP JUMPDEST SWAP1 POP SWAP2 SWAP1 POP JUMP JUMPDEST PUSH0 DUP2 SWAP1 POP DUP2 PUSH0 MSTORE PUSH1 0x20 PUSH0 KECCAK256 SWAP1 POP SWAP2 SWAP1 POP JUMP JUMPDEST PUSH0 PUSH1 0x20 PUSH1 0x1F DUP4 ADD DIV SWAP1 POP SWAP2 SWAP1 POP JUMP JUMPDEST PUSH0 DUP3 DUP3 SHL SWAP1 POP SWAP3 SWAP2 POP POP JUMP JUMPDEST PUSH0 PUSH1 0x8 DUP4 MUL PUSH2 0x2866 PUSH32 0xFFFFFFFFFFFFFFFFFFFFFFFFFFFFFFFFFFFFFFFFFFFFFFFFFFFFFFFFFFFFFFFF DUP3 PUSH2 0x282B JUMP JUMPDEST PUSH2 0x2870 DUP7 DUP4 PUSH2 0x282B JUMP JUMPDEST SWAP6 POP DUP1 NOT DUP5 AND SWAP4 POP DUP1 DUP7 AND DUP5 OR SWAP3 POP POP POP SWAP4 SWAP3 POP POP POP JUMP JUMPDEST PUSH0 DUP2 SWAP1 POP SWAP2 SWAP1 POP JUMP JUMPDEST PUSH0 PUSH2 0x28AB PUSH2 0x28A6 PUSH2 0x28A1 DUP5 PUSH2 0x1D86 JUMP JUMPDEST PUSH2 0x2888 JUMP JUMPDEST PUSH2 0x1D86 JUMP JUMPDEST SWAP1 POP SWAP2 SWAP1 POP JUMP JUMPDEST PUSH0 DUP2 SWAP1 POP SWAP2 SWAP1 POP JUMP JUMPDEST PUSH2 0x28C4 DUP4 PUSH2 0x2891 JUMP JUMPDEST PUSH2 0x28D8 PUSH2 0x28D0 DUP3 PUSH2 0x28B2 JUMP JUMPDEST DUP5 DUP5 SLOAD PUSH2 0x2837 JUMP JUMPDEST DUP3 SSTORE POP POP POP POP JUMP JUMPDEST PUSH0 SWAP1 JUMP JUMPDEST PUSH2 0x28EC PUSH2 0x28E0 JUMP JUMPDEST PUSH2 0x28F7 DUP2 DUP5 DUP5 PUSH2 0x28BB JUMP JUMPDEST POP POP POP JUMP JUMPDEST JUMPDEST DUP2 DUP2 LT ISZERO PUSH2 0x291A JUMPI PUSH2 0x290F PUSH0 DUP3 PUSH2 0x28E4 JUMP JUMPDEST PUSH1 0x1 DUP2 ADD SWAP1 POP PUSH2 0x28FD JUMP JUMPDEST POP POP JUMP JUMPDEST PUSH1 0x1F DUP3 GT ISZERO PUSH2 0x295F JUMPI PUSH2 0x2930 DUP2 PUSH2 0x280A JUMP JUMPDEST PUSH2 0x2939 DUP5 PUSH2 0x281C JUMP JUMPDEST DUP2 ADD PUSH1 0x20 DUP6 LT ISZERO PUSH2 0x2948 JUMPI DUP2 SWAP1 POP JUMPDEST PUSH2 0x295C PUSH2 0x2954 DUP6 PUSH2 0x281C JUMP JUMPDEST DUP4 ADD DUP3 PUSH2 0x28FC JUMP JUMPDEST POP POP JUMPDEST POP POP POP JUMP JUMPDEST PUSH0 DUP3 DUP3 SHR SWAP1 POP SWAP3 SWAP2 POP POP JUMP JUMPDEST PUSH0 PUSH2 0x297F PUSH0 NOT DUP5 PUSH1 0x8 MUL PUSH2 0x2964 JUMP JUMPDEST NOT DUP1 DUP4 AND SWAP2 POP POP SWAP3 SWAP2 POP POP JUMP JUMPDEST PUSH0 PUSH2 0x2997 DUP4 DUP4 PUSH2 0x2970 JUMP JUMPDEST SWAP2 POP DUP3 PUSH1 0x2 MUL DUP3 OR SWAP1 POP SWAP3 SWAP2 POP POP JUMP JUMPDEST PUSH2 0x29B0 DUP3 PUSH2 0x1E15 JUMP JUMPDEST PUSH8 0xFFFFFFFFFFFFFFFF DUP2 GT ISZERO PUSH2 0x29C9 JUMPI PUSH2 0x29C8 PUSH2 0x21FA JUMP JUMPDEST JUMPDEST PUSH2 0x29D3 DUP3 SLOAD PUSH2 0x24E4 JUMP JUMPDEST PUSH2 0x29DE DUP3 DUP3 DUP6 PUSH2 0x291E JUMP JUMPDEST PUSH0 PUSH1 0x20 SWAP1 POP PUSH1 0x1F DUP4 GT PUSH1 0x1 DUP2 EQ PUSH2 0x2A0F JUMPI PUSH0 DUP5 ISZERO PUSH2 0x29FD JUMPI DUP3 DUP8 ADD MLOAD SWAP1 POP JUMPDEST PUSH2 0x2A07 DUP6 DUP3 PUSH2 0x298C JUMP JUMPDEST DUP7 SSTORE POP PUSH2 0x2A6E JUMP JUMPDEST PUSH1 0x1F NOT DUP5 AND PUSH2 0x2A1D DUP7 PUSH2 0x280A JUMP JUMPDEST PUSH0 JUMPDEST DUP3 DUP2 LT ISZERO PUSH2 0x2A44 JUMPI DUP5 DUP10 ADD MLOAD DUP3 SSTORE PUSH1 0x1 DUP3 ADD SWAP2 POP PUSH1 0x20 DUP6 ADD SWAP5 POP PUSH1 0x20 DUP2 ADD SWAP1 POP PUSH2 0x2A1F JUMP JUMPDEST DUP7 DUP4 LT ISZERO PUSH2 0x2A61 JUMPI DUP5 DUP10 ADD MLOAD PUSH2 0x2A5D PUSH1 0x1F DUP10 AND DUP3 PUSH2 0x2970 JUMP JUMPDEST DUP4 SSTORE POP JUMPDEST PUSH1 0x1 PUSH1 0x2 DUP9 MUL ADD DUP9 SSTORE POP POP POP JUMPDEST POP POP POP POP POP POP JUMP JUMPDEST PUSH0 PUSH1 0x80 DUP3 ADD SWAP1 POP PUSH2 0x2A89 PUSH0 DUP4 ADD DUP8 PUSH2 0x1DF7 JUMP JUMPDEST DUP2 DUP2 SUB PUSH1 0x20 DUP4 ADD MSTORE PUSH2 0x2A9B DUP2 DUP7 PUSH2 0x1E4D JUMP JUMPDEST SWAP1 POP PUSH2 0x2AAA PUSH1 0x40 DUP4 ADD DUP6 PUSH2 0x1DF7 JUMP JUMPDEST PUSH2 0x2AB7 PUSH1 0x60 DUP4 ADD DUP5 PUSH2 0x1DF7 JUMP JUMPDEST SWAP6 SWAP5 POP POP POP POP POP JUMP JUMPDEST PUSH32 0x594F552043414E4E4F5420464F4C4C4F5720594F555253454C46000000000000 PUSH0 DUP3 ADD MSTORE POP JUMP JUMPDEST PUSH0 PUSH2 0x2AF4 PUSH1 0x1A DUP4 PUSH2 0x1E1F JUMP JUMPDEST SWAP2 POP PUSH2 0x2AFF DUP3 PUSH2 0x2AC0 JUMP JUMPDEST PUSH1 0x20 DUP3 ADD SWAP1 POP SWAP2 SWAP1 POP JUMP JUMPDEST PUSH0 PUSH1 0x20 DUP3 ADD SWAP1 POP DUP2 DUP2 SUB PUSH0 DUP4 ADD MSTORE PUSH2 0x2B21 DUP2 PUSH2 0x2AE8 JUMP JUMPDEST SWAP1 POP SWAP2 SWAP1 POP JUMP JUMPDEST PUSH32 0x414C524541445920464F4C4C4F57494E47205448495320555345520000000000 PUSH0 DUP3 ADD MSTORE POP JUMP JUMPDEST PUSH0 PUSH2 0x2B5C PUSH1 0x1B DUP4 PUSH2 0x1E1F JUMP JUMPDEST SWAP2 POP PUSH2 0x2B67 DUP3 PUSH2 0x2B28 JUMP JUMPDEST PUSH1 0x20 DUP3 ADD SWAP1 POP SWAP2 SWAP1 POP JUMP JUMPDEST PUSH0 PUSH1 0x20 DUP3 ADD SWAP1 POP DUP2 DUP2 SUB PUSH0 DUP4 ADD MSTORE PUSH2 0x2B89 DUP2 PUSH2 0x2B50 JUMP JUMPDEST SWAP1 POP SWAP2 SWAP1 POP JUMP JUMPDEST PUSH32 0x594F55275245204E4F5420464F4C4C4F57494E47205448495320555345520000 PUSH0 DUP3 ADD MSTORE POP JUMP JUMPDEST PUSH0 PUSH2 0x2BC4 PUSH1 0x1E DUP4 PUSH2 0x1E1F JUMP JUMPDEST SWAP2 POP PUSH2 0x2BCF DUP3 PUSH2 0x2B90 JUMP JUMPDEST PUSH1 0x20 DUP3 ADD SWAP1 POP SWAP2 SWAP1 POP JUMP JUMPDEST PUSH0 PUSH1 0x20 DUP3 ADD SWAP1 POP DUP2 DUP2 SUB PUSH0 DUP4 ADD MSTORE PUSH2 0x2BF1 DUP2 PUSH2 0x2BB8 JUMP JUMPDEST SWAP1 POP SWAP2 SWAP1 POP JUMP JUMPDEST PUSH0 PUSH2 0x2C02 DUP3 PUSH2 0x1D86 JUMP JUMPDEST SWAP2 POP PUSH2 0x2C0D DUP4 PUSH2 0x1D86 JUMP JUMPDEST SWAP3 POP DUP3 DUP3 SUB SWAP1 POP DUP2 DUP2 GT ISZERO PUSH2 0x2C25 JUMPI PUSH2 0x2C24 PUSH2 0x2611 JUMP JUMPDEST JUMPDEST SWAP3 SWAP2 POP POP JUMP JUMPDEST PUSH32 0x4E487B7100000000000000000000000000000000000000000000000000000000 PUSH0 MSTORE PUSH1 0x31 PUSH1 0x4 MSTORE PUSH1 0x24 PUSH0 REVERT INVALID LOG2 PUSH5 0x6970667358 0x22 SLT KECCAK256 0xB4 SWAP11 SWAP15 PUSH19 0xEAB5DBCCDBDD692AA6E70679005E960D9D2E59 0x4D LOG4 0xD4 PUSH22 0x8E053AB4D64736F6C634300081A0033000000000000 "
				},
				"gasEstimates": {
					"creation": {
						"codeDepositCost": "2281200",
						"executionCost": "51020",
						"totalCost": "2332220"
					},
					"external": {
						"MAX_TWEET_LIMIT()": "2508",
						"changeTweetLength(uint16)": "infinite",
						"createTweet(string)": "infinite",
						"followUser(address)": "126146",
						"followers(address,uint256)": "infinite",
						"following(address,uint256)": "infinite",
						"getAllTweets(address)": "infinite",
						"getFollowers(address)": "infinite",
						"getFollowing(address)": "infinite",
						"isFollowing(address,address)": "infinite",
						"likeTweet(address,uint256)": "infinite",
						"numberOfTweets()": "2550",
						"owner()": "2603",
						"tweets(address,uint256)": "infinite",
						"unLlikeTweet(address,uint256)": "infinite",
						"unfollowUser(address)": "infinite",
						"viewTweet(address,uint256)": "infinite"
					}
				},
				"methodIdentifiers": {
					"MAX_TWEET_LIMIT()": "62a9edca",
					"changeTweetLength(uint16)": "58bfa4ab",
					"createTweet(string)": "7c9cd2bc",
					"followUser(address)": "a70806f7",
					"followers(address,uint256)": "ebd009d3",
					"following(address,uint256)": "9139cda5",
					"getAllTweets(address)": "12e7ee1c",
					"getFollowers(address)": "c2fe2022",
					"getFollowing(address)": "d8236dff",
					"isFollowing(address,address)": "99ec3a42",
					"likeTweet(address,uint256)": "63378216",
					"numberOfTweets()": "5a34bd5e",
					"owner()": "8da5cb5b",
					"tweets(address,uint256)": "05a1b4a9",
					"unLlikeTweet(address,uint256)": "32b0aa6a",
					"unfollowUser(address)": "f107cfcb",
					"viewTweet(address,uint256)": "728540c0"
				}
			},
			"storageLayout": {
				"storage": [
					{
						"astId": 15,
						"contract": "contracts/Twitter.sol:Twitter",
						"label": "MAX_TWEET_LIMIT",
						"offset": 0,
						"slot": "0",
						"type": "t_uint16"
					},
					{
						"astId": 17,
						"contract": "contracts/Twitter.sol:Twitter",
						"label": "owner",
						"offset": 2,
						"slot": "0",
						"type": "t_address"
					},
					{
						"astId": 23,
						"contract": "contracts/Twitter.sol:Twitter",
						"label": "tweets",
						"offset": 0,
						"slot": "1",
						"type": "t_mapping(t_address,t_array(t_struct(Tweet)12_storage)dyn_storage)"
					},
					{
						"astId": 29,
						"contract": "contracts/Twitter.sol:Twitter",
						"label": "isFollowing",
						"offset": 0,
						"slot": "2",
						"type": "t_mapping(t_address,t_mapping(t_address,t_bool))"
					},
					{
						"astId": 34,
						"contract": "contracts/Twitter.sol:Twitter",
						"label": "followers",
						"offset": 0,
						"slot": "3",
						"type": "t_mapping(t_address,t_array(t_address)dyn_storage)"
					},
					{
						"astId": 39,
						"contract": "contracts/Twitter.sol:Twitter",
						"label": "following",
						"offset": 0,
						"slot": "4",
						"type": "t_mapping(t_address,t_array(t_address)dyn_storage)"
					}
				],
				"types": {
					"t_address": {
						"encoding": "inplace",
						"label": "address",
						"numberOfBytes": "20"
					},
					"t_array(t_address)dyn_storage": {
						"base": "t_address",
						"encoding": "dynamic_array",
						"label": "address[]",
						"numberOfBytes": "32"
					},
					"t_array(t_struct(Tweet)12_storage)dyn_storage": {
						"base": "t_struct(Tweet)12_storage",
						"encoding": "dynamic_array",
						"label": "struct Twitter.Tweet[]",
						"numberOfBytes": "32"
					},
					"t_bool": {
						"encoding": "inplace",
						"label": "bool",
						"numberOfBytes": "1"
					},
					"t_mapping(t_address,t_array(t_address)dyn_storage)": {
						"encoding": "mapping",
						"key": "t_address",
						"label": "mapping(address => address[])",
						"numberOfBytes": "32",
						"value": "t_array(t_address)dyn_storage"
					},
					"t_mapping(t_address,t_array(t_struct(Tweet)12_storage)dyn_storage)": {
						"encoding": "mapping",
						"key": "t_address",
						"label": "mapping(address => struct Twitter.Tweet[])",
						"numberOfBytes": "32",
						"value": "t_array(t_struct(Tweet)12_storage)dyn_storage"
					},
					"t_mapping(t_address,t_bool)": {
						"encoding": "mapping",
						"key": "t_address",
						"label": "mapping(address => bool)",
						"numberOfBytes": "32",
						"value": "t_bool"
					},
					"t_mapping(t_address,t_mapping(t_address,t_bool))": {
						"encoding": "mapping",
						"key": "t_address",
						"label": "mapping(address => mapping(address => bool))",
						"numberOfBytes": "32",
						"value": "t_mapping(t_address,t_bool)"
					},
					"t_string_storage": {
						"encoding": "bytes",
						"label": "string",
						"numberOfBytes": "32"
					},
					"t_struct(Tweet)12_storage": {
						"encoding": "inplace",
						"label": "struct Twitter.Tweet",
						"members": [
							{
								"astId": 3,
								"contract": "contracts/Twitter.sol:Twitter",
								"label": "id",
								"offset": 0,
								"slot": "0",
								"type": "t_uint256"
							},
							{
								"astId": 5,
								"contract": "contracts/Twitter.sol:Twitter",
								"label": "author",
								"offset": 0,
								"slot": "1",
								"type": "t_address"
							},
							{
								"astId": 7,
								"contract": "contracts/Twitter.sol:Twitter",
								"label": "content",
								"offset": 0,
								"slot": "2",
								"type": "t_string_storage"
							},
							{
								"astId": 9,
								"contract": "contracts/Twitter.sol:Twitter",
								"label": "timestamp",
								"offset": 0,
								"slot": "3",
								"type": "t_uint256"
							},
							{
								"astId": 11,
								"contract": "contracts/Twitter.sol:Twitter",
								"label": "likes",
								"offset": 0,
								"slot": "4",
								"type": "t_uint256"
							}
						],
						"numberOfBytes": "160"
					},
					"t_uint16": {
						"encoding": "inplace",
						"label": "uint16",
						"numberOfBytes": "2"
					},
					"t_uint256": {
						"encoding": "inplace",
						"label": "uint256",
						"numberOfBytes": "32"
					}
				}
			},
			"userdoc": {
				"kind": "user",
				"methods": {},
				"version": 1
			}
		}
	}
}